:100000000C9401010C9429010C9429010C942901F0
:100010000C9429010C9429010C9429010C942901B8
:100020000C9429010C9429010C9429010C942901A8
:100030000C9429010C9429010C9429010C94290198
:100040000C94DA180C9429010C94E51B0C94171CE1
:100050000C9429010C9429010C9429010C94290178
:100060000C9429010C9429010A436D64206F7220BD
:10007000566172206578702D640A53796D626F6CD9
:1000800020273D27206578702D640A4E616D65201C
:1000900065787065637465640A53796D626F6C206E
:1000A000273B27206578702D640A4578747261209B
:1000B000636861727320617420656E640A556E65B1
:1000C00078706563746564206572726F720A4E752C
:1000D0006D626572206F7574206F662072616E6745
:1000E000650A4E756D62657220657870656374652A
:1000F000640A556E65787065637465642073796D04
:10010000626F6C0A556E6578702D64206C696E653F
:1001100020656E640A004D69736B6174696E6F20AF
:10012000424153494320312E370A636F64653A20B8
:100130000A766172733A200A6E6578743A200A4230
:100140005245414B0A456E64206F6620636F6465BB
:100150000A53617665640A4C6F616465640A62796A
:100160007465730A4C6F6164206661696C65640A2A
:100170004175746F72756E20696E203120736563EE
:100180000A43616E63656C6564210A4C6F77205683
:10019000415253206D656D0A4C6F772050524F4786
:1001A000206D656D0A0000000008000201000003D8
:1001B00004070000000000000000010204081020F5
:1001C00040800102040810200102040810200404E9
:1001D00004040404040402020202020203030303EF
:1001E0000303000000002300260029000000000097
:1001F000250028002B0000000000240027002A0012
:10020000471C11241FBECFEFD8E0DEBFCDBF11E0E9
:10021000A0E0B1E0EAECFAE302C005900D92A23949
:10022000B107D9F726E0A2E9B1E001C01D92AB3CCD
:10023000B207E1F712E0C2E0D2E004C02297FE016B
:100240000E942E1DC030D107C9F70E94B31C0C9428
:10025000631D0C940000DC01ED91FC910190F08194
:10026000E02D0994CF93C82F8A3019F46DE070E027
:100270000AC0883061F468E070E08EE296E00E9487
:100280002B0160E270E08EE296E00E942B016C2F61
:10029000772767FD70958EE296E0CF910C942B0145
:1002A0000C9432018F3F59F580E00E94C81980916B
:1002B0007C00807F8E6080937C0061E070E080E055
:1002C00090E00E94531980917A00806480937A00B4
:1002D00080917A0086FDFCCF2091780030917900E2
:1002E0001216130674F4442737FD4095542F64EB1F
:1002F0007BE281E190E00E94F91CC90108950C9411
:10030000C8198FEF9FEF08950E947D1A21E0019791
:1003100009F020E0822F0895CF93DF93C82FD62FC6
:1003200067FD0CC061E00E940E1A61E0D11101C0AE
:1003300060E08C2FDF91CF910C94471A6F3F11F43E
:1003400060E001C062E08C2FDF91CF910C940E1A17
:10035000CF93DF93EC018230910514F40E942419AD
:100360000E9424199E01442737FD4095542F0E9476
:10037000D71CC901DF91CF9108950F931F93CF939D
:10038000DF93EA01882329F0813029F508E610E09F
:1003900002C006E111E080E090E016164CF4F8018E
:1003A000E80FF91FE4910196EA30C9F76150F5CFE3
:1003B000080F191FF80184918A3051F0209719F025
:1003C0008883219602C00E9432010F5F1F4FF2CF37
:1003D000209709F01882DF91CF911F910F91089516
:1003E0008C3921E0920749F08F36934019F480E46C
:1003F00090E008958FEF9FEF089581E490E00895D5
:100400008F3C21E0920769F0853523E0920731F0B7
:100410008C39914049F08FEF9FEF089580E090E094
:10042000089582E090E0089581E090E00895FB0156
:10043000882319F0813031F00895A081B181828143
:100440008C930895628180810C948C01FB01813032
:1004500051F0823079F0811110C00190F081E02DCF
:10046000808190E0089580810E948401992787FD12
:100470009095089580810C94520180E090E0089559
:100480001F93CF93DF93EC0110E01C161D0634F48C
:100490002197CE010E944D1D1827F7CF812FDF91A4
:1004A000CF911F910895EF92FF920F931F93CF93D7
:1004B000DF93EC010097C1F56115710589F4C091D6
:1004C0009201D0919301C530D10524F0CE010E9454
:1004D000400201C085E5682FCE010E94551D07C06E
:1004E00010929301109292011616170614F491E0DF
:1004F00051C081E090E00E944D1DC82FD0E0DC2F5C
:10050000CC2780E090E00E944D1D9E01282BC90160
:10051000215031092B3B3240E0F503960E94400206
:1005200091E08823B9F135C016161706ACF48C019A
:10053000060F171F699180919201909193019C0180
:100540002F5F3F4F30939301209392010E94551DDE
:10055000C017D10779F7CBCFEE24FF24E61AF70AAC
:100560008C01C8018C1B9D0B8E159F050CF0BFCF15
:1005700080919201909193019C012F5F3F4F3093A6
:100580009301209392010E944D1DF80181938F01E8
:10059000E8CF90E0892FDF91CF911F910F91FF90CD
:1005A000EF90089562E080E00E940E1A62E370E02E
:1005B00080E090E00E94531980E00E947D1A892B10
:1005C00051F460E080E090E00E94551D61E080E021
:1005D00090E00C94551D08950E94D20226E040E060
:1005E00052EC61E070E08EE296E00E94891B62E0CE
:1005F00080E00E940E1A4CEB52E068E270E08CE260
:1006000091E00C941F118EE296E00E94A61A181633
:1006100019062CF48EE296E00E94BF1A089580E03D
:1006200008950E9403038093F4050C947B11E091DC
:10063000FA05F091FB051182108282E090E0909320
:10064000F9058093F8051092F50508957093F70564
:100650006093F6059093FB058093FA050C941703BD
:100660008091F4058D3011F08A3099F484E991E09D
:100670000E94F716E091F505FF27E7FDF095EC568F
:10068000FE4F10821092F5058AE00E94500181E031
:100690000895883011F08F3759F48091F5051816B8
:1006A000ACF498E09093F40581508093F5050EC06A
:1006B000803264F0E091F50591E09E0F9093F5058E
:1006C000FF27E7FDF095EC56FE4F80838091F405FF
:1006D0000E94500180E00895E091FA05F091FB0539
:1006E000208131812115310551F0281739073CF45B
:1006F000228130E02D5F3F4FE20FF31FF1CFCF019A
:1007000008958F929F92AF92BF92CF92DF92EF9215
:10071000FF920F931F93CF93DF937C016B01CB016B
:100720000E946C03EC01888199818C159D0511F55F
:100730000A8110E00D5F1F4F0C0F1D1F4091FA053D
:100740005091FB058091F8059091F905480F591FCC
:10075000401B510BB801CE010E943B1D0C1B1D0B11
:100760008091F8059091F905801B91099093F90506
:100770008093F805F70101900020E9F78F010150FF
:1007800011090E191F094091F8055091F9055801FA
:10079000BB24CA018A0D9B1D03962091F60530915A
:1007A000F70582179307B4F00E94DE1740E050E08F
:1007B0006DE080E00E94BD01DF91CF911F910F910C
:1007C000FF90EF90DF90CF90BF90AF909F908F9071
:1007D0000C94DE17002391F12091FA053091FB056E
:1007E000240F351F2C1B3D0B4501F3E08F0E911C90
:1007F000A901BE01CE01880D991D0E943B1D80916B
:10080000F8059091F905880D991D9093F90580934D
:10081000F805D982C8820A83A501B701CE010396E3
:10082000DF91CF911F910F91FF90EF90DF90CF90CC
:10083000BF90AF909F908F900C94321DDF91CF911D
:100840001F910F91FF90EF90DF90CF90BF90AF90EE
:100850009F908F90089561E070E080E090E00E94AA
:1008600053028823B9F062E070E088EF95E00E94BF
:1008700053026091F8057091F9058091FA05909105
:10088000FB050E94530260E070E080E090E00E946F
:10089000530281E008956FEF7FEF80E090E00E94C7
:1008A00053028823D1F06EEF7FEF88EF95E00E942E
:1008B00053026091F8057091F90571956195710980
:1008C0008091FA059091FB050E94530260E070E070
:1008D00080E090E00E94530281E00895EF92FF9241
:1008E0000F931F93CF93DF931F92CDB7DEB7009185
:1008F000FA051091FB056FEF7FEF80E090E00E941A
:100900005302882309F466C06EEF7FEF84E991E01B
:100910000E9453026EEF7FEFC8010E945302F8015C
:1009200080819181892B09F442C0609116067091F3
:10093000170684E991E00E94CC167801F2E0EF0EF0
:10094000F11C6FEF7FEFCE0101960E945302698187
:1009500070E071956195710984E991E00E945302FC
:10096000E981F0E0EC56FE4F10826091160670911E
:10097000170684E991E00E94CC16809116069091AA
:1009800017060E9412128983F8018283AC01552751
:100990006091160670911706C80103960E94321DD9
:1009A000098110E00F5F1F4F0E0D1F1DB3CF60E0D8
:1009B00070E080E090E00E9453028091FA059091EF
:1009C000FB05081B190B0E5F1F4F1093F9050093D1
:1009D000F80581E00F90DF91CF911F910F91FF906B
:1009E000EF900895E0911306F091140680910F06A0
:1009F000909110069C012F5F3F4F3093100620937B
:100A00000F06880F991FE80FF91F8081918190933D
:100A100022018093210108958FEF9FE79093220197
:100A20008093210108958091210690912206FC0176
:100A30002081222331F00E94081290932206809395
:100A400021060895E0912106F091220680818823F5
:100A500019F00E941305F6CF0895E0912106F09158
:100A600022068181928190932201809321010C942E
:100A70001305E0911306F091140680910F069091F2
:100A8000100601979093100680930F06880F991F08
:100A9000E80FF91F809121019091220191838083B9
:100AA000E0912106F09122068181928190932201AA
:100AB000809321010C941305809115068260809328
:100AC00015068FE30E942217E0912106F09122067D
:100AD00082810E9422178DE30C94221710920A063D
:100AE000109209061092080680910D0690910E064C
:100AF0009093100680930F06E0910B06F0910C0680
:100B000011821082089520910A0680910806909122
:100B1000090634E02302800D911D11240895769575
:100B2000679570930E0660930D0690930C06809364
:100B30000B0690931406809313060C946E05FC012B
:100B40008181992787FD90952081223030F0228184
:100B50003FE72302800D911D1124089560910A063C
:100B6000772767FD7095A0910B06B0910C0640E0C9
:100B700050E046175707C4F49B01240F351F3595E5
:100B80002795F901EE0FFF1FEE0FFF1FEA0FFB1F66
:100B90000190F081E02DE817F90714F0B901E9CFD1
:100BA000A9014F5F5F4FE5CF842F0895CF93DF9367
:100BB000EC010E94AE05E0910B06F0910C0694E06A
:100BC0008902E00DF11D1124808191818C179D0710
:100BD00019F48281938102C080E090E0DF91CF918F
:100BE0000895CF93DF93C82FDD27C7FDD095DF672A
:100BF000CE010E94AE05E0910B06F0910C0694E048
:100C00008902E00DF11D1124808191818C179D07CF
:100C100019F48281938102C08FEF9FEFDF91CF9112
:100C2000089540910A06209108063091090654E083
:100C30004502200D311D1124280F391F40910B064C
:100C400050910C06420F531F20910D0630910E0655
:100C500025503048220F331F8091130690911406BF
:100C6000820F931F4817590760F00E94DE1740E07B
:100C700050E06CE080E00E94BD010E94DE1781E040
:100C8000089580E00895BF92CF92DF92EF92FF9295
:100C90000F931F93CF93DF938C017B010E94AE05CE
:100CA000B82EC82EDD24C7FCD094E601CC0FDD1F82
:100CB000CC0FDD1FE0910B06F0910C06EC0FFD1F31
:100CC0002081318120173107A1F184E090E00E945A
:100CD0001106811136C040910A06B416ECF48091D9
:100CE0000B0690910C06552747FD50954C195D0950
:100CF000440F551F440F551F2091080630910906D7
:100D0000420F531FBC016C0F7D1F9E012C5F3F4F94
:100D1000820F931F0E943B1DE0910B06F0910C0681
:100D2000EC0FFD1F1183008380910A068F5F809373
:100D30000A06E0910B06F0910C06EC0FFD1FF38202
:100D4000E282DF91CF911F910F91FF90EF90DF90A2
:100D5000CF90BF900895DF92EF92FF920F931F9371
:100D6000CF93DF93E0912106F09122068181C82F75
:100D7000DD27C7FDD095DF678F71992787FD909597
:100D800090930306809302060E941305E0912106CA
:100D9000F0912206E180F2800E941305E091210685
:100DA000F09122068081882329F00E941305DD241A
:100DB000D39402C042E0D42ECE010E94AE05E09151
:100DC0000B06F0910C0694E08902E00DF11D112450
:100DD000808191818C179D0731F1DE9C8001DF9C21
:100DE000100D1124C80104960E94110681111BC028
:100DF000609108067091090681E0D81203C080E076
:100E000090E802C080E090E0682B792BCE010E9430
:100E100043068091080690910906800F911F9093D8
:100E2000090680930806DF91CF911F910F91FF90E3
:100E3000EF90DF900895DC01409104065091050683
:100E4000609106067091070680E090E08417950790
:100E5000BCF49A01280F391F35952795F901EE0F3B
:100E6000FF1FEE0FFF1FE60FF71F0190F081E02D2F
:100E7000EA17FB0714F0A901E9CFC9010196E6CFF3
:100E80000895CF93DF93EC010E941B07880F991FF1
:100E9000880F991FE0910606F0910706E80FF91FE9
:100EA000808191818C179D0749F48091FA0590917A
:100EB000FB0522813381820F931F02C080E090E006
:100EC000DF91CF910895EF92FF920F931F93CF93ED
:100ED000DF938C017B010E941B079C01409104065B
:100EE00050910506EC01CC0FDD1FCC0FDD1F8417E0
:100EF0009507A4F48091060690910706421B530BB8
:100F0000440F551F440F551FBC016C0F7D1F9E01E0
:100F10002C5F3F4F820F931F0E943B1DE0910606FE
:100F2000F0910706EC0FFD1F11830083F382E2822C
:100F30008091040690910506019690930506809392
:100F40000406DF91CF911F910F91FF90EF900895CC
:100F50002091130630911406E0910F06F0911006CF
:100F6000AF014F5F5F4F5093100640930F06AF01E4
:100F7000440F551FD901A40FB51F6D917C91119796
:100F80008F3209F452C01CF5863209F4C5C054F4FE
:100F9000833209F4B3C0853209F452C0813209F0BA
:100FA000DEC061C08B3279F18D32B1F18A3209F045
:100FB000D6C0FA013296E20FF31F20813181269FBD
:100FC000C001279F900D369F900D1124C6C08E350D
:100FD00009F4BBC054F48D3309F46CC08E3309F4AA
:100FE0005CC08C3309F0BBC04BC08C3709F49DC08A
:100FF00024F48B3709F46AC008958D3709F472C060
:101000008E3739F10895FA013296E20FF31F80818D
:101010009181860F971FA1C0FA013296E20FF31F4C
:1010200080819181861B970B98C0FA013296E20F5E
:10103000F31F808191810E94C31C71836083089596
:10104000FA013296E20FF31F808191810E94C31C46
:1010500084C0F0931006E0930F06719561957109B5
:101060006D937C930895F0931006E0930F0681E052
:1010700090E0672B11F080E090E08D939C930895B1
:10108000FA013296E20FF31F81E090E02081318176
:10109000261737070CF461C03CC0FA013296E20F04
:1010A000F31F81E090E020813181621773070CF417
:1010B00054C02FC0FA013296E20FF31F81E090E096
:1010C000208131812617370721F547C0FA01329672
:1010D000E20FF31F81E090E02081318162177307F6
:1010E000E4F517C0FA013296E20FF31F81E090E0B9
:1010F000208131812617370784F50BC0FA0132961B
:10110000E20FF31F81E090E020813181261737073D
:1011100021F580E090E021C0FA013296E20FF31F42
:1011200080819181892B61F008C0FA013296E20F2B
:10113000F31F80819181892B29F481E0672B19F4B9
:1011400080E001C081E090E008C0FA013296E20F31
:10115000F31F80819181862797279183808308954B
:10116000CF93DF930E94C1188F3F21E09207D9F4FB
:1011700080910F0690911006880F991FE091130639
:10118000F0911406E80FF91F808191812091F405F8
:10119000332727FD309531832083892B09F469C0DB
:1011A0001092F40566C0893C910599F480910F0670
:1011B00090911006880F991FC0911306D0911406C4
:1011C000C80FD91F888199810E94A80199838883BB
:1011D00050C0833D21E09207A1F480910F069091C9
:1011E0001006880F991FE0911306F0911406E80F7E
:1011F000F91F8081918197FF3CC09195819591095C
:101200002FC00E940002EC01E0910F06F091100641
:101210008091130690911406D7FD25C0BF01660F7B
:10122000771F680F791F8C2F0E942602C050DF4F56
:101230002881332727FD30952150310940910F0631
:1012400050911006240F351F3093100620930F067F
:10125000220F331FE0911306F0911406E20FF31FE3
:101260009183808306C0EE0FFF1FE80FF91F1182E4
:101270001082DF91CF9108950E94F105E0910F0651
:10128000F091100620911306309114068F3F4FEF16
:10129000940739F4EE0FFF1FE20FF31F1182108243
:1012A0000895492F441F4427441F62E0641B9F7721
:1012B000EE0FFF1FE20FF31F70910A06408151816C
:1012C00064039001659F300D1124820F931F24E069
:1012D0007202800D911D1124A0910B06B0910C0695
:1012E000A80FB91F623019F48D919C9102C08C91A6
:1012F00090E0918380830895CF93DF93E09121065E
:10130000F09122068081833209F45CC03CF4803184
:1013100049F18232E9F181115DC00CC0823351F094
:10132000833309F454C0803309F054C081810E9492
:10133000A80750C0E0911306F091140680910F06A3
:10134000909110069C012F5F3F4F30931006209321
:101350000F06880F991FE80FF91F80819181DF9197
:10136000CF910895A0911306B091140680910F06B5
:101370009091100601979093100680930F0621819B
:101380003281880F991FA80FB91F2D933C9322C05B
:10139000C0911306D091140680910F06909110060B
:1013A00001979093100680930F06880F991FC80F1E
:1013B000D91FCF0101960E949F050E94D6059983EF
:1013C000888308C0CF0101960E94B00803C08181C4
:1013D0000E943C090E94130591CFCF93DF93809127
:1013E00021069091220601960E949F05EC010E9421
:1013F00013050E947C09BC01CE01DF91CF910C94B2
:1014000043068091210690912206FC01208122331F
:1014100099F0203421F0211106C00C94DE170196BA
:101420000E94301709C00E947C09BC01882777FD03
:101430008095982F0E944B170E941305E2CFE091F0
:101440002106F09122068081882349F0823321F021
:101450000E947C090E9422170E941305F0CF089574
:101460000E947C09892B59F4E0912106F091220613
:101470008081882319F00E941305F6CF08950C94FB
:1014800013050F931F93CF93DF9300D0CDB7DEB733
:101490008B0149835A830E94F10549815A818F3F0C
:1014A0002FEF9207F9F0292F221F2227221F62E037
:1014B000621B9F7770910A0660039001619F300D57
:1014C0001124820F931FE4E07E02800D911D1124F0
:1014D000E0910B06F0910C06E80FF91F4083623093
:1014E00009F451830F900F90DF91CF911F910F91CD
:1014F00008951F93CF93DF93E0912106F091220688
:1015000011810E9413050E947C09EC010E941305C1
:101510000E947C09AC01BE01812FDF91CF911F9108
:101520000C94410ACF93DF93C0910206CF71C0643F
:101530008FEB8C0F8A3108F056C0E0912106F091B4
:1015400022068081803111F0D0E019C041815281A2
:101550006091020670910306D5E075956795DA955E
:10156000E1F78C2F0E94410A209102063091030678
:10157000205E3F4F30930306209302062BC02D2F91
:10158000332727FD3095E0912106F0912206418115
:1015900050E024173507F4F4E20FF31F428155277A
:1015A00047FD50956091020670910306B5E0759570
:1015B0006795BA95E1F78C2F0E94410A20910206A7
:1015C00030910306205E3F4F3093030620930206BE
:1015D000DF5FD5CF0E941305E0912106F09122062E
:1015E00080818111AACFDF91CF910895CF93DF93AE
:1015F000EC0181E090E00E94A8019093FF058093A8
:10160000FE05D093FD05C093FC05DF91CF910895B1
:101610000E947C090E94F60A8091150681608093E1
:101620001506089581E090E00E94A8012091FE0532
:101630003091FF05AC01421B530B81E02091FC056A
:101640003091FD05241735070CF080E008950E94C5
:10165000120B882329F0809115068E7F8093150642
:101660000895CF93DF938091F4058823D1F00E94F1
:1016700030038823B1F084E991E00E942B18EC013B
:10168000809121069091220601960E949F05BE013D
:101690000E9443060E941305809115068D7F80935A
:1016A0001506DF91CF910895DF92EF92FF920F938D
:1016B0001F93CF93DF93E82EE82FFF27E7FDF095E8
:1016C000ED5FFE4FD0800D2D112707FD1095209165
:1016D0000F0630911006201B310B3093100620931B
:1016E0000F06F12CC0910F06D09110062091130621
:1016F00030911406FD1484F4CF0DD11DF7FCDA955A
:10170000CC0FDD1FC20FD31F0E947C0999838883F1
:101710000E941305F394E6CFBE01660F771F620F98
:10172000731F8E2D0E94170280910F069091100654
:10173000800F911F9093100680930F06DF91CF9139
:101740001F910F91FF90EF90DF900895CF93DF935B
:10175000EC01909322068093210688818823D1F0A2
:101760000E941305898180346CF4E82FEE0FFF0B83
:10177000EB5FFE4F0190F081E02D09958981823069
:1017800021F408C080540E94540BC0912106D091CE
:101790002206E3CFDF91CF91089540E050E065E06D
:1017A00080E00E94BD010C94DE178091150684FD37
:1017B0000E944B04809115068C7C80931506089539
:1017C000CF93DF9380912101909122010E946C03BD
:1017D000EC0188819981009731F40E94D50B0E9419
:1017E000CD0B81E022C001969093220180932101CC
:1017F0004A8150E0BE016D5F7F4F84E991E00E9415
:10180000321DEA81F0E0EC56FE4F10826091160620
:101810007091170684E991E00E94CC16809116061B
:10182000909117060E94A60B80E0DF91CF9108955A
:101830000E94D50B109201061092000680910D06B1
:1018400090910E069093100680930F0640E050E0B2
:1018500064E080E00E94BD010C94DE17009729F03F
:101860009093010680930006089580910006909160
:1018700001068F3F2FEF920729F001979093010601
:10188000809300060E94E00B882321F0109201064D
:10189000109200068091000690910106892B11F4A8
:1018A0000C94D50B089581E090E0909322018093F1
:1018B00021010E946C0390931206809311061092EE
:1018C0000506109204068091FA059091FB0520917F
:1018D000F8053091F905820F931F909307068093C6
:1018E00006068091150680618093150608950F9372
:1018F0001F93CF93DF93E0911106F0911206808140
:101900009181892B31F08091210190912201892BC5
:1019100041F40E94D50BDF91CF911F910F910C9450
:10192000CD0BC281D0E02396CE0FDF1F8881998135
:101930009093220180932101CF0103960E94A60B70
:1019400000912101109122018881998180179107CE
:1019500009F1C8010E944107909312068093110675
:10196000892BE1F4C8010E946C03909312068093C6
:1019700011062091FA053091FB05BC01621B730B27
:101980008091210190912201DF91CF911F910F91C0
:101990000C946307D0931206C0931106DF91CF9188
:1019A0001F910F9108950E94AF11FC0180818D322B
:1019B00011F0813261F40E947D13E0911F06F091D5
:1019C000200681818D3229F48EE7818302C080E078
:1019D000089581E00895CF930E946712882339F01B
:1019E0000E94AF11FC018081883271F526C080E031
:1019F0000E948D158823A1F00E94AF11FC01808107
:101A0000E0911F06F0912006883239F483E280834A
:101A100081E00E943712C6E61AC082E2808314C0B9
:101A20000E94AF11FC01C081C83219F40E947D13DD
:101A30000EC00E94D30C811109C00E94AF1169E051
:101A40000E94FB11C5E603C0CBE201C0C1E38C2FAD
:101A5000CF9108950E94AF11FC018081882329F164
:101A60008B3319F1893219F18C3219F1982F9D7F3E
:101A70009D3281F096ED980F923060F08E3551F0E6
:101A80009BED980F923030F094EC980F933010F05B
:101A90008C3721F40E947D1381E308950E94AF11D9
:101AA00069E00E94FB1185E6089583E7089589E2C5
:101AB00008958CE20895CF93DF931F92CDB7DEB7E0
:101AC00018163CF00E94AF1169E00E94FB1185E6F8
:101AD0000EC069830E947D13698116163CF4E09163
:101AE0001F06F091200681E3808361838BE20F90D3
:101AF000DF91CF910895811107C00E94AF1169E075
:101B00000E94FB1185E608950E947D1381E30895EC
:101B100081528E3530F4E82FF0E0EC5DFE4F80818D
:101B200008958FEF0895813231F091E08E3709F0FA
:101B300090E0892F089581E00895883281F0E09146
:101B40002106F091220690E390838183CF010E94C9
:101B50000812909322068093210681E0089580E088
:101B600008958F929F92AF92BF92CF92DF92EF92A1
:101B7000FF920F931F93CF93DF93CDB7DEB760979C
:101B80000FB6F894DEBF0FBECDBF7C018C01BB2425
:101B9000BA9483E3D82E98E2C92EF801808181306F
:101BA00009F4AEC0823211F0803161F4B801809145
:101BB0002106909122060E94E211809121069091C7
:101BC000220693C0803309F03FC0F801A180F8E2FB
:101BD000AF1609F4A6C089E2A81619F0ECE2AE121D
:101BE00018C099249A949B0CE1E0F0E0EC0FFD1FE3
:101BF000EB0DF11DB7FCFA9580810E949D0D8823A5
:101C000011F0B92CEECFFCE2AF1609F474C0B92C78
:101C100072C08A2D0E94880D982E8A2D0E94930DE5
:101C200081119394B7FC7DC0E1E0F0E0EC0FFD1F63
:101C3000EB0DF11DB7FCFA958080882D0E94880D70
:101C400089150CF079C06DC08332D1F481E08B0D21
:101C5000E1E0F0E0EC0FFD1FE80FF11D87FDFA95C4
:101C6000C8018E199F098083B394B394E1E0F0E03A
:101C7000EC0FFD1FEB0DF11DB7FCFA95C0823BC0C8
:101C80008133C9F5AA24AA94AB0CE1E0F0E0EC0F93
:101C9000FD1FEB0DF11DB7FCFA9580810E949D0D93
:101CA000882311F0BA2CEECFBA94BA94E1E0F0E0B8
:101CB000EC0FFD1FEA0DF11DA7FCFA958081B7011D
:101CC000680F711D87FD7A958091210690912206FB
:101CD0000E94E211E0912106F0912206818181307B
:101CE00019F4D08282818183CF010E9408129093DF
:101CF000220680932106C8010E9408128C014DCF54
:101D0000B7FC1FC01FEF1B0DE1E0F0E0EC0FFD1F63
:101D1000EB0DF11DB7FCFA9580810E949D0DB12E4F
:101D2000EFCFB394E1E0F0E0EC0FFD1FEB0DF11D00
:101D3000B7FCFA95A082DFCFBA94882D0E949D0D42
:101D400071CF60960FB6F894DEBF0FBECDBFDF91A6
:101D5000CF911F910F91FF90EF90DF90CF90BF90A8
:101D6000AF909F908F900895FF920F931F93CF9302
:101D7000DF93CDB7DEB7C05AD1090FB6F894DEBFF6
:101D80000FBECDBF8C01E0912106F0912206FF2409
:101D9000F394F082AF01481B590B4F5F5F4FBC01BA
:101DA000CE0101960E94321D109322060093210657
:101DB000CE0101960E94B10DE0912106F09122061C
:101DC000F0821092200610921F06C056DF4F0FB609
:101DD000F894DEBF0FBECDBFDF91CF911F910F9161
:101DE000FF900895EF92FF920F931F93CF93DF938D
:101DF000CDB7DEB760970FB6F894DEBF0FBECDBF8C
:101E0000009121061091220619820E94AF11FC0157
:101E1000F080F11006C00E94AF116AE00E94FB1131
:101E200055C0F12C81E3EE24E3948C32B9F18CF4AB
:101E3000893231F18B3209F18832B9F7F394E1E05C
:101E4000F0E0EC0FFD1FEF0DF11DF7FCFA9510828D
:101E500006C08536D1F1863629F0813331F70E94EC
:101E6000EB0C2AC0F394E1E0F0E0EC0FFD1FEF0D66
:101E7000F11DF7FCFA95E082F2CF0E942A0D1CC0FA
:101E8000E1E0F0E0EC0FFD1FEF0DF11DF7FCFA951E
:101E900060818F2D0E945B0DFA940EC0E1E0F0E0AE
:101EA000EC0FFD1FEF0DF11DF7FCFA95808191E01D
:101EB000980F90830E947B0D833709F0B6CFC8013D
:101EC0000E94B40EFF24F39401C0F12C8F2D609674
:101ED0000FB6F894DEBF0FBECDBFDF91CF911F913B
:101EE0000F91FF90EF9008950F931F93CF93DF937F
:101EF00080911A0690911B060E946C03EC01888168
:101F00009981892B59F480911A0690911B060297AA
:101F10002CF081E090E00E946C03EC0100E010E006
:101F2000688179816115710529F180911806909178
:101F3000190608171907F4F4CB01019690931B06B4
:101F400080931A06882777FD8095982F0E944B175B
:101F500080E20E942217CE0102960E9430170E9452
:101F6000DE178881998101960E946C03EC010F5F56
:101F70001F4FD6CFDF91CF911F910F9108950E94EF
:101F800008120E940812FC012081203191F4218165
:101F9000328130931B0620931A060E940812FC011E
:101FA0002081203131F481819281909319068093B0
:101FB00018060C94740F80911606909117060E94D3
:101FC00008120E940812209115062062209315061F
:101FD000FC012081203119F48181928102C081E0CD
:101FE00090E00C942E0C0E942B04882321F00E9478
:101FF0006E040C94530C8FEF9FEF0C942E0C0E94E8
:102000002B0440E050E066E080E00E94BD0180E2E9
:102010000E9422176091F8057091F90563307105EF
:102020003CF06E5F7F4F882777FD8095982F03C027
:1020300060E070E0CB010E944B1780E20E94221703
:1020400040E050E068E080E00E94BD010C94DE17A3
:102050000E944B0440E050E08823D1F067E080E02C
:102060000E94BD0180E20E9422176091F8057091E4
:10207000F9056E5F7F4F882777FD8095982F0E9426
:102080004B1780E20E94221740E050E068E001C058
:1020900069E080E00E94BD010C94DE170E941703E6
:1020A0000C946E0540E050E061E080E00E94BD01CC
:1020B0006091F8057091F905882777FD8095982F34
:1020C0000E944B170E94DE1740E050E062E080E083
:1020D0000E94BD010E948305BC01882777FD809581
:1020E000982F0E944B170E94DE1740E050E063E0FB
:1020F00080E00E94BD01609121017091220188273A
:1021000077FD8095982F0E944B170C94DE178091D5
:102110001606909117060E940D15863B23E0920744
:1021200031F480911606909117060C94BF0F8231FE
:1021300023E0920711F40C94DB0F8C3A21E0920714
:1021400011F40C94F30F853723E0920711F40C94EB
:10215000FF0F8A3923E0920711F40C9428108A3972
:1021600026E0920711F40C944E10833B934011F437
:102170000C94521084E991E00E94F11684E991E0F8
:102180000E94241780E20E9422170E94EC168459B4
:102190009140BC01882777FD8095982F6F5F7F4F16
:1021A0008F4F9F4F0E944B170C94DE17CF93DF93F6
:1021B00080919401882351F1609116067091170661
:1021C00084E991E00E94CC160E94EC16892B21F044
:1021D000DF91CF910C94871080911606909117068D
:1021E000FC012081203121F0DF91CF910C94A60BCE
:1021F000FC01C181D28184E991E00E941A170E94FA
:10220000AE18BE01DF91CF910C948103DF91CF9185
:1022100008950E946E04882381F040E050E06AE057
:1022200080E00E94BD010E94DE1788EE93E00E94CC
:10223000F60A84E08093150608950C944E10EF92F0
:10224000FF920F931F93CF93DF93EC018B017A01E1
:102250000E94DE1740E050E060E080E00E94BD0197
:102260000E94DE17B701CE01845F9D4F0E942603B6
:10227000BE018CE092E00E948F0581E090E0909397
:102280001B0680931A068AE090E0909319068093CB
:10229000180610921506B8016C567E4F70931706FB
:1022A0006093160684E991E0DF91CF911F910F9121
:1022B000FF90EF900C9409118091F40518167CF4AE
:1022C000809115068B7F8093150640E050E06BE00F
:1022D00080E00E94BD010E94DE170C944B040E9416
:1022E000120B882339F0809115068B7F8093150699
:1022F0000C94530C08952091F405233029F4809117
:10230000150683608093150680911506982F9371AA
:10231000903111F40C94770C982F9370923031F027
:10232000933039F0913041F40C94270B0E94310B1B
:1023300013C00E94180C10C085FF04C080E090E01C
:102340000C942E0C82FD0C945C1112163CF40E942D
:10235000300381110E94D6101092F40508958091E7
:102360002306909124060895FC01208124326CF408
:102370002232D4F42031A9F01CF42230D0F01CC059
:10238000203291F02132D9F017C0223391F01CF4A1
:102390002033ACF411C0233391F02054223020F0CC
:1023A0000BC083E090E00895FC01818190E00296EB
:1023B000089581E090E0089580E090E0089582E043
:1023C00090E008950F931F93CF93DF9300D0CDB784
:1023D000DEB78C01CB0169837A830E94B411AC0112
:1023E00069817A81C8010F900F90DF91CF911F9181
:1023F0000F910C94321D60931C0690931E068093DF
:102400001D06E0912106F091220681E08083089567
:10241000CF93DF93EC010E94B4118C0F9D1FDF91CD
:10242000CF910895CF93DF93EC01FC01208122230B
:1024300019F00E940812F9CF8C1B9D0B0196DF91B9
:10244000CF9108950E94AE1890932406809323069E
:1024500080912106909122069093200680931F067A
:102460000E940812909322068093210608952091DD
:10247000230630912406A901480F511D87FD5A9566
:10248000CA010E94AE1890932406809323060895F3
:10249000E0912306F091240680818732B1F4A09167
:1024A0002106B091220680E18C93818190E0129602
:1024B0009C938E931197CF0102969093240680935C
:1024C00023060E94221281E0089580E00895CF92B1
:1024D000DF92EF92FF920F931F93CF93DF931F92A0
:1024E000CDB7DEB7E0912306F091240680810E94EB
:1024F000F01781110BC00F90DF91CF911F910F91B9
:10250000FF90EF90DF90CF900C944812E09121065D
:10251000F091220680E1808312821182E0912306ED
:10252000F09124068081803381F481810E94E1173B
:10253000E0912306F0912406883549F43296F09311
:102540002406E093230620E108C02AE006C081812A
:102550000E94E117823431F028E0022F112707FD95
:1025600010950BC0809123069091240602969093BB
:1025700024068093230622E0F0CFE0912306F09119
:102580002406622F808129830E94F717E091230699
:10259000F09124062981882339F1C0902106D0903A
:1025A0002206D60111968D919C911297089F700179
:1025B000099FF00C189FF00C1124622F8081298351
:1025C0000E941F18E80EF11C87FDFA94F601F282B2
:1025D000E18280912306909124060196909324062F
:1025E000809323062981C9CFCF010E94221281E066
:1025F0000F90DF91CF911F910F91FF90EF90DF909F
:10260000CF9008958091230690912406FC012081AB
:10261000222329F065E00E94FB1180E00895E091FB
:102620002106F0912206108281E00895CF93DF9376
:102630006091230670912406FB0101900020E9F7C8
:102640003197E61BF70BA0912106B091220681E499
:102650008C931196EC931197EF01DD27AE01CD011C
:1026600002960E94321D80912306909124068C0FC1
:102670009D1F0E942212DF91CF910C9402130F93A1
:102680001F93CF93DF930091230610912406F80146
:102690008081823261F5A0912106B091220680E40A
:1026A0008C93E801219621E030E0AE01699161113F
:1026B00014C08FEF820F11968C9381E090E0FA01A5
:1026C0004081423211F080E090E0820F931F800F32
:1026D000911F0E94221281E00BC0623251F3CD01A2
:1026E000820F931FFC0161832F5F3F4FDECF80E09D
:1026F000DF91CF911F910F910895CF93DF93C091F8
:102700002106D091220680E38883E0912306F09190
:10271000240680818C3339F491819E3359F09D33A6
:1027200079F48BE708C08E3359F491819D3341F4DD
:102730008DE701C083E23196F0932406E0932306EF
:102740000E94E117898380912306909124060196C7
:102750000E94221281E0DF91CF910895CF93DF9301
:10276000C0912306D09124060E946712882389F025
:10277000E0911F06F091200621813281215031091C
:102780002033354730F067E0CE010E94FB1180E036
:1027900001C081E0DF91CF9108958091230690914F
:1027A0002406FC0120812B3329F064E00E94FB11F8
:1027B00080E00895E0912106F091220622E3208333
:1027C00001960E94221281E00895E0912306F09183
:1027D000240620E0CF013191332341F0383211F447
:1027E0002F5FF8CF3932B1F72150A1F70895CF9379
:1027F0008091230690912406FC0120812D33F1F075
:10280000283211F062E016C00E94E513FC01C0817D
:10281000C11104C06AE00E94FB1113C001960E941E
:10282000AE18FC0180818D3359F062E0809123065F
:10283000909124060E94FB11C0E003C0C8E001C0D3
:10284000C9E08C2FCF910895CF93DF930E94E513B9
:10285000EC018BE3888320912306309124062F5FBF
:102860003F4F30932406209323060E94F20E8823C4
:1028700029F00E94CD1389E2888381E0DF91CF9116
:1028800008950F931F93CF93DF930E94F713182F90
:10289000811102C080E050C0E0912106F091220633
:1028A00001E20083C0911F06D0912006CE010E9454
:1028B000B411AC01BE01CE0102960E943B1DE09115
:1028C0001F06F091200600831183CF010E94081299
:1028D000FC019093220680932106193021F483E3B2
:1028E000808382818183F0932006E0931F06CF01CD
:1028F0000E9408129093220680932106193081F0DD
:10290000809123069091240601960E94AE18909320
:102910002406809323060E94F20E882359F005C0F6
:102920000E9424148111ECCFB5CF0E94021391E0D4
:10293000811101C090E0892FDF91CF911F910F91FC
:1029400008950E943F13811102C00C94F20E81E0A1
:1029500008950E94F20E882371F0E0912306F09111
:1029600024068081882329F00E94CD13882319F042
:10297000F0CF0C94021380E008950E94A1148823E4
:1029800071F0E0912306F09124068081882329F0DC
:102990000E94CD13882319F0F0CF0C94021380E02D
:1029A00008950E946712811104C00E943F1388237A
:1029B00049F0E0912306F091240680818111F1CF46
:1029C0000C94021368E080912306909124060E94E3
:1029D000FB1180E00895CF93C82F18164CF0CF91CB
:1029E0000C940213C150D9F30E94CD13882321F017
:1029F0000E94F20E8111F6CF80E0CF9108950E94DF
:102A0000671281110C94021368E080912306909163
:102A100024060E94FB1180E00895FC012081207FA4
:102A2000203219F401960C94C11880E090E00895CA
:102A300080912106909122060E940D158A3D23E087
:102A4000920709F44BC0D4F48C3CF1E09F0709F4E1
:102A50003FC04CF4843D910579F18F38E1E09E0749
:102A600009F444C03EC08F3CF1E09F07A1F18D3CCA
:102A700023E09207B1F58CE090E03AC08E35E7E0B4
:102A80009E0709F446C04CF4833E23E09207B9F058
:102A90008C37E6E09E07D1F124C08C3AF7E09F071F
:102AA00089F08E302DE0920781F08338E7E09E07B1
:102AB000C1F48BE090E01CC083E090E019C084E09A
:102AC00090E016C085E090E013C086E090E010C072
:102AD00087E090E00DC08AE090E00AC08DE090E0D1
:102AE00007C00E94F00197FD17C002C080E090E08F
:102AF000E0912106F091220691E290838183CF013B
:102B00000E94081221E0FC012083089581E090E0FA
:102B1000EFCF82E090E0ECCF0895FF920F931F93E8
:102B2000CF93DF93F82EE0912306F0912406808165
:102B30000E94E7178823A1F1E0912106F091220677
:102B400080E28083C0E0D0E0E0912306F09124068B
:102B5000EC0FFD1F80810E949618009121061091B4
:102B60002206882379F0E0912306F0912406EC0FE9
:102B7000FD1F80810E94E117F801EC0FFD1F828389
:102B80002196E2CFF801C183F1100E9418158091BF
:102B90002306909124068C0F9D1F0E94221281E033
:102BA000DF91CF911F910F91FF900895CF9380E017
:102BB0000E948D15C82F811108C063E08091230603
:102BC000909124060E94FB1107C0E0911F06F0912E
:102BD000200682E28083C1E08C2FCF91089580E0AF
:102BE0000E948D15811102C063E02BC0E0911F0689
:102BF000F091200683E3808382818183CF010E944C
:102C0000081290932206809321060E946712E09199
:102C10002306F0912406811103C068E0CF0115C09E
:102C20008081811102C00C9402130E947D138823BD
:102C300039F0E0911F06F09120068181823499F3EA
:102C400069E080912306909124060E94FB1180E0A8
:102C5000089580912106909122060E940812909377
:102C600022068093210680E00E948D158111FBCF02
:102C70000E9467128111F7CF0E943F138111F3CF99
:102C8000E0912106F091220681E080830895CF93A0
:102C900081E00E948D15C82F811108C061E08091EC
:102CA0002306909124060E94FB1161C0E0911F064B
:102CB000F09120068081813241F00E944114C82F9A
:102CC000811154C00E94291652C0E181E11103C054
:102CD000CF910C9416138CEF8E0F823018F4CF9195
:102CE0000C94FF148AEF8E0F823018F4CF910C945D
:102CF0000213E13019F4CF910C94BD14E23051F479
:102D00000E94D615882381F10E940213C1E081112F
:102D10002EC02AC0E33019F4CF910C94BA16EA30D1
:102D200019F4CF910C94EF15EB3011F481E012C03F
:102D3000EC3019F4CF910C94D114ED3019F4CF91FB
:102D40000C94A914E0344CF0FF27E7FDF095ED5307
:102D5000FF4F8081CF910C94EB1466E080912306A5
:102D6000909124060E94FB11C0E001C0C1E08C2FAD
:102D7000CF9108950E94F20E882369F00E94CD132E
:102D8000882341F00E94471691E0811101C090E034
:102D9000892F089580E00895909324068093230658
:102DA00070932206609321061092200610921F064F
:102DB00060E080E090E00E94FB110E94AE13882347
:102DC00051F0E0912306F0912406808181110C944A
:102DD00047160C940213089580911D0690911E06CB
:102DE0000895AC0160911C0681E00C94BD01FC01CA
:102DF000AF01481B590B2191211102C0FC0103C0F6
:102E00002132B4F3FBCF9F01281B390BDF01A40F44
:102E1000B51F6C91662311F06193F5CFFC01E20FB1
:102E2000F31F21503109108237FD03C08291813296
:102E3000C4F30895FC010196208120532A30D0F379
:102E4000CF0108950C943201CF93DF93EC01899167
:102E5000882319F00E943201FACFDF91CF910895B3
:102E60000F931F93CF93DF938C01C0E0D0E09E01BE
:102E70002196F801808190E0281739073CF4F80189
:102E8000EC0FFD1F80810E943201F1CFDF91CF91C5
:102E90001F910F9108954F925F926F927F928F9240
:102EA0009F92AF92BF92CF92DF92EF92FF921F93C9
:102EB000CF93DF9300D01F92CDB7DEB76B017C01BB
:102EC00097FF0CC08DE20E943201F094E094D09400
:102ED000C094C11CD11CE11CF11C05C06115710519
:102EE0008105910569F0812C9AEC992E9AE9A92E19
:102EF0009BE3B92E2AE0422E512C612C712C15C077
:102F000080E30F900F900F90DF91CF911F91FF9072
:102F1000EF90DF90CF90BF90AF909F908F907F9079
:102F20006F905F904F900C943201C814D904EA045A
:102F3000FB044CF4C501B401A30192010E94F91CE9
:102F400049015A01F2CF8AE0482E512C612C712C94
:102F5000181419041A041B04F4F4C701B601A501DE
:102F600094010E94F91C182F80E3820F69837A83F1
:102F70009B830E9432016981C62E7A81D72EE12E71
:102F80009B81F92EC501B401A30192010E94F91C95
:102F900049015A01DDCF0F900F900F90DF91CF9133
:102FA0001F91FF90EF90DF90CF90BF90AF909F90D8
:102FB0008F907F906F905F904F9008958AE00C946F
:102FC00032019FE9980F9A3108F4805208950E94C7
:102FD000E1179FEB980F81E09A3108F080E00895A7
:102FE00090ED980F81E09A3008F080E00895CF933B
:102FF000DF931F92CDB7DEB78033E4F08A333CF421
:10300000282F332727FD30952F5231090CC06983B3
:103010000E94E117698181346CF0282F332727FD46
:10302000309526533109772767FD709581E0621747
:1030300073070CF480E00F90DF91CF9108958033F7
:1030400044F08A3314F4805308950E94E1178753A3
:10305000089580E00895AF92BF92DF92EF92FF92C1
:103060000F931F93CF93DF9300D0CDB7DEB75C01F2
:10307000FC0180818D3231F4FFEFAF1ABF0A2FEFD0
:10308000298302C031E03983F5018081803351F416
:1030900081810E94E117883569F4F2E0AF0EB11C1E
:1030A00090E101C09AE000E010E0E92EFF24E7FC87
:1030B000F0940CC0823429F02FEFA21AB20A98E0E3
:1030C000F2CF32E0A30EB11C92E0EDCFF501D1902A
:1030D0005F01692F8D2D9A830E94F7179A818823AB
:1030E00099F0F801EE9D8001EF9D100DFE9D100DF1
:1030F0001124692F8D2D9A830E941F18080F111D0E
:1031000087FD1A959A81E2CF29812003C001219F72
:10311000900D11240F900F90DF91CF911F910F917F
:10312000FF90EF90DF90BF90AF90089590ED980FD3
:103130009A3040F00E94E71791E0811101C090E0C1
:10314000892F089581E00895893034F08E3014F08D
:10315000803211F481E0089580E008950F931F9369
:10316000CF93DF93EC018E012196F80180810E94BC
:10317000A4188111F8CFC801DF91CF911F910F9151
:103180000895FC01508180E090E040E045178CF408
:103190009C01220F331FDF01A40FB11D47FDBA951B
:1031A00011968C91992787FD9095822793274F5FE1
:1031B000EDCF08951F920F920FB60F9211242F9307
:1031C0003F938F939F93AF93BF93809126069091E7
:1031D0002706A0912806B09129063091250626E001
:1031E000230F2D3720F40296A11DB11D05C029E83B
:1031F000230F0396A11DB11D20932506809326065B
:1032000090932706A0932806B093290680912A065A
:1032100090912B06A0912C06B0912D060196A11D30
:10322000B11D80932A0690932B06A0932C06B09391
:103230002D06BF91AF919F918F913F912F910F904C
:103240000FBE0F901F9018952FB7F8946091260627
:103250007091270680912806909129062FBF089526
:103260003FB7F89480912A0690912B06A0912C06E6
:10327000B0912D0626B5A89B05C02F3F19F00196E9
:10328000A11DB11D3FBF6627782F892F9A2F620F8E
:10329000711D811D911D43E0660F771F881F991FC7
:1032A0004A95D1F708958F929F92AF92BF92CF9295
:1032B000DF92EF92FF926B017C010E9430194B016B
:1032C0005C01C114D104E104F104F1F00E94C21CBC
:1032D0000E943019681979098A099B09683E734070
:1032E0008105910570F321E0C21AD108E108F108C7
:1032F00088EE880E83E0981EA11CB11CC114D10475
:10330000E104F10429F7DDCFFF90EF90DF90CF903B
:10331000BF90AF909F908F900895789484B582600D
:1033200084BD84B5816084BD85B5826085BD85B569
:10333000816085BDEEE6F0E0808181608083E1E818
:10334000F0E0108280818260808380818160808350
:10335000E0E8F0E0808181608083E1EBF0E0808153
:1033600084608083E0EBF0E0808181608083EAE725
:10337000F0E08081846080838081826080838081AE
:103380008E7F80838081806880831092C100089541
:103390008E3008F08E5087702091230190E4299F91
:1033A00090011124822B80937C0080917A008064AC
:1033B00080937A0080917A0086FDFCCF809178001E
:1033C0002091790090E0922B0895833081F028F4C9
:1033D000813099F08230A1F008958730A9F08830CB
:1033E000B9F08430D1F4809180008F7D03C080914A
:1033F00080008F7780938000089584B58F7702C016
:1034000084B58F7D84BD08958091B0008F7703C00F
:103410008091B0008F7D8093B0000895CF93DF93AB
:1034200090E0FC01E654FE4F2491FC01E253FE4F74
:103430008491882349F190E0880F991FFC01EA509C
:10344000FE4FA591B49184519E4FFC01C591D4913A
:103450009FB7611108C0F8948C91209582238C93BA
:10346000888182230AC0623051F4F8948C91322F03
:10347000309583238C938881822B888304C0F894B1
:103480008C91822B8C939FBFDF91CF9108950F93E6
:103490001F93CF93DF931F92CDB7DEB7282F30E075
:1034A000F901EA55FE4F8491F901E654FE4F14915B
:1034B000F901E253FE4F04910023C9F0882321F063
:1034C00069830E94E5196981E02FF0E0EE0FFF1F8C
:1034D000E451FE4FA591B4919FB7F8948C9161117E
:1034E00003C01095812301C0812B8C939FBF0F9047
:1034F000DF91CF911F910F910895CF93DF93282FE4
:1035000030E0F901EA55FE4F8491F901E654FE4F8F
:10351000D491F901E253FE4FC491CC2391F0811173
:103520000E94E519EC2FF0E0EE0FFF1FEE51FE4F69
:10353000A591B4912C912D2381E090E021F480E0BD
:1035400002C080E090E0DF91CF910895FC01818D71
:10355000228D90E0805C9F4F821B91098F73992789
:103560000895FC01918D828D981731F0828DE80FBE
:10357000F11D858D90E008958FEF9FEF0895FC0178
:10358000918D828D981761F0828DDF01A80FB11D9A
:103590005D968C91928D9F5F9F73928F90E00895BE
:1035A0008FEF9FEF08958DE39CE1892B49F080E038
:1035B00090E0892B29F00E943D1C81110C940000A1
:1035C0000895FC01848DDF01A80FB11DA35ABF4FE0
:1035D0002C91848D90E001968F739927848FA68912
:1035E000B7892C93A089B1898C9180648C93938D39
:1035F000848D981306C00288F389E02D80818F7D29
:1036000080830895CF93DF93EC01888D8823C9F0E0
:10361000EA89FB89808185FD05C0A889B9898C91DB
:1036200086FD0FC00FB607FCF5CF808185FFF2CF76
:10363000A889B9898C9185FFEDCFCE010E94E11A4E
:10364000E7CFDF91CF910895CF92DF92FF920F9352
:103650001F93CF93DF931F92CDB7DEB76C0181E04C
:10366000D60158968C9358975B969C915B975C9685
:103670008C915C97981307C05096ED91FC915197EF
:10368000808185FD2EC0F601038D10E00F5F1F4F76
:103690000F731127F02EF601848DF81211C00FB6AA
:1036A00007FCF9CFD6015096ED91FC91519780819E
:1036B00085FFF1CFC60169830E94E11A6981EBCFD2
:1036C000838DE80FF11DE35AFF4F6083D6015B96AF
:1036D0000C935B975296ED91FC9153978081806299
:1036E0000CC0D6015696ED91FC9157976083509689
:1036F000ED91FC91519780818064808381E090E01E
:103700000F90DF91CF911F910F91FF90DF90CF909D
:103710000895BF92CF92DF92EF92FF92CF93DF9303
:10372000EC016A017B01B22E60E874E88EE190E062
:10373000A70196010E94D71C215031094109510966
:103740005695479537952795E889F98982E08083D2
:10375000211580E1380798F0E889F989108260E442
:1037600072E48FE090E0A70196010E94D71C2150DF
:103770003109410951095695479537952795EC85AB
:10378000FD853083EE85FF852083188EEC89FD89C9
:10379000B082EA89FB89808180618083EA89FB8924
:1037A000808188608083EA89FB898081806880834A
:1037B000EA89FB8980818F7D8083DF91CF91FF90A3
:1037C000EF90DF90CF90BF9008951F920F920FB6A9
:1037D0000F9211242F938F939F93EF93FF93E09178
:1037E0003E06F0913F068081E0914406F091450647
:1037F00082FD12C09081809147068F5F8F73209168
:103800004806821751F0E0914706F0E0E25DF94F7B
:10381000958F8093470601C08081FF91EF919F9122
:103820008F912F910F900FBE0F901F9018951F92A0
:103830000F920FB60F9211242F933F934F935F93E4
:103840006F937F938F939F93AF93BF93EF93FF9368
:103850008EE296E00E94E11AFF91EF91BF91AF9145
:103860009F918F917F916F915F914F913F912F9198
:103870000F900FBE0F901F9018958EE296E00E9459
:10388000A61A21E0892B09F420E0822F08951092D6
:1038900031061092300688EE93E0A0E0B0E080930D
:1038A000320690933306A0933406B093350686E82B
:1038B00091E090932F0680932E0685EC90E09093F4
:1038C0003B0680933A0684EC90E090933D0680930B
:1038D0003C0680EC90E090933F0680933E0681EC9E
:1038E00090E0909341068093400682EC90E09093A4
:1038F00043068093420686EC90E0909345068093C1
:1039000044061092470610924806109249061092FB
:103910004A060895CF92DF92EF92FF920F931F9382
:10392000CF93DF937C016A01EB0100E010E00C15FE
:103930001D0571F06991D701ED91FC910190F08125
:10394000E02DC7010995892B19F00F5F1F4FEFCFAD
:10395000C801DF91CF911F910F91FF90EF90DF9001
:10396000CF90089508950E948D190E94B21C0E9464
:10397000EC02C3EDDAE10E9411032097E1F30E940B
:10398000D31AF9CF089597FB072E16F4009407D0A9
:1039900077FD09D00E94181D07FC05D03EF49095D4
:1039A00081959F4F0895709561957F4F0895A1E28D
:1039B0001A2EAA1BBB1BFD010DC0AA1FBB1FEE1FA9
:1039C000FF1FA217B307E407F50720F0A21BB30BF4
:1039D000E40BF50B661F771F881F991F1A9469F770
:1039E00060957095809590959B01AC01BD01CF01CC
:1039F0000895052E97FB1EF400940E94101D57FD9C
:103A000007D00E94D71C07FC03D04EF40C94101D65
:103A100050954095309521953F4F4F4F5F4F0895FA
:103A200090958095709561957F4F8F4F9F4F08952A
:103A3000AA1BBB1B51E107C0AA1FBB1FA617B707D4
:103A400010F0A61BB70B881F991F5A95A9F78095F0
:103A50009095BC01CD010895EE0FFF1F0590F491E4
:103A6000E02D0994FB01DC0102C001900D92415050
:103A70005040D8F708956817790768F4FB01DC0116
:103A8000E40FF51FA40FB51F02C002900E92415023
:103A90005040D8F708950C94321DF999FECF92BD8D
:103AA00081BDF89A992780B50895262FF999FECF00
:103AB0001FBA92BD81BD20BD0FB6F894FA9AF99A4B
:0A3AC0000FBE01960895F894FFCFA1
:103ACA0001010102022205010A5C05300A2D0539AD
:103ADA0005F2040C05ED09790AAB06080B920A1FD8
:103AEA000A01000119FF0AFF1405FF00FF140FFF66
:103AFA000FFF14FFFFFFFFFFFFFFFFFFFFFFFF0A9C
:103B0A000A0AFFFFFFFFFFFFFFFFFFFFFFFFFFFFA5
:103B1A00FFFFFFFFFFFFFFFFFFFFFFFFFFFFFFFFAB
:103B2A00FFFFFFFFFFFFFFFFFFFFFFFFFFFFFFFF9B
:103B3A00FFFFFFFFFFFFFFFFFFFFFFFFFFFF0A057A
:103B4A000A1900000000241B8A1CA61ABF1AB11AFF
:023B5A00021B4C
:00000001FF
