:100000000C94F4000C941C010C941C010C941C0125
:100010000C941C010C941C010C941C010C941C01EC
:100020000C941C010C941C010C941C010C941C01DC
:100030000C941C010C941C010C941C010C941C01CC
:100040000C9424180C941C010C942F1B0C94611B11
:100050000C941C010C941C010C941C010C941C01AC
:100060000C941C010C941C010A436D64206F7220D7
:10007000566172206578702D640A53796D626F6CD9
:1000800020273D27206578702D640A4E616D65201C
:1000900065787065637465640A53796D626F6C206E
:1000A000273B27206578702D640A4578747261209B
:1000B000636861727320617420656E640A556E65B1
:1000C00078706563746564206572726F720A4E752C
:1000D0006D626572206F7574206F662072616E6745
:1000E000650A4E756D62657220657870656374652A
:1000F000640A556E65787065637465642073796D04
:10010000626F6C0A556E6578702D64206C696E653F
:1001100020656E640A004D69736B6174696E6F20AF
:10012000424153494320312E350A636F64653A20BA
:100130000A766172733A200A6E6578743A200A4230
:100140005245414B0A456E64206F6620636F6465BB
:100150000A53617665640A4C6F616465640A62796A
:100160007465730A4C6F6164206661696C65640A2A
:100170004175746F72756E20696E203120736563EE
:100180000A43616E63656C6564210A000000000823
:10019000000201000003040700000000000000004E
:1001A000010204081020408001020408102001020E
:1001B00004081020040404040404040402020202DB
:1001C00002020303030303030000000023002600D0
:1001D000290000000000250028002B00000000007E
:1001E000240027002A00911B11241FBECFEFD8E066
:1001F000DEBFCDBF11E0A0E0B1E0EEE5F9E302C063
:1002000005900D92A239B107D9F726E0A2E9B1E035
:1002100001C01D92A93CB207E1F711E0C8EED1E0A0
:1002200004C02297FE010E94781CC63ED107C9F780
:100230000E94FD1B0C94AD1C0C940000DC01ED91A0
:10024000FC910190F081E02D0994CF93C82F8A3062
:1002500019F46DE070E00AC0883061F468E070E085
:100260008CE296E00E941E0160E270E08CE296E073
:100270000E941E016C2F772767FD70958CE296E037
:10028000CF910C941E010C9425018F3F59F580E00D
:100290000E94121980917C00807F8E6080937C0088
:1002A00061E070E080E090E00E949D1880917A000B
:1002B000806480937A0080917A0086FDFCCF209143
:1002C0007800309179001216130674F4442737FD34
:1002D0004095542F64EB7BE281E190E00E94431C47
:1002E000C90108950C9412198FEF9FEF08950E9491
:1002F000C71921E0019709F020E0822F0895CF93DC
:10030000DF93C82FD62F67FD0CC061E00E945819FB
:1003100061E0D11101C060E08C2FDF91CF910C948E
:1003200091196F3F11F460E001C062E08C2FDF9102
:10033000CF910C945819CF93DF93EC018230910543
:1003400014F40E946E180E946E189E01442737FD17
:100350004095542F0E94211CC901DF91CF9108952F
:100360000F931F93CF93DF93EA01882329F0813005
:1003700029F508E610E002C006E111E080E090E017
:1003800016164CF4F801E80FF91FE4910196EA30D3
:10039000C9F76150F5CF080F191FF80184918A3011
:1003A00051F0209719F08883219602C00E94250100
:1003B0000F5F1F4FF2CF209709F01882DF91CF9186
:1003C0001F910F9108958C3921E0920749F08F36E3
:1003D000934019F480E490E008958FEF9FEF089523
:1003E00081E490E008958F3C21E0920769F0853523
:1003F00023E0920731F08C39914049F08FEF9FEF65
:10040000089580E090E0089582E090E0089581E012
:1004100090E00895FB01882319F0813031F00895B0
:10042000A081B18182818C930895628180810C9436
:100430007F01FB01813051F0823079F0811110C0D1
:100440000190F081E02D808190E0089580810E94EC
:100450007701992787FD9095089580810C94450137
:1004600080E090E008951F93CF93DF93EC0110E0BC
:100470001C161D0634F42197CE010E94971C1827E4
:10048000F7CF812FDF91CF911F910895EF92FF92C7
:100490000F931F93CF93DF93EC01009799F56115AC
:1004A000710561F4C0919201D0919301CE010E9437
:1004B0003302682FCE010E949F1C07C01092930147
:1004C000109292011616170614F491E051C081E0C3
:1004D00090E00E94971CC82FD0E0DC2FCC2780E052
:1004E00090E00E94971C9E01282BC90121503109E0
:1004F0002B3B3240E0F503960E94330291E08823C3
:10050000B9F135C016161706ACF48C01060F171F8B
:10051000699180919201909193019C012F5F3F4FCF
:1005200030939301209392010E949F1CC017D10722
:1005300079F7CBCFEE24FF24E61AF70A8C01C80125
:100540008C1B9D0B8E159F050CF0BFCF80919201E7
:10055000909193019C012F5F3F4F30939301209323
:1005600092010E94971CF80181938F01E8CF90E0DF
:10057000892FDF91CF911F910F91FF90EF900895F8
:1005800026E040E052EC61E070E08CE296E00E94F0
:10059000D31A68E270E08CE291E00C946F108CE268
:1005A00096E00E94F019181619062CF48CE296E0D9
:1005B0000E94091A089580E008950E94CF02809356
:1005C000F4050C94C510E091F805F091F90511823D
:1005D000108282E090E09093F7058093F6051092E8
:1005E000F50508959093F9058093F8050C94E302BE
:1005F0008091F4058D3011F08A3099F484E991E00E
:100600000E944116E091F505FF27E7FDF095EC56B5
:10061000FE4F10821092F5058AE00E94430181E0AE
:100620000895883011F08F3759F48091F505181628
:10063000ACF498E09093F40581508093F5050EC0DA
:10064000803264F0E091F50591E09E0F9093F505FE
:10065000FF27E7FDF095EC56FE4F80838091F4056F
:100660000E94430180E00895E091F805F091F905BA
:10067000208131812115310551F0281739073CF4CB
:10068000228130E02D5F3F4FE20FF31FF1CFCF010A
:1006900008958F929F92AF92BF92CF92DF92EF9286
:1006A000FF920F931F93CF93DF937C016B01CB01DC
:1006B0000E943403EC01888199818C159D0511F508
:1006C0000A8110E00D5F1F4F0C0F1D1F4091F805B0
:1006D0005091F9058091F6059091F705480F591F43
:1006E000401B510BB801CE010E94851C0C1B1D0B39
:1006F0008091F6059091F705801B91099093F7057D
:100700008093F605F70101900020E9F78F01015071
:1007100011090E191F090023B9F15801BB2440919A
:10072000F8055091F9058091F6059091F705480F6D
:10073000591F4C1B5D0B4501F3E08F0E911CBE0150
:10074000CE01880D991D0E94851C8091F60590911F
:10075000F705880D991D9093F7058093F605D982CA
:10076000C8820A83A501B701CE010396DF91CF911C
:100770001F910F91FF90EF90DF90CF90BF90AF90BF
:100780009F908F900C947C1CDF91CF911F910F91C3
:10079000FF90EF90DF90CF90BF90AF909F908F90A1
:1007A000089561E070E080E090E00E9446028823B6
:1007B000B9F062E070E086EF95E00E944602609139
:1007C000F6057091F7058091F8059091F9050E9462
:1007D000460260E070E080E090E00E94460281E026
:1007E00008956FEF7FEF80E090E00E94460288233B
:1007F000D1F06EEF7FEF86EF95E00E9446026091A8
:10080000F6057091F7057195619571098091F8056C
:100810009091F9050E94460260E070E080E090E06F
:100820000E94460281E00895EF92FF920F931F937A
:10083000CF93DF931F92CDB7DEB70091F8051091EB
:10084000F9056FEF7FEF80E090E00E944602882379
:1008500009F466C06EEF7FEF84E991E00E944602E2
:100860006EEF7FEFC8010E944602F80180819181FE
:10087000892B09F442C0609114067091150684E931
:1008800091E00E9416167801F2E0EF0EF11C6FEF76
:100890007FEFCE0101960E944602698170E071955A
:1008A0006195710984E991E00E944602E981F0E0D6
:1008B000EC56FE4F1082609114067091150684E983
:1008C00091E00E94161680911406909115060E94E0
:1008D0005C118983F8018283AC015527609114066D
:1008E00070911506C80103960E947C1C098110E0D6
:1008F0000F5F1F4F0E0D1F1DB3CF60E070E080E053
:1009000090E00E9446028091F8059091F905081B3D
:10091000190B0E5F1F4F1093F7050093F60581E04A
:100920000F90DF91CF911F910F91FF90EF9008955D
:10093000E0911106F091120680910D0690910E063D
:100940009C012F5F3F4F30930E0620930D06880FBA
:10095000991FE80FF91F8081918190932201809364
:10096000210108958FEF9FE7909322018093210149
:10097000089580911F0690912006FC01208122237A
:1009800031F00E9452119093200680931F06089523
:10099000E0911F06F09120068081882319F00E94C3
:1009A000B904F6CF0895E0911F06F09120068181E9
:1009B000928190932201809321010C94B904E091DB
:1009C0001106F091120680910D0690910E06019786
:1009D00090930E0680930D06880F991FE80FF91F5C
:1009E000809121019091220191838083E0911F06E3
:1009F000F0912006818192819093220180932101C0
:100A00000C94B904809113068260809313068FE3DF
:100A10000E946C16E0911F06F091200682810E94D0
:100A20006C168DE30C946C16109208061092070653
:100A30001092060680910B0690910C0690930E067C
:100A400080930D06E0910906F0910A06118210824A
:100A5000089520910806809106069091070634E0DB
:100A60002302800D911D112408957695679570934A
:100A70000C0660930B0690930A06809309069093E8
:100A80001206809311060C941405FC0181819927AC
:100A900087FD90952081223030F022813FE72302AC
:100AA000800D911D1124089560910806772767FD38
:100AB0007095A0910906B0910A0640E050E04617F3
:100AC0005707C4F49B01240F351F35952795F9016D
:100AD000EE0FFF1FEE0FFF1FEA0FFB1F0190F081CB
:100AE000E02DE817F90714F0B901E9CFA9014F5F2C
:100AF0005F4FE5CF842F0895CF93DF93EC010E94E1
:100B00005405E0910906F0910A0694E08902E00D8F
:100B1000F11D1124808191818C179D0719F4828128
:100B2000938102C080E090E0DF91CF910895CF9350
:100B3000DF93C82FDD27C7FDD095DF67CE010E9468
:100B40005405E0910906F0910A0694E08902E00D4F
:100B5000F11D1124808191818C179D0719F48281E8
:100B6000938102C08FEF9FEFDF91CF910895EF92B5
:100B7000FF920F931F93CF93DF938C017B010E9411
:100B800054052091090630910A06E82FFF27E7FD5A
:100B9000F095EF01CC0FDD1FCC0FDD1FB9016C0FFD
:100BA0007D1FDB014D915C914017510731F1409160
:100BB00008068417ACF4552747FD50954E1B5F0B74
:100BC000440F551F440F551F80910606909107064C
:100BD000480F591FCE010496820F931F0E94851C57
:100BE000E0910906F0910A06EC0FFD1F11830083C6
:100BF000809108068F5F80930806E0910906F091C6
:100C00000A06EC0FFD1FF382E282DF91CF911F9164
:100C10000F91FF90EF900895FF920F931F93CF9342
:100C2000DF93E0911F06F09120068181C82FDD2718
:100C3000C7FDD095DF678F71992787FD90959093B9
:100C40000106809300060E94B904E0911F06F0910E
:100C50002006018112810E94B904E0911F06F091E3
:100C600020068081882329F00E94B904FF24F39490
:100C700002C022E0F22ECE010E945405E091090646
:100C8000F0910A0694E08902E00DF11D11248081A3
:100C900091818C179D0701F16091060670910706FE
:100CA00081E0F81203C080E090E802C080E090E0AC
:100CB000682B792BCE010E94B705F09E9001F19E22
:100CC000300D11248091060690910706820F931F24
:100CD0009093070680930606DF91CF911F910F91A5
:100CE000FF900895DC014091020650910306609147
:100CF00004067091050680E090E084179507BCF427
:100D00009A01280F391F35952795F901EE0FFF1F1E
:100D1000EE0FFF1FE60FF71F0190F081E02DEA179D
:100D2000FB0714F0A901E9CFC9010196E6CF0895A8
:100D3000CF93DF93EC010E947206880F991F880FF2
:100D4000991FE0910406F0910506E80FF91F8081D4
:100D500091818C179D0749F48091F8059091F905D0
:100D600022813381820F931F02C080E090E0DF91E7
:100D7000CF910895EF92FF920F931F93CF93DF933C
:100D80008C017B010E9472069C01409102065091E9
:100D90000306EC01CC0FDD1FCC0FDD1F8417950778
:100DA000A4F48091040690910506421B530B440F56
:100DB000551F440F551FBC016C0F7D1F9E012C5FFA
:100DC0003F4F820F931F0E94851CE0910406F09113
:100DD0000506EC0FFD1F11830083F382E2828091F0
:100DE00002069091030601969093030680930206F3
:100DF000DF91CF911F910F91FF90EF900895209177
:100E0000110630911206E0910D06F0910E06AF0129
:100E10004F5F5F4F50930E0640930D06AF01440F96
:100E2000551FD901A40FB51F6D917C9111978F3279
:100E300009F452C01CF5863209F4C5C054F483325B
:100E400009F4B3C0853209F452C0813209F0DEC022
:100E500061C08B3279F18D32B1F18A3209F0D6C09E
:100E6000FA013296E20FF31F20813181269FC001E3
:100E7000279F900D369F900D1124C6C08E3509F422
:100E8000BBC054F48D3309F46CC08E3309F45CC0DC
:100E90008C3309F0BBC04BC08C3709F49DC024F4DF
:100EA0008B3709F46AC008958D3709F472C08E3704
:100EB00039F10895FA013296E20FF31F8081918192
:100EC000860F971FA1C0FA013296E20FF31F8081AF
:100ED0009181861B970B98C0FA013296E20FF31F9F
:100EE000808191810E940D1C718360830895FA01B5
:100EF0003296E20FF31F808191810E940D1C84C005
:100F0000F0930E06E0930D067195619571096D934E
:100F10007C930895F0930E06E0930D0681E090E037
:100F2000672B11F080E090E08D939C930895FA0177
:100F30003296E20FF31F81E090E020813181261785
:100F400037070CF461C03CC0FA013296E20FF31F80
:100F500081E090E020813181621773070CF454C066
:100F60002FC0FA013296E20FF31F81E090E020815A
:100F700031812617370721F547C0FA013296E20F73
:100F8000F31F81E090E02081318162177307E4F55F
:100F900017C0FA013296E20FF31F81E090E0208142
:100FA00031812617370784F50BC0FA013296E20F1C
:100FB000F31F81E090E0208131812617370721F56A
:100FC00080E090E021C0FA013296E20FF31F8081A9
:100FD0009181892B61F008C0FA013296E20FF31F6C
:100FE00080819181892B29F481E0672B19F480E0BD
:100FF00001C081E090E008C0FA013296E20FF31FD1
:101000008081918186279727918380830895CF934C
:10101000DF930E940B188F3F21E09207D9F4809153
:101020000D0690910E06880F991FE0911106F09120
:101030001206E80FF91F808191812091F405332772
:1010400027FD309531832083892B09F469C01092E4
:10105000F40566C0893C910599F480910D06909144
:101060000E06880F991FC0911106D0911206C80F65
:10107000D91F888199810E949B019983888350C0E0
:10108000833D21E09207A1F480910D0690910E0618
:10109000880F991FE0911106F0911206E80FF91FD1
:1010A0008081918197FF3CC09195819591092FC0D6
:1010B0000E94F301EC01E0910D06F0910E06809183
:1010C000110690911206D7FD25C0BF01660F771F4C
:1010D000680F791F8C2F0E941902C050DF4F2881A2
:1010E000332727FD30952150310940910D0650914D
:1010F0000E06240F351F30930E0620930D06220F87
:10110000331FE0911106F0911206E20FF31F918355
:10111000808306C0EE0FFF1FE80FF91F11821082B7
:10112000DF91CF9108950E949705E0910D06F0910F
:101130000E0620911106309112068F3F4FEF940753
:1011400039F4EE0FFF1FE20FF31F11821082089592
:10115000492F441F4427441F62E0641B9F77EE0F12
:10116000FF1FE20FF31F7091080640815181640355
:101170009001659F300D1124820F931F24E07202AD
:10118000800D911D1124A0910906B0910A06A80FA7
:10119000B91F623019F48D919C9102C08C9190E03E
:1011A000918380830895CF93DF93E0911F06F091A0
:1011B00020068081833209F45CC03CF4803149F11F
:1011C0008232E9F181115DC00CC0823351F083336A
:1011D00009F454C0803309F054C081810E94FF0695
:1011E00050C0E0911106F091120680910D06909189
:1011F0000E069C012F5F3F4F30930E0620930D0685
:10120000880F991FE80FF91F80819181DF91CF919D
:101210000895A0911106B091120680910D0690914B
:101220000E06019790930E0680930D062181328160
:10123000880F991FA80FB91F2D933C9322C0C0910E
:101240001106D091120680910D0690910E0601971D
:1012500090930E0680930D06880F991FC80FD91F13
:10126000CF0101960E9445050E947C0599838883E1
:1012700008C0CF0101960E94070803C081810E9427
:1012800093080E94B90491CFCF93DF9380911F06FA
:101290009091200601960E944505EC010E94B90438
:1012A0000E94D308BC01CE01DF91CF910C94B70509
:1012B00080911F0690912006FC012081223399F035
:1012C000203421F0211106C00C94281701960E94A9
:1012D0007A1609C00E94D308BC01882777FD809543
:1012E000982F0E9495160E94B904E2CFE0911F0644
:1012F000F09120068081882349F0823321F00E94FA
:10130000D3080E946C160E94B904F0CF08950E9481
:10131000D308892B59F4E0911F06F09120068081B3
:10132000882319F00E94B904F6CF08950C94B904EB
:101330000F931F93CF93DF9300D0CDB7DEB78B0110
:1013400049835A830E94970549815A818F3F2FEF25
:101350009207F9F0292F221F2227221F62E0621B29
:101360009F777091080660039001619F300D1124F2
:10137000820F931FE4E07E02800D911D1124E09105
:101380000906F0910A06E80FF91F4083623009F45C
:1013900051830F900F90DF91CF911F910F9108957E
:1013A0001F93CF93DF93E0911F06F09120061181E8
:1013B0000E94B9040E94D308EC010E94B9040E9463
:1013C000D308AC01BE01812FDF91CF911F910C9406
:1013D0009809CF93DF93C0910006CF71C0648FEB63
:1013E0008C0F8A3108F056C0E0911F06F09120065C
:1013F0008081803111F0D0E019C04181528160912B
:10140000000670910106D5E075956795DA95E1F7CC
:101410008C2F0E9498092091000630910106205ED1
:101420003F4F30930106209300062BC02D2F33270A
:1014300027FD3095E0911F06F0912006418150E094
:1014400024173507F4F4E20FF31F4281552747FDB7
:1014500050956091000670910106B5E0759567950D
:10146000BA95E1F78C2F0E949809209100063091DF
:101470000106205E3F4F3093010620930006DF5F98
:10148000D5CF0E94B904E0911F06F091200680811B
:101490008111AACFDF91CF910895CF93DF93EC0113
:1014A00081E090E00E949B019093FD058093FC05F4
:1014B000D093FB05C093FA05DF91CF9108950E9468
:1014C000D3080E944D0A8091130681608093130611
:1014D000089581E090E00E949B012091FC053091ED
:1014E000FD05AC01421B530B81E02091FA053091C0
:1014F000FB05241735070CF080E008950E94690A67
:10150000882329F0809113068E7F80931306089517
:10151000CF93DF938091F4058823D1F00E94F802E5
:101520008823B1F084E991E00E947517EC01809165
:101530001F069091200601960E944505BE010E945B
:10154000B7050E94B904809113068D7F809313061E
:10155000DF91CF910895DF92EF92FF920F931F9347
:10156000CF93DF93E82EE82FFF27E7FDF095ED5F9F
:10157000FE4FD0800D2D112707FD109520910D06EF
:1015800030910E06201B310B30930E0620930D0672
:10159000F12CC0910D06D0910E06209111063091CC
:1015A0001206FD1484F4CF0DD11DF7FCDA95CC0F93
:1015B000DD1FC20FD31F0E94D308998388830E9426
:1015C000B904F394E6CFBE01660F771F620F731F55
:1015D0008E2D0E940A0280910D0690910E06800FBA
:1015E000911F90930E0680930D06DF91CF911F916E
:1015F0000F91FF90EF90DF900895CF93DF93EC0170
:101600009093200680931F0688818823D1F00E9442
:10161000B904898180346CF4E82FEE0FFF0BEB5F87
:10162000FE4F0190F081E02D09958981823021F4EF
:1016300008C080540E94AB0AC0911F06D0912006BA
:10164000E3CFDF91CF91089540E050E065E080E086
:101650000E94B0010C9428178091130684FD0E940B
:10166000F103809113068C7C809313060895CF9329
:10167000DF9380912101909122010E943403EC01BB
:1016800088819981009731F40E942C0B0E94240BD1
:1016900081E022C0019690932201809321014A812A
:1016A00050E0BE016D5F7F4F84E991E00E947C1C99
:1016B000EA81F0E0EC56FE4F1082609114067091C2
:1016C000150684E991E00E94161680911406909107
:1016D00015060E94FD0A80E0DF91CF9108950E94D7
:1016E0002C0B1092FF051092FE0580910B06909135
:1016F0000C0690930E0680930D0640E050E064E0E7
:1017000080E00E94B0010C942817009729F0909374
:10171000FF058093FE0508958091FE059091FF05D9
:101720008F3F2FEF920729F001979093FF05809349
:10173000FE050E94370B882321F01092FF051092BE
:10174000FE058091FE059091FF05892B11F40C9404
:101750002C0B089581E090E0909322018093210169
:101760000E9434039093100680930F061092030694
:10177000109202068091F8059091F9052091F605E6
:101780003091F705820F931F90930506809304060E
:101790008091130680618093130608950F931F9321
:1017A000CF93DF93E0910F06F09110068081918135
:1017B000892B31F08091210190912201892B41F4F4
:1017C0000E942C0BDF91CF911F910F910C94240B51
:1017D000C281D0E02396CE0FDF1F8881998190933C
:1017E000220180932101CF0103960E94FD0A0091FE
:1017F000210110912201888199818017910709F1B7
:10180000C8010E9498069093100680930F06892BBA
:10181000E1F4C8010E9434039093100680930F06F0
:101820002091F8053091F905BC01621B730B809182
:10183000210190912201DF91CF911F910F910C9482
:10184000BA06D0931006C0930F06DF91CF911F9177
:101850000F9108950E94F910FC0180818D3211F0E2
:10186000813261F40E94C712E0911D06F0911E06BC
:1018700081818D3229F48EE7818302C080E0089552
:1018800081E00895CF930E94B111882339F00E941E
:10189000F910FC018081883271F526C080E00E9439
:1018A000D7148823A1F00E94F910FC018081E091F7
:1018B0001D06F0911E06883239F483E2808381E0B0
:1018C0000E948111C6E61AC082E2808314C00E9481
:1018D000F910FC01C081C83219F40E94C7120EC071
:1018E0000E942A0C811109C00E94F91069E00E942F
:1018F0004511C5E603C0CBE201C0C1E38C2FCF91F7
:1019000008950E94F910FC018081882329F18B330E
:1019100019F1893219F18C3219F1982F9D7F9D327E
:1019200081F096ED980F923060F08E3551F09BED7E
:10193000980F923030F094EC980F933010F08C3771
:1019400021F40E94C71281E308950E94F91069E012
:101950000E94451185E6089583E7089589E2089578
:101960008CE20895CF93DF931F92CDB7DEB71816A0
:101970003CF00E94F91069E00E94451185E60EC016
:1019800069830E94C712698116163CF4E0911D0616
:10199000F0911E0681E3808361838BE20F90DF91DB
:1019A000CF910895811107C00E94F91069E00E944B
:1019B000451185E608950E94C71281E3089581527A
:1019C0008E3530F4E82FF0E0EC5DFE4F8081089515
:1019D0008FEF0895813231F091E08E3709F090E079
:1019E000892F089581E00895883281F0E0911F06E3
:1019F000F091200690E390838183CF010E945211E1
:101A00009093200680931F0681E0089580E008955A
:101A10008F929F92AF92BF92CF92DF92EF92FF92FE
:101A20000F931F93CF93DF93CDB7DEB760970FB6B9
:101A3000F894DEBF0FBECDBF7C018C01BB24BA94ED
:101A400083E3D82E98E2C92EF8018081813009F411
:101A5000AEC0823211F0803161F4B80180911F066E
:101A6000909120060E942C1180911F0690912006D3
:101A700093C0803309F03FC0F801A180F8E2AF16AF
:101A800009F4A6C089E2A81619F0ECE2AE1218C05B
:101A900099249A949B0CE1E0F0E0EC0FFD1FEB0D14
:101AA000F11DB7FCFA9580810E94F40C882311F097
:101AB000B92CEECFFCE2AF1609F474C0B92C72C099
:101AC0008A2D0E94DF0C982E8A2D0E94EA0C81112B
:101AD0009394B7FC7DC0E1E0F0E0EC0FFD1FEB0D4F
:101AE000F11DB7FCFA958080882D0E94DF0C8915C6
:101AF0000CF079C06DC08332D1F481E08B0DE1E050
:101B0000F0E0EC0FFD1FE80FF11D87FDFA95C8010D
:101B10008E199F098083B394B394E1E0F0E0EC0F59
:101B2000FD1FEB0DF11DB7FCFA95C0823BC0813360
:101B3000C9F5AA24AA94AB0CE1E0F0E0EC0FFD1F7C
:101B4000EB0DF11DB7FCFA9580810E94F40C8823FF
:101B500011F0BA2CEECFBA94BA94E1E0F0E0EC0FB9
:101B6000FD1FEA0DF11DA7FCFA958081B701680FF2
:101B7000711D87FD7A9580911F06909120060E9425
:101B80002C11E0911F06F09120068181813019F41B
:101B9000D08282818183CF010E94521190932006CE
:101BA00080931F06C8010E9452118C014DCFB7FCD3
:101BB0001FC01FEF1B0DE1E0F0E0EC0FFD1FEB0D70
:101BC000F11DB7FCFA9580810E94F40CB12EEFCF85
:101BD000B394E1E0F0E0EC0FFD1FEB0DF11DB7FC5D
:101BE000FA95A082DFCFBA94882D0E94F40C71CFB1
:101BF00060960FB6F894DEBF0FBECDBFDF91CF91D8
:101C00001F910F91FF90EF90DF90CF90BF90AF901A
:101C10009F908F900895FF920F931F93CF93DF9320
:101C2000CDB7DEB7C05AD1090FB6F894DEBF0FBEEC
:101C3000CDBF8C01E0911F06F0912006FF24F394A4
:101C4000F082AF01481B590B4F5F5F4FBC01CE01C3
:101C500001960E947C1C1093200600931F06CE0163
:101C600001960E94080DE0911F06F0912006F08277
:101C700010921E0610921D06C056DF4F0FB6F89444
:101C8000DEBF0FBECDBFDF91CF911F910F91FF90AF
:101C90000895EF92FF920F931F93CF93DF93CDB7E9
:101CA000DEB760970FB6F894DEBF0FBECDBF0091D0
:101CB0001F061091200619820E94F910FC01F08085
:101CC000F11006C00E94F9106AE00E94451155C04B
:101CD000F12C81E3EE24E3948C32B9F18CF4893257
:101CE00031F18B3209F18832B9F7F394E1E0F0E099
:101CF000EC0FFD1FEF0DF11DF7FCFA95108206C0E9
:101D00008536D1F1863629F0813331F70E94420CB5
:101D10002AC0F394E1E0F0E0EC0FFD1FEF0DF11DA0
:101D2000F7FCFA95E082F2CF0E94810C1CC0E1E042
:101D3000F0E0EC0FFD1FEF0DF11DF7FCFA9560814F
:101D40008F2D0E94B20CFA940EC0E1E0F0E0EC0F8F
:101D5000FD1FEF0DF11DF7FCFA95808191E0980FC2
:101D600090830E94D20C833709F0B6CFC8010E943D
:101D70000B0EFF24F39401C0F12C8F2D60960FB64B
:101D8000F894DEBF0FBECDBFDF91CF911F910F91B1
:101D9000FF90EF9008950F931F93CF93DF9380915F
:101DA0001806909119060E943403EC0188819981EC
:101DB000892B59F4809118069091190602972CF0FE
:101DC00081E090E00E943403EC0100E010E06881C3
:101DD00079816115710529F1809116069091170698
:101DE00008171907F4F4CB01019690931906809314
:101DF0001806882777FD8095982F0E94951680E217
:101E00000E946C16CE0102960E947A160E94281734
:101E10008881998101960E943403EC010F5F1F4F66
:101E2000D6CFDF91CF911F910F9108950E9452114B
:101E30000E945211FC012081203191F421813281D4
:101E400030931906209318060E945211FC0120813C
:101E5000203131F481819281909317068093160688
:101E60000C94CB0E80911406909115060E9452118D
:101E70000E94521120911306206220931306FC0148
:101E80002081203119F48181928102C081E090E0AB
:101E90000C94850B0E94D103882321F00E94140426
:101EA0000C94AA0B8FEF9FEF0C94850B0E94D1032B
:101EB00040E050E066E080E00E94B00180E20E94D5
:101EC0006C166091F6057091F7056E5F7F4F88275D
:101ED00077FD8095982F0E94951680E20E946C16DF
:101EE00040E050E068E080E00E94B0010C942817C8
:101EF0000E94F10340E050E08823D1F067E080E0E9
:101F00000E94B00180E20E946C166091F60570910B
:101F1000F7056E5F7F4F882777FD8095982F0E9489
:101F2000951680E20E946C1640E050E068E001C027
:101F300069E080E00E94B0010C9428170E94E3023F
:101F40000C94140540E050E061E080E00E94B00194
:101F50006091F6057091F705882777FD8095982F99
:101F60000E9495160E94281740E050E062E080E051
:101F70000E94B0010E942905BC01882777FD809549
:101F8000982F0E9495160E94281740E050E063E0C9
:101F900080E00E94B00160912101709122018827A8
:101FA00077FD8095982F0E9495160C9428178091A4
:101FB0001406909115060E945714863B23E0920761
:101FC00031F480911406909115060C94160F82310D
:101FD00023E0920711F40C94320F8C3A21E092071F
:101FE00011F40C944A0F853723E0920711F40C94F6
:101FF000560F8A3923E0920711F40C94780F8A392E
:1020000026E0920711F40C949E0F833B934011F449
:102010000C94A20F84E991E00E943B1684E991E0C0
:102020000E946E1680E20E946C160E943616845939
:102030009140BC01882777FD8095982F6F5F7F4F77
:102040008F4F9F4F0E9495160C942817CF93DF93C4
:1020500080919401882351F16091140670911506C6
:1020600084E991E00E9416160E943616892B21F011
:10207000DF91CF910C94D70F8091140690911506A3
:10208000FC012081203121F0DF91CF910C94FD0AD9
:10209000FC01C181D28184E991E00E9464160E9412
:1020A000F817BE01DF91CF910C944903DF91CF91D6
:1020B00008950E941404882381F040E050E06AE013
:1020C00080E00E94B0010E94281788EE93E00E94F1
:1020D0004D0A84E08093130608950C949E0F0F938D
:1020E0001F93CF93DF93EC018B010E94281740E0F0
:1020F00050E060E080E00E94B0010E942817CE010D
:10210000845F9D4F0E94F202BE018CE092E00E942B
:10211000350581E090E0909319068093180683E0DE
:1021200090E0909317068093160610921306B8015C
:102130006C567E4F709315066093140684E991E007
:10214000DF91CF911F910F910C9459108091F4055C
:1021500018167CF4809113068B7F8093130640E061
:1021600050E06BE080E00E94B0010E9428170C94C0
:10217000F1030E94690A882339F0809113068B7F4E
:10218000809313060C94AA0B08952091F405233034
:1021900029F48091130683608093130680911306BF
:1021A000982F9371903111F40C94CE0B982F93705B
:1021B000923031F0933039F0913041F40C947E0A32
:1021C0000E94880A13C00E946F0B10C085FF04C0D4
:1021D00080E090E00C94850B82FD0C94A610121602
:1021E0003CF40E94F80281110E9426101092F4051E
:1021F000089580912106909122060895FC01208186
:1022000024326CF42232D4F42031A9F01CF42230B0
:10221000D0F01CC0203291F02132D9F017C0223307
:1022200091F01CF42033ACF411C0233391F020540E
:10223000223020F00BC083E090E00895FC01818102
:1022400090E00296089581E090E0089580E090E0AB
:10225000089582E090E008950F931F93CF93DF934A
:1022600000D0CDB7DEB78C01CB0169837A830E94A1
:10227000FE10AC0169817A81C8010F900F90DF9147
:10228000CF911F910F910C947C1C60931A06909330
:102290001C0680931B06E0911F06F091200681E04A
:1022A00080830895CF93DF93EC010E94FE108C0F82
:1022B0009D1FDF91CF910895CF93DF93EC01FC0137
:1022C0002081222319F00E945211F9CF8C1B9D0B03
:1022D0000196DF91CF9108950E94F81790932206FE
:1022E0008093210680911F069091200690931E06F0
:1022F00080931D060E9452119093200680931F0622
:1023000008952091210630912206A901480F511D00
:1023100087FD5A95CA010E94F81790932206809370
:1023200021060895E0912106F091220680818732EE
:10233000B1F4A0911F06B091200680E18C938181B9
:1023400090E012969C938E931197CF0102969093F2
:102350002206809321060E946C1181E0089580E09E
:102360000895CF92DF92EF92FF920F931F93CF9336
:10237000DF931F92CDB7DEB7E0912106F0912206E0
:1023800080810E943A1781110BC00F90DF91CF918D
:102390001F910F91FF90EF90DF90CF900C949211CE
:1023A000E0911F06F091200680E180831282118265
:1023B000E0912106F09122068081803381F48181B1
:1023C0000E942B17E0912106F0912206883549F4EE
:1023D0003296F0932206E093210620E108C02AE01D
:1023E00006C081810E942B17823431F028E0022F31
:1023F000112707FD10950BC08091210690912206B0
:102400000296909322068093210622E0F0CFE0917D
:102410002106F0912206622F808129830E944117B4
:10242000E0912106F09122062981882339F1C0909C
:102430001F06D0902006D60111968D919C9112977F
:10244000089F7001099FF00C189FF00C1124622F57
:10245000808129830E946917E80EF11C87FDFA9498
:10246000F601F282E1828091210690912206019686
:1024700090932206809321062981C9CFCF010E9423
:102480006C1181E00F90DF91CF911F910F91FF9020
:10249000EF90DF90CF9008958091210690912206D1
:1024A000FC012081222329F065E00E94451180E093
:1024B0000895E0911F06F0912006108281E00895B2
:1024C000CF93DF936091210670912206FB0101906A
:1024D0000020E9F73197E61BF70BA0911F06B0919A
:1024E000200681E48C931196EC931197EF01DD2780
:1024F000AE01CD0102960E947C1C80912106909134
:1025000022068C0F9D1F0E946C11DF91CF910C94BD
:102510004C120F931F93CF93DF93009121061091DC
:102520002206F8018081823261F5A0911F06B091E8
:10253000200680E48C93E801219621E030E0AE0192
:102540006991611114C08FEF820F11968C9381E015
:1025500090E0FA014081423211F080E090E0820F79
:10256000931F800F911F0E946C1181E00BC062329B
:1025700051F3CD01820F931FFC0161832F5F3F4F09
:10258000DECF80E0DF91CF911F910F910895CF931F
:10259000DF93C0911F06D091200680E38883E091ED
:1025A0002106F091220680818C3339F491819E338B
:1025B00059F09D3379F48BE708C08E3359F491813B
:1025C0009D3341F48DE701C083E23196F0932206FA
:1025D000E09321060E942B17898380912106909118
:1025E000220601960E946C1181E0DF91CF9108953F
:1025F000CF93DF93C0912106D09122060E94B111A2
:10260000882389F0E0911D06F0911E062181328118
:10261000215031092033354730F067E0CE010E9468
:10262000451180E001C081E0DF91CF910895809154
:10263000210690912206FC0120812B3329F064E0D1
:102640000E94451180E00895E0911F06F091200658
:1026500022E3208301960E946C1181E00895E091AD
:102660002106F091220620E0CF013191332341F081
:10267000383211F42F5FF8CF3932B1F72150A1F77A
:102680000895CF938091210690912206FC0120812C
:102690002D33F1F0283211F062E016C00E942F13A2
:1026A000FC01C081C11104C06AE00E94451113C041
:1026B00001960E94F817FC0180818D3359F062E089
:1026C00080912106909122060E944511C0E003C02E
:1026D000C8E001C0C9E08C2FCF910895CF93DF935C
:1026E0000E942F13EC018BE3888320912106309107
:1026F00022062F5F3F4F30932206209321060E942F
:10270000490E882329F00E94171389E2888381E00B
:10271000DF91CF9108950F931F93CF93DF930E9482
:102720004113182F811102C080E050C0E0911F06B4
:10273000F091200601E20083C0911D06D0911E0693
:10274000CE010E94FE10AC01BE01CE0102960E9495
:10275000851CE0911D06F0911E0600831183CF01B8
:102760000E945211FC019093200680931F0619309D
:1027700021F483E3808382818183F0931E06E093BA
:102780001D06CF010E9452119093200680931F06D0
:10279000193081F0809121069091220601960E94C5
:1027A000F81790932206809321060E94490E8823F1
:1027B00059F005C00E946E138111ECCFB5CF0E9475
:1027C0004C1291E0811101C090E0892FDF91CF91EF
:1027D0001F910F9108950E948912811102C00C94DB
:1027E000490E81E008950E94490E882371F0E0911E
:1027F0002106F09122068081882329F00E94171378
:10280000882319F0F0CF0C944C1280E008950E94B8
:10281000EB13882371F0E0912106F091220680816C
:10282000882329F00E941713882319F0F0CF0C9405
:102830004C1280E008950E94B111811104C00E94E1
:102840008912882349F0E0912106F09122068081C7
:102850008111F1CF0C944C1268E080912106909187
:1028600022060E94451180E00895CF93C82F1816C4
:102870004CF0CF910C944C12C150D9F30E94171315
:10288000882321F00E94490E8111F6CF80E0CF917C
:1028900008950E94B11181110C944C1268E080914E
:1028A0002106909122060E94451180E00895FC01C6
:1028B0002081207F203219F401960C940B1880E0BF
:1028C00090E0089580911F06909120060E94571471
:1028D0008A3D23E0920709F44BC0D4F48C3CF1E02C
:1028E0009F0709F43FC04CF4843D910579F18F387E
:1028F000E1E09E0709F444C03EC08F3CF1E09F0731
:10290000A1F18D3C23E09207B1F58CE090E03AC054
:102910008E35E7E09E0709F446C04CF4833E23E081
:102920009207B9F08C37E6E09E07D1F124C08C3ACB
:10293000F7E09F0789F08E302DE0920781F0833811
:10294000E7E09E07C1F48BE090E01CC083E090E0DC
:1029500019C084E090E016C085E090E013C086E0E6
:1029600090E010C087E090E00DC08AE090E00AC0DF
:102970008DE090E007C00E94E30197FD17C002C000
:1029800080E090E0E0911F06F091200691E29083B4
:102990008183CF010E94521121E0FC012083089520
:1029A00081E090E0EFCF82E090E0ECCF0895FF92DD
:1029B0000F931F93CF93DF93F82EE0912106F091B0
:1029C000220680810E9431178823A1F1E0911F0621
:1029D000F091200680E28083C0E0D0E0E091210603
:1029E000F0912206EC0FFD1F80810E94E0170091FC
:1029F0001F0610912006882379F0E0912106F091BE
:102A00002206EC0FFD1F80810E942B17F801EC0FAE
:102A1000FD1F82832196E2CFF801C183F1100E944D
:102A2000621480912106909122068C0F9D1F0E94B6
:102A30006C1181E0DF91CF911F910F91FF9008956C
:102A4000CF9380E00E94D714C82F811108C063E0A3
:102A500080912106909122060E94451107C0E091C5
:102A60001D06F0911E0682E28083C1E08C2FCF917B
:102A7000089580E00E94D714811102C063E02BC04A
:102A8000E0911D06F0911E0683E38083828181839D
:102A9000CF010E9452119093200680931F060E943E
:102AA000B111E0912106F0912206811103C068E086
:102AB000CF0115C08081811102C00C944C120E947C
:102AC000C712882339F0E0911D06F0911E0681811E
:102AD000823499F369E080912106909122060E9448
:102AE000451180E0089580911F06909120060E9474
:102AF00052119093200680931F0680E00E94D71405
:102B00008111FBCF0E94B1118111F7CF0E94891270
:102B10008111F3CFE0911F06F091200681E08083C0
:102B20000895CF9381E00E94D714C82F811108C067
:102B300061E080912106909122060E94451161C0BA
:102B4000E0911D06F0911E068081813241F00E94C5
:102B50008B13C82F811154C00E94731552C0E1819C
:102B6000E11103C0CF910C9460128CEF8E0F823074
:102B700018F4CF910C9449148AEF8E0F823018F418
:102B8000CF910C944C12E13019F4CF910C940714AE
:102B9000E23051F40E942015882381F10E944C12EA
:102BA000C1E081112EC02AC0E33019F4CF910C94FA
:102BB0000416EA3019F4CF910C943915EB3011F466
:102BC00081E012C0EC3019F4CF910C941B14ED305D
:102BD00019F4CF910C94F313E0344CF0FF27E7FD88
:102BE000F095ED53FF4F8081CF910C94351466E042
:102BF00080912106909122060E944511C0E001C0FB
:102C0000C1E08C2FCF9108950E94490E882369F06E
:102C10000E941713882341F00E94911591E08111C1
:102C200001C090E0892F089580E0089590932206D6
:102C3000809321067093200660931F0610921E0653
:102C400010921D0660E080E090E00E9445110E9415
:102C5000F812882351F0E0912106F091220680813C
:102C600081110C9491150C944C12089580911B06BF
:102C700090911C060895AC0160911A0681E00C94B5
:102C8000B001FC01AF01481B590B2191211102C079
:102C9000FC0103C02132B4F3FBCF9F01281B390B89
:102CA000DF01A40FB51F6C91662311F06193F5CF7E
:102CB000FC01E20FF31F21503109108237FD03C0E0
:102CC00082918132C4F30895FC0101962081205342
:102CD0002A30D0F3CF0108950C942501CF93DF93D0
:102CE000EC018991882319F00E942501FACFDF9128
:102CF000CF9108950F931F93CF93DF938C01C0E082
:102D0000D0E09E012196F801808190E028173907D4
:102D10003CF4F801EC0FFD1F80810E942501F1CFEA
:102D2000DF91CF911F910F9108954F925F926F9213
:102D30007F928F929F92AF92BF92CF92DF92EF924B
:102D4000FF921F93CF93DF9300D01F92CDB7DEB7D2
:102D50006B017C0197FF0CC08DE20E942501F0946D
:102D6000E094D094C094C11CD11CE11CF11C05C09E
:102D7000611571058105910569F0812C9AEC992EF8
:102D80009AE9A92E9BE3B92E2AE0422E512C612C00
:102D9000712C15C080E30F900F900F90DF91CF91B1
:102DA0001F91FF90EF90DF90CF90BF90AF909F90DA
:102DB0008F907F906F905F904F900C942501C81476
:102DC000D904EA04FB044CF4C501B401A301920147
:102DD0000E94431C49015A01F2CF8AE0482E512C2F
:102DE000612C712C181419041A041B04F4F4C70183
:102DF000B601A50194010E94431C182F80E3820FA5
:102E000069837A839B830E9425016981C62E7A811A
:102E1000D72EE12E9B81F92EC501B401A3019201A9
:102E20000E94431C49015A01DDCF0F900F900F9073
:102E3000DF91CF911F91FF90EF90DF90CF90BF90E7
:102E4000AF909F908F907F906F905F904F9008957C
:102E50008AE00C9425019FE9980F9A3108F480527A
:102E600008950E942B179FEB980F81E09A3108F08C
:102E700080E0089590ED980F81E09A3008F080E0AE
:102E80000895CF93DF931F92CDB7DEB78033E4F080
:102E90008A333CF4282F332727FD30952F523109F0
:102EA0000CC069830E942B17698181346CF0282F34
:102EB000332727FD309526533109772767FD709515
:102EC00081E0621773070CF480E00F90DF91CF91DF
:102ED0000895803344F08A3314F4805308950E9497
:102EE0002B178753089580E00895AF92BF92DF9229
:102EF000EF92FF920F931F93CF93DF9300D0CDB744
:102F0000DEB75C01FC0180818D3231F4FFEFAF1A36
:102F1000BF0A2FEF298302C031E03983F501808198
:102F2000803351F481810E942B17883569F4F2E0D7
:102F3000AF0EB11C90E101C09AE000E010E0E92E74
:102F4000FF24E7FCF0940CC0823429F02FEFA21A82
:102F5000B20A98E0F2CF32E0A30EB11C92E0EDCFBE
:102F6000F501D1905F01692F8D2D9A830E94411741
:102F70009A81882399F0F801EE9D8001EF9D100D54
:102F8000FE9D100D1124692F8D2D9A830E946917C3
:102F9000080F111D87FD1A959A81E2CF2981200320
:102FA000C001219F900D11240F900F90DF91CF91C0
:102FB0001F910F91FF90EF90DF90BF90AF90089519
:102FC00090ED980F9A3040F00E94311791E08111F6
:102FD00001C090E0892F089581E00895893034F090
:102FE0008E3014F0803211F481E0089580E008956D
:102FF0000F931F93CF93DF93EC018E012196F8017D
:1030000080810E94EE178111F8CFC801DF91CF9126
:103010001F910F910895FC01508180E090E040E005
:1030200045178CF49C01220F331FDF01A40FB11D43
:1030300047FDBA9511968C91992787FD9095822727
:1030400093274F5FEDCF08951F920F920FB60F9207
:1030500011242F933F938F939F93AF93BF938091AE
:10306000240690912506A0912606B091270630915E
:10307000230626E0230F2D3720F40296A11DB11D53
:1030800005C029E8230F0396A11DB11D2093230637
:103090008093240690932506A0932606B0932706D6
:1030A0008091280690912906A0912A06B0912B06BE
:1030B0000196A11DB11D8093280690932906A09327
:1030C0002A06B0932B06BF91AF919F918F913F91AC
:1030D0002F910F900FBE0F901F9018952FB7F89457
:1030E000609124067091250680912606909127060E
:1030F0002FBF08953FB7F894809128069091290634
:10310000A0912A06B0912B0626B5A89B05C02F3F9B
:1031100019F00196A11DB11D3FBF6627782F892F99
:103120009A2F620F711D811D911D43E0660F771F5D
:10313000881F991F4A95D1F708958F929F92AF9259
:10314000BF92CF92DF92EF92FF926B017C010E94BF
:103150007A184B015C01C114D104E104F104F1F0CF
:103160000E940C1C0E947A18681979098A099B0927
:10317000683E73408105910570F321E0C21AD108C1
:10318000E108F10888EE880E83E0981EA11CB11CAE
:10319000C114D104E104F10429F7DDCFFF90EF90D1
:1031A000DF90CF90BF90AF909F908F9008957894CC
:1031B00084B5826084BD84B5816084BD85B582603C
:1031C00085BD85B5816085BDEEE6F0E080818160DA
:1031D0008083E1E8F0E010828081826080838081DA
:1031E00081608083E0E8F0E0808181608083E1EBB2
:1031F000F0E0808184608083E0EBF0E0808181609A
:103200008083EAE7F0E0808184608083808182604F
:10321000808380818E7F808380818068808310920C
:10322000C10008958E3008F08E50877020912301E0
:1032300090E4299F90011124822B80937C0080913F
:103240007A00806480937A0080917A0086FDFCCFBA
:10325000809178002091790090E0922B089583303E
:1032600081F028F4813099F08230A1F00895873000
:10327000A9F08830B9F08430D1F4809180008F7D3E
:1032800003C0809180008F7780938000089584B57B
:103290008F7702C084B58F7D84BD08958091B00082
:1032A0008F7703C08091B0008F7D8093B000089528
:1032B000CF93DF9390E0FC01E056FE4F2491FC0198
:1032C000EC54FE4F8491882349F190E0880F991FB8
:1032D000FC01E452FE4FA591B4918E529E4FFC0129
:1032E000C591D4919FB7611108C0F8948C91209535
:1032F00082238C93888182230AC0623051F4F8942F
:103300008C91322F309583238C938881822B8883F4
:1033100004C0F8948C91822B8C939FBFDF91CF9146
:1033200008950F931F93CF93DF931F92CDB7DEB70E
:10333000282F30E0F901E457FE4F8491F901E0565F
:10334000FE4F1491F901EC54FE4F04910023C9F093
:10335000882321F069830E942F196981E02FF0E012
:10336000EE0FFF1FEE52FE4FA591B4919FB7F89458
:103370008C91611103C01095812301C0812B8C9326
:103380009FBF0F90DF91CF911F910F910895CF9321
:10339000DF93282F30E0F901E457FE4F8491F901C3
:1033A000E056FE4FD491F901EC54FE4FC491CC236A
:1033B00091F081110E942F19EC2FF0E0EE0FFF1F0A
:1033C000E853FE4FA591B4912C912D2381E090E01C
:1033D00021F480E002C080E090E0DF91CF91089579
:1033E000FC01818D228D90E0805C9F4F821B9109B2
:1033F0008F7399270895FC01918D828D981731F074
:10340000828DE80FF11D858D90E008958FEF9FEF7D
:103410000895FC01918D828D981761F0828DDF01F6
:10342000A80FB11D5D968C91928D9F5F9F73928FB7
:1034300090E008958FEF9FEF089587E89BE1892B37
:1034400049F080E090E0892B29F00E94871B8111D0
:103450000C9400000895FC01848DDF01A80FB11DBC
:10346000A35ABF4F2C91848D90E001968F739927BA
:10347000848FA689B7892C93A089B1898C918064A7
:103480008C93938D848D981306C00288F389E02D68
:1034900080818F7D80830895CF93DF93EC01888DA9
:1034A0008823C9F0EA89FB89808185FD05C0A88948
:1034B000B9898C9186FD0FC00FB607FCF5CF8081CE
:1034C00085FFF2CFA889B9898C9185FFEDCFCE0118
:1034D0000E942B1AE7CFDF91CF910895CF92DF9210
:1034E000FF920F931F93CF93DF931F92CDB7DEB759
:1034F0006C0181E0D60158968C9358975B969C910D
:103500005B975C968C915C97981307C05096ED91F1
:10351000FC915197808185FD2EC0F601038D10E04E
:103520000F5F1F4F0F731127F02EF601848DF812D5
:1035300011C00FB607FCF9CFD6015096ED91FC9162
:103540005197808185FFF1CFC60169830E942B1AB4
:103550006981EBCF838DE80FF11DE35AFF4F608344
:10356000D6015B960C935B975296ED91FC91539725
:10357000808180620CC0D6015696ED91FC915797E0
:1035800060835096ED91FC91519780818064808397
:1035900081E090E00F90DF91CF911F910F91FF900C
:1035A000DF90CF900895BF92CF92DF92EF92FF927B
:1035B000CF93DF93EC016A017B01B22E60E874E8DF
:1035C0008EE190E0A70196010E94211C2150310953
:1035D000410951095695479537952795E889F98905
:1035E00082E08083211580E1380798F0E889F98925
:1035F000108260E472E48FE090E0A70196010E94DF
:10360000211C21503109410951095695479537959B
:103610002795EC85FD853083EE85FF852083188E08
:10362000EC89FD89B082EA89FB8980818061808391
:10363000EA89FB89808188608083EA89FB898081AF
:1036400080688083EA89FB8980818F7D8083DF9118
:10365000CF91FF90EF90DF90CF90BF9008951F9291
:103660000F920FB60F9211242F938F939F93EF9386
:10367000FF93E0913C06F0913D068081E091420687
:10368000F091430682FD12C09081809145068F5FC4
:103690008F7320914606821751F0E0914506F0E0C5
:1036A000E45DF94F958F8093450601C08081FF91BD
:1036B000EF919F918F912F910F900FBE0F901F90C0
:1036C00018951F920F920FB60F9211242F933F93CC
:1036D0004F935F936F937F938F939F93AF93BF931A
:1036E000EF93FF938CE296E00E942B1AFF91EF91EB
:1036F000BF91AF919F918F917F916F915F914F910A
:103700003F912F910F900FBE0F901F9018958CE254
:1037100096E00E94F01921E0892B09F420E0822F25
:10372000089510922F0610922E0688EE93E0A0E0E6
:10373000B0E08093300690933106A0933206B093A8
:10374000330686E891E090932D0680932C0685EC55
:1037500090E0909339068093380684EC90E0909343
:103760003B0680933A0680EC90E090933D06809370
:103770003C0681EC90E090933F0680933E0682ECFD
:1037800090E0909341068093400686EC90E0909301
:103790004306809342061092450610924606109208
:1037A0004706109248060895CF92DF92EF92FF925B
:1037B0000F931F93CF93DF937C016A01EB0100E02D
:1037C00010E00C151D0571F06991D701ED91FC9188
:1037D0000190F081E02DC7010995892B19F00F5F49
:1037E0001F4FEFCFC801DF91CF911F910F91FF9035
:1037F000EF90DF90CF90089508950E94D7180E940F
:10380000FC1B0E94C002CDE1DAE10E94DD0220979C
:10381000E1F30E941D1AF9CF089597FB072E16F4C5
:10382000009407D077FD09D00E94621C07FC05D0E8
:103830003EF4909581959F4F0895709561957F4FC7
:103840000895A1E21A2EAA1BBB1BFD010DC0AA1FE1
:10385000BB1FEE1FFF1FA217B307E407F50720F0F9
:10386000A21BB30BE40BF50B661F771F881F991F74
:103870001A9469F760957095809590959B01AC01BD
:10388000BD01CF010895052E97FB1EF400940E9400
:103890005A1C57FD07D00E94211C07FC03D04EF490
:1038A0000C945A1C50954095309521953F4F4F4FA1
:1038B0005F4F089590958095709561957F4F8F4FDC
:1038C0009F4F0895AA1BBB1B51E107C0AA1FBB1F36
:1038D000A617B70710F0A61BB70B881F991F5A959C
:1038E000A9F780959095BC01CD010895EE0FFF1FBB
:1038F0000590F491E02D0994FB01DC0102C00190D8
:103900000D9241505040D8F708956817790768F430
:10391000FB01DC01E40FF51FA40FB51F02C00290EC
:103920000E9241505040D8F708950C947C1CF999A0
:10393000FECF92BD81BDF89A992780B50895262FB4
:10394000F999FECF1FBA92BD81BD20BD0FB6F89484
:0E395000FA9AF99A0FBE01960895F894FFCFE7
:10395E000101010202C804580902058709D304DFD8
:10396E00049804B2044409D0090C065F0AE90976EA
:10397E000901000119FF0AFF1405FF00FF140FFFD4
:10398E000FFF14FFFFFFFFFFFFFFFFFFFFFFFF0A09
:10399E000A0AFFFFFFFFFFFFFFFFFFFFFFFFFFFF13
:1039AE00FFFFFFFFFFFFFFFFFFFFFFFFFFFFFFFF19
:1039BE00FFFFFFFFFFFFFFFFFFFFFFFFFFFFFFFF09
:1039CE00FFFFFFFFFFFFFFFFFFFFFFFFFFFF0A05E8
:1039DE000A19000000006E1AD41BF019091AFB19FF
:0239EE004C1A71
:00000001FF
