:100000000C9491010C94B9010C94B9010C94B901B0
:100010000C94B9010C94B9010C94B9010C94B90178
:100020000C94B9010C94B9010C9443200C94D51E86
:100030000C94B9010C94B9010C94B9010C94B90158
:100040000C94B9010C94B9010C94B9010C94B90148
:100050000C94B9010C94B9010C94B9010C94621977
:100060000C94B9010C94B9010C94B9010C94B90128
:100070000C94B9010C94B9010C94B9010C94B90118
:100080000C94B9010C94B9010C94B9010C94B90108
:100090000C94B9010C94B9010C94B9010C94B901F8
:1000A0000C94B9010C94B9010C94B901B41AB71AA3
:1000B000A61AAA1AB01AD81AD81AD81ABB1ABF1A6E
:1000C000C31AC91ACD1AD81AD31A0A436D64206FFD
:1000D0007220566172206578702D640A53796D62C2
:1000E0006F6C20273D27206578702D640A4E616D66
:1000F000652065787065637465640A53796D626F15
:100100006C20273B27206578702D640A457874722F
:100110006120636861727320617420656E640A55A2
:100120006E6578706563746564206572726F720ABB
:100130004E756D626572206F7574206F66207261F6
:100140006E67650A4E756D626572206578706563CD
:100150007465640A556E65787065637465642073B0
:10016000796D626F6C0A556E6578702D64206C69CC
:100170006E6520656E640A004D69736B6174696E0B
:100180006F20424153494320312E370A636F646523
:100190003A200A766172733A200A6E6578743A20C2
:1001A0000A425245414B0A456E64206F6620636FD8
:1001B00064650A53617665640A4C6F616465640A1C
:1001C00062797465730A4C6F6164206661696C655D
:1001D000640A4175746F72756E20696E20312073E8
:1001E00065630A43616E63656C6564210A4C6F77D1
:1001F0002056415253206D656D0A4C6F7720505246
:100200004F47206D656D0A00070605040100080AC6
:100210000B0C0D090000000200090F00000304018F
:10022000000C0000000000000000000000000000C2
:10023000000000040802011040804010204080406F
:10024000800802040180402010020110801020402C
:10025000402004040404040304050202020204030F
:100260000202020206060606060604040202020450
:1002700004000000002300260029002C002F0000AD
:10028000000000250028002B002E00310000000097
:1002900000240027002A002D003000080B00020275
:1002A0000201000904000001020200000524001000
:1002B00001052401010104240206052406000107AA
:1002C00005810310004009040100020A0000000734
:1002D00005020240000007058302400000120100F1
:1002E00002EF0201404123378000010102030112A5
:1002F0000100020000004041233780000101020399
:100300000141726475696E6F204C4C430041726408
:1003100075696E6F204D6963726F000403090400F4
:10032000771C11241FBECFEFDAE0DEBFCDBF11E096
:10033000A0E0B1E0EEE6F4E402C005900D92A63A2A
:10034000B107D9F728E0A6EAB1E001C01D92AA33AF
:10035000B207E1F713E0C2E2D3E004C02297FE0146
:100360000E94EC21C032D107C9F70E94E6200C940C
:1003700035220C9400008F3F59F580E00E946B1AE3
:1003800080917C00807F8E6080937C0061E070E0D3
:1003900080E090E00E94DB1980917A008064809375
:1003A0007A0080917A0086FDFCCF20917800309110
:1003B00079001216130674F4442737FD4095542F24
:1003C00064EB7BE281E190E00E94CB21C9010895BA
:1003D0000C946B1A8FEF9FEF08950E94481B21E049
:1003E000019709F020E0822F0895CF93DF93C82F63
:1003F000D62F67FD0CC061E00E94D91A61E0D111CF
:1004000001C060E08C2FDF91CF910C94121B6F3FE5
:1004100011F460E001C062E08C2FDF91CF910C9469
:10042000D91ACF93DF93EC018230910514F40E9426
:10043000AC190E94AC199E01442737FD4095542FFA
:100440000E94A921C901DF91CF9108958C3921E043
:10045000920749F08F36934019F480E490E00895B4
:100460008FEF9FEF089581E490E008958F3C21E0A5
:10047000920769F0853523E0920731F08C3991407D
:1004800049F08FEF9FEF089580E090E0089582E0BB
:1004900090E0089581E090E00895FB01882319F031
:1004A000813031F00895A081B18182818C930895CB
:1004B000628180810C94F501FB01813051F0823022
:1004C00079F0811110C00190F081E02D808190E0E1
:1004D000089580810E94ED01992787FD90950895E8
:1004E00080810C94BB0180E090E008951F93CF932E
:1004F000DF93EC0110E01C161D0634F42197CE01A9
:100500000E941F221827F7CF812FDF91CF911F91D3
:100510000895EF92FF920F931F93CF93DF93EC0117
:100520000097C1F56115710589F4C091A601D091BC
:10053000A701C530D10524F0CE010E94760201C08A
:1005400085E5682FCE010E94272207C01092A701DF
:100550001092A6011616170614F491E051C081E01E
:1005600090E00E941F22C82FD0E0DC2FCC2780E033
:1005700090E00E941F229E01282BC90121503109C1
:1005800023383340E0F503960E94760291E08823F9
:10059000B9F135C016161706ACF48C01060F171FFB
:1005A00069918091A6019091A7019C012F5F3F4F17
:1005B0003093A7012093A6010E942722C017D107DC
:1005C00079F7CBCFEE24FF24E61AF70A8C01C80195
:1005D0008C1B9D0B8E159F050CF0BFCF8091A60143
:1005E0009091A7019C012F5F3F4F3093A70120936B
:1005F000A6010E941F22F80181938F01E8CF90E0AD
:10060000892FDF91CF911F910F91FF90EF90089567
:1006100062E080E00E94D91A62E370E080E090E03E
:100620000E94DB1980E00E94481B892B51F460E096
:1006300080E090E00E94272261E080E090E00C944E
:10064000272208950E94080340E052EC61E070E028
:1006500082ED97E00E94621C62E080E00E94D91A5D
:1006600082ED97E00E94681C8823D1F344E853E0B0
:1006700068E270E084EF91E00C94A71182ED97E0BE
:100680000E949B1B181619062CF482ED97E00E941D
:10069000AB1B089580E008950E943E038093980765
:1006A0000C940312CF93C82F8A3011F46DE008C068
:1006B000883051F468E082ED97E00E94711B60E29F
:1006C00082ED97E00E94711B6C2F82ED97E0CF9135
:1006D0000C94711B0C9452030F931F93CF93DF93D1
:1006E000EA01882329F0813029F50AEC10E002C0E4
:1006F00008E711E080E090E016164CF4F801E80FEE
:10070000F91FE4910196EA30C9F76150F5CF080F5F
:10071000191FF80184918A3051F0209719F08883CD
:10072000219602C00E9452030F5F1F4FF2CF209705
:1007300009F01882DF91CF911F910F910895E091F8
:100740009E07F0919F071182108282E090E09093C3
:100750009D0780939C0710929907089570939B07BB
:1007600060939A0790939F0780939E070C949F0332
:10077000809198078D3011F08A3099F488EA91E0E1
:100780000E947F17E0919907FF27E7FDF095E85554
:10079000FE4F1082109299078AE00E946A0381E05E
:1007A0000895883011F08F3759F480919907181601
:1007B000ACF498E0909398078150809399070EC00D
:1007C000803264F0E091990791E09E0F9093990731
:1007D000FF27E7FDF095E855FE4F8083809198074D
:1007E0000E946A0380E00895E0919E07F0919F07C0
:1007F000208131812115310551F0281739073CF44A
:10080000228130E02D5F3F4FE20FF31FF1CFCF0188
:1008100008958F929F92AF92BF92CF92DF92EF9204
:10082000FF920F931F93CF93DF937C016B01CB015A
:100830000E94F403EC01888199818C159D0511F5C6
:100840000A8110E00D5F1F4F0C0F1D1F40919E0786
:1008500050919F0780919C0790919D07480F591FC9
:10086000401B510BB801CE010E940D220C1B1D0B29
:1008700080919C0790919D07801B910990939D0703
:1008800080939C07F70101900020E9F78F01015048
:1008900011090E191F0940919C0750919D0758019D
:1008A000BB24CA018A0D9B1D039620919A073091A3
:1008B0009B0782179307B4F00E94661840E050E04F
:1008C0006DE080E00E946C03DF91CF911F910F914A
:1008D000FF90EF90DF90CF90BF90AF909F908F9060
:1008E0000C946618002391F120919E0730919F0788
:1008F000240F351F2C1B3D0B4501F3E08F0E911C7F
:10090000A901BE01CE01880D991D0E940D22809182
:100910009C0790919D07880D991D90939D0780934A
:100920009C07D982C8820A83A501B701CE0103962C
:10093000DF91CF911F910F91FF90EF90DF90CF90BB
:10094000BF90AF909F908F900C940422DF91CF9135
:100950001F910F91FF90EF90DF90CF90BF90AF90DD
:100960009F908F90089561E070E080E090E00E9499
:1009700089028823B9F062E070E08CE997E00E9478
:10098000890260919C0770919D0780919E079091CC
:100990009F070E94890260E070E080E090E00E9482
:1009A000890281E008956FEF7FEF80E090E00E9480
:1009B00089028823D1F06EEF7FEF8CE997E00E94E7
:1009C000890260919C0770919D07719561957109ED
:1009D00080919E0790919F070E94890260E070E0DD
:1009E00080E090E00E94890281E00895EF92FF92FA
:1009F0000F931F93CF93DF931F92CDB7DEB7009174
:100A00009E0710919F076FEF7FEF80E090E00E94BC
:100A10008902882309F466C06EEF7FEF88EA91E0CF
:100A20000E9489026EEF7FEFC8010E948902F801DF
:100A300080819181892B09F442C06091BA0770913D
:100A4000BB0788EA91E00E9454177801F2E0EF0EAC
:100A5000F11C6FEF7FEFCE0101960E948902698140
:100A600070E071956195710988EA91E00E948902B0
:100A7000E981F0E0E855FE4F10826091BA0770916D
:100A8000BB0788EA91E00E9454178091BA079091C1
:100A9000BB070E949A128983F8018283AC01552713
:100AA0006091BA077091BB07C80103960E940422A7
:100AB000098110E00F5F1F4F0E0D1F1DB3CF60E0C7
:100AC00070E080E090E00E94890280919E07909102
:100AD0009F07081B190B0E5F1F4F10939D07009374
:100AE0009C0781E00F90DF91CF911F910F91FF90B4
:100AF000EF900895E091B707F091B8078091B307A0
:100B00009091B4079C012F5F3F4F3093B40720931F
:100B1000B307880F991FE80FF91F80819181909387
:100B200022018093210108958FEF9FE79093220186
:100B30008093210108958091C5079091C607FC011B
:100B40002081222331F00E9490129093C607809357
:100B5000C5070895E091C507F091C60780818823F5
:100B600019F00E949B05F6CF0895E091C507F0911A
:100B7000C6078181928190932201809321010C9478
:100B80009B05E091B707F091B8078091B30790916A
:100B9000B40701979093B4078093B307880F991F08
:100BA000E80FF91F809121019091220191838083A8
:100BB000E091C507F091C60781819281909322014F
:100BC000809321010C949B058091B90782608093EA
:100BD000B9078FE30E94AA17E091C507F091C607F5
:100BE00082810E94AA178DE30C94AA171092AE0777
:100BF0001092AD071092AC078091B1079091B207A7
:100C00009093B4078093B307E091AF07F091B007DA
:100C10001182108208952091AE078091AC079091C7
:100C2000AD0734E02302800D911D112408957695BF
:100C300067957093B2076093B1079093B007809364
:100C4000AF079093B8078093B7070C94F605FC01A3
:100C50008181992787FD90952081223030F0228173
:100C60003FE72302800D911D112408956091AE0786
:100C7000772767FD7095A091AF07B091B00740E06E
:100C800050E046175707C4F49B01240F351F3595D4
:100C90002795F901EE0FFF1FEE0FFF1FEA0FFB1F55
:100CA0000190F081E02DE817F90714F0B901E9CFC0
:100CB000A9014F5F5F4FE5CF842F0895CF93DF9356
:100CC000EC010E943606E091AF07F091B00794E086
:100CD0008902E00DF11D1124808191818C179D07FF
:100CE00019F48281938102C080E090E0DF91CF917E
:100CF0000895CF93DF93C82FDD27C7FDD095DF6719
:100D0000CE010E943606E091AF07F091B00794E063
:100D10008902E00DF11D1124808191818C179D07BE
:100D200019F48281938102C08FEF9FEFDF91CF9101
:100D300008954091AE072091AC073091AD0754E083
:100D40004502200D311D1124280F391F4091AF0796
:100D50005091B007420F531F2091B1073091B20755
:100D600025503048220F331F8091B7079091B80764
:100D7000820F931F4817590760F00E94661840E0E1
:100D800050E06CE080E00E946C030E94661881E0F5
:100D9000089580E00895BF92CF92DF92EF92FF9284
:100DA0000F931F93CF93DF938C017B010E94360634
:100DB000B82EC82EDD24C7FCD094E601CC0FDD1F71
:100DC000CC0FDD1FE091AF07F091B007EC0FFD1FD6
:100DD0002081318120173107A1F184E090E00E9449
:100DE0009906811136C04091AE07B416ECF480919B
:100DF000AF079091B007552747FD50954C195D09F5
:100E0000440F551F440F551F2091AC073091AD077B
:100E1000420F531FBC016C0F7D1F9E012C5F3F4F83
:100E2000820F931F0E940D22E091AF07F091B0074F
:100E3000EC0FFD1F118300838091AE078F5F8093BD
:100E4000AE07E091AF07F091B007EC0FFD1FF38202
:100E5000E282DF91CF911F910F91FF90EF90DF9091
:100E6000CF90BF900895DF92EF92FF920F931F9360
:100E7000CF93DF93E091C507F091C6078181C82F1A
:100E8000DD27C7FDD095DF678F71992787FD909586
:100E90009093A7078093A6070E949B05E091C50742
:100EA000F091C607E180F2800E949B05E091C507A2
:100EB000F091C6078081882329F00E949B05DD24DC
:100EC000D39402C042E0D42ECE010E943606E091B7
:100ED000AF07F091B00794E08902E00DF11D1124F5
:100EE000808191818C179D0731F1DE9C8001DF9C10
:100EF000100D1124C80104960E94990681111BC08F
:100F00006091AC077091AD0781E0D81203C080E01A
:100F100090E802C080E090E0682B792BCE010E941F
:100F2000CB068091AC079091AD07800F911F9093F5
:100F3000AD078093AC07DF91CF911F910F91FF9088
:100F4000EF90DF900895DC014091A8075091A90728
:100F50006091AA077091AB0780E090E08417950735
:100F6000BCF49A01280F391F35952795F901EE0F2A
:100F7000FF1FEE0FFF1FE60FF71F0190F081E02D1E
:100F8000EA17FB0714F0A901E9CFC9010196E6CFE2
:100F90000895CF93DF93EC010E94A307880F991F58
:100FA000880F991FE091AA07F091AB07E80FF91F8E
:100FB000808191818C179D0749F480919E079091C3
:100FC0009F0722813381820F931F02C080E090E04F
:100FD000DF91CF910895EF92FF920F931F93CF93DC
:100FE000DF938C017B010E94A3079C014091A8071D
:100FF0005091A907EC01CC0FDD1FCC0FDD1F84172A
:101000009507A4F48091AA079091AB07421B530B5C
:10101000440F551F440F551FBC016C0F7D1F9E01CF
:101020002C5F3F4F820F931F0E940D22E091AA0771
:10103000F091AB07EC0FFD1F11830083F382E28276
:101040008091A8079091A90701969093A907809392
:10105000A807DF91CF911F910F91FF90EF90089516
:101060002091B7073091B807E091B307F091B4072A
:10107000AF014F5F5F4F5093B4074093B307AF0189
:10108000440F551FD901A40FB51F6D917C91119785
:101090008F3209F452C01CF5863209F4C5C054F4ED
:1010A000833209F4B3C0853209F452C0813209F0A9
:1010B000DEC061C08B3279F18D32B1F18A3209F034
:1010C000D6C0FA013296E20FF31F20813181269FAC
:1010D000C001279F900D369F900D1124C6C08E35FC
:1010E00009F4BBC054F48D3309F46CC08E3309F499
:1010F0005CC08C3309F0BBC04BC08C3709F49DC079
:1011000024F48B3709F46AC008958D3709F472C04E
:101110008E3739F10895FA013296E20FF31F80817C
:101120009181860F971FA1C0FA013296E20FF31F3B
:1011300080819181861B970B98C0FA013296E20F4D
:10114000F31F808191810E949521718360830895AE
:10115000FA013296E20FF31F808191810E9495215E
:1011600084C0F093B407E093B3077195619571095A
:101170006D937C930895F093B407E093B30781E0F7
:1011800090E0672B11F080E090E08D939C930895A0
:10119000FA013296E20FF31F81E090E02081318165
:1011A000261737070CF461C03CC0FA013296E20FF3
:1011B000F31F81E090E020813181621773070CF406
:1011C00054C02FC0FA013296E20FF31F81E090E085
:1011D000208131812617370721F547C0FA01329661
:1011E000E20FF31F81E090E02081318162177307E5
:1011F000E4F517C0FA013296E20FF31F81E090E0A8
:10120000208131812617370784F50BC0FA01329609
:10121000E20FF31F81E090E020813181261737072C
:1012200021F580E090E021C0FA013296E20FF31F31
:1012300080819181892B61F008C0FA013296E20F1A
:10124000F31F80819181892B29F481E0672B19F4A8
:1012500080E001C081E090E008C0FA013296E20F20
:10126000F31F80819181862797279183808308953A
:10127000CF93DF930E9449198F3F21E09207D9F461
:101280008091B3079091B407880F991FE091B70739
:10129000F091B807E80FF91F80819181209198079C
:1012A000332727FD309531832083892B09F469C0CA
:1012B0001092980766C0893C910599F48091B30714
:1012C0009091B407880F991FC091B707D091B807C4
:1012D000C80FD91F888199810E9411029983888340
:1012E00050C0833D21E09207A1F48091B307909113
:1012F000B407880F991FE091B707F091B807E80F7E
:10130000F91F8081918197FF3CC09195819591094A
:101310002FC00E943602EC01E091B307F091B407B0
:101320008091B7079091B807D7FD25C0BF01660F20
:10133000771F680F791F8C2F0E945C02C050DF4F0F
:101340002881332727FD3095215031094091B3077B
:101350005091B407240F351F3093B4072093B3077F
:10136000220F331FE091B707F091B807E20FF31F88
:101370009183808306C0EE0FFF1FE80FF91F1182D3
:101380001082DF91CF9108950E947906E091B30712
:10139000F091B4072091B7073091B8078F3F4FEF16
:1013A000940739F4EE0FFF1FE20FF31F1182108232
:1013B0000895492F441F4427441F62E0641B9F7710
:1013C000EE0FFF1FE20FF31F7091AE0740815181B6
:1013D00064039001659F300D1124820F931F24E058
:1013E0007202800D911D1124A091AF07B091B0073A
:1013F000A80FB91F623019F48D919C9102C08C9195
:1014000090E0918380830895CF93DF93E091C507A7
:10141000F091C6078081833209F45CC03CF48031CE
:1014200049F18232E9F181115DC00CC0823351F083
:10143000833309F454C0803309F054C081810E9481
:10144000300850C0E091B707F091B8078091B3071A
:101450009091B4079C012F5F3F4F3093B4072093C6
:10146000B307880F991FE80FF91F80819181DF91E1
:10147000CF910895A091B707B091B8078091B307B5
:101480009091B40701979093B4078093B30721819B
:101490003281880F991FA80FB91F2D933C9322C04A
:1014A000C091B707D091B8078091B3079091B40766
:1014B00001979093B4078093B307880F991FC80FC3
:1014C000D91FCF0101960E9427060E945E069983CC
:1014D000888308C0CF0101960E94380903C081812A
:1014E0000E94C4090E949B0591CFCF93DF93809106
:1014F000C5079091C60701960E942706EC010E943D
:101500009B050E94040ABC01CE01DF91CF910C948F
:10151000CB068091C5079091C607FC01208122333C
:1015200099F0203421F0211106C00C946618019620
:101530000E94B81709C00E94040ABC01882777FDE1
:101540008095982F0E94D3170E949B05E2CFE091CF
:10155000C507F091C6078081882349F0823321F0C6
:101560000E94040A0E94AA170E949B05F0CF0895CA
:101570000E94040A892B59F4E091C507F091C6072F
:101580008081882319F00E949B05F6CF08950C9462
:101590009B050F931F93CF93DF9300D0CDB7DEB79A
:1015A0008B0149835A830E94790649815A818F3F72
:1015B0002FEF9207F9F0292F221F2227221F62E026
:1015C000621B9F777091AE0760039001619F300DA1
:1015D0001124820F931FE4E07E02800D911D1124DF
:1015E000E091AF07F091B007E80FF91F4083623038
:1015F00009F451830F900F90DF91CF911F910F91BC
:1016000008951F93CF93DF93E091C507F091C6072C
:1016100011810E949B050E94040AEC010E949B0517
:101620000E94040AAC01BE01812FDF91CF911F916E
:101630000C94C90ACF93DF93C091A607CF71C06401
:101640008FEB8C0F8A3108F056C0E091C507F091FE
:10165000C6078081803111F0D0E019C041815281EC
:101660006091A6077091A707D5E075956795DA9503
:10167000E1F78C2F0E94C90A2091A6073091A70795
:10168000205E3F4F3093A7072093A6072BC02D2F36
:10169000332727FD3095E091C507F091C6074181BA
:1016A00050E024173507F4F4E20FF31F4281552769
:1016B00047FD50956091A6077091A707B5E0759515
:1016C0006795BA95E1F78C2F0E94C90A2091A60769
:1016D0003091A707205E3F4F3093A7072093A607BE
:1016E000DF5FD5CF0E949B05E091C507F091C6074B
:1016F00080818111AACFDF91CF910895CF93DF939D
:10170000EC0181E090E00E9411029093A307809386
:10171000A207D093A107C093A007DF91CF910895AE
:101720000E94040A0E947E0B8091B9078160809319
:10173000B907089581E090E00E9411022091A2076C
:101740003091A307AC01421B530B81E02091A0070D
:101750003091A107241735070CF080E008950E940E
:101760009A0B882329F08091B9078E7F8093B9075F
:101770000895CF93DF93809198078823D1F00E943A
:10178000B8038823B1F088EA91E00E94B318EC0115
:101790008091C5079091C60701960E942706BE0159
:1017A0000E94CB060E949B058091B9078D7F809394
:1017B000B907DF91CF910895DF92EF92FF920F93D7
:1017C0001F93CF93DF93E82EE82FFF27E7FDF095D7
:1017D000ED5FFE4FD0800D2D112707FD1095209154
:1017E000B3073091B407201B310B3093B40720931B
:1017F000B307F12CC091B307D091B4072091B7077C
:101800003091B807FD1484F4CF0DD11DF7FCDA95A3
:10181000CC0FDD1FC20FD31F0E94040A9983888357
:101820000E949B05F394E6CFBE01660F771F620FFF
:10183000731F8E2D0E944D028091B3079091B407C3
:10184000800F911F9093B4078093B307DF91CF91DE
:101850001F910F91FF90EF90DF900895CF93DF934A
:10186000EC019093C6078093C50788818823D1F047
:101870000E949B05898180346CF4E82FEE0FFF0BEA
:10188000EB5FFE4F0190F081E02D09958981823058
:1018900021F408C080540E94DC0BC091C507D09190
:1018A000C607E3CFDF91CF91089540E050E065E0B7
:1018B00080E00E946C030C9466188091B90784FD47
:1018C0000E94D3048091B9078C7C8093B907089556
:1018D000CF93DF9380912101909122010E94F40324
:1018E000EC0188819981009731F40E945D0C0E947F
:1018F000550C81E022C00196909322018093210132
:101900004A8150E0BE016D5F7F4F88EA91E00E94FE
:101910000422EA81F0E0E855FE4F10826091BA0798
:101920007091BB0788EA91E00E9454178091BA0732
:101930009091BB070E942E0C80E0DF91CF9108951B
:101940000E945D0C1092A5071092A4078091B10728
:101950009091B2079093B4078093B30740E050E0B2
:1019600064E080E00E946C030C946618009729F0F4
:101970009093A5078093A40708958091A407909160
:10198000A5078F3F2FEF920729F001979093A507A6
:101990008093A4070E94680C882321F01092A50769
:1019A0001092A4078091A4079091A507892B11F4A8
:1019B0000C945D0C089581E090E090932201809357
:1019C00021010E94F4039093B6078093B50710920B
:1019D000A9071092A80780919E0790919F072091D8
:1019E0009C0730919D07820F931F9093AB078093C4
:1019F000AA078091B90780618093B90708950F9372
:101A00001F93CF93DF93E091B507F091B6078081E4
:101A10009181892B31F08091210190912201892BB4
:101A200041F40E945D0CDF91CF911F910F910C94B6
:101A3000550CC281D0E02396CE0FDF1F888199819B
:101A40009093220180932101CF0103960E942E0CD6
:101A500000912101109122018881998180179107BD
:101A600009F1C8010E94C9079093B6078093B50792
:101A7000892BE1F4C8010E94F4039093B607809388
:101A8000B50720919E0730919F07BC01621B730B25
:101A90008091210190912201DF91CF911F910F91AF
:101AA0000C94EB07D093B607C093B507DF91CF91A5
:101AB0001F910F9108950E943712FC0180818D3291
:101AC00011F0813261F40E940514E091C307F09196
:101AD000C40781818D3229F48EE7818302C080E0C2
:101AE000089581E00895CF930E94EF12882339F082
:101AF0000E943712FC018081883271F526C080E097
:101B00000E9415168823A1F00E943712FC018081E3
:101B1000E091C307F091C407883239F483E28083EF
:101B200081E00E94BF12C6E61AC082E2808314C020
:101B30000E943712FC01C081C83219F40E940514BA
:101B40000EC00E945B0D811109C00E94371269E02E
:101B50000E948312C5E603C0CBE201C0C1E38C2F13
:101B6000CF9108950E943712FC018081882329F1CA
:101B70008B3319F1893219F18C3219F1982F9D7F2D
:101B80009D3281F096ED980F923060F08E3551F0D5
:101B90009BED980F923030F094EC980F933010F04A
:101BA0008C3721F40E94051481E308950E943712B6
:101BB00069E00E94831285E6089583E7089589E22B
:101BC00008958CE20895CF93DF931F92CDB7DEB7CF
:101BD00018163CF00E94371269E00E94831285E6D5
:101BE0000EC069830E940514698116163CF4E091C9
:101BF000C307F091C40781E3808361838BE20F9078
:101C0000DF91CF910895811107C00E94371269E0DA
:101C10000E94831285E608950E94051481E30895C9
:101C200081528E3530F4E82FF0E0E95CFE4F808180
:101C300008958FEF0895813231F091E08E3709F0E9
:101C400090E0892F089581E00895883281F0E09135
:101C5000C507F091C60790E390838183CF010E946E
:101C600090129093C6078093C50781E0089580E0A5
:101C700008958F929F92AF92BF92CF92DF92EF9290
:101C8000FF920F931F93CF93DF93CDB7DEB760978B
:101C90000FB6F894DEBF0FBECDBF7C018C01BB2414
:101CA000BA9483E3D82E98E2C92EF801808181305E
:101CB00009F4AEC0823211F0803161F4B801809134
:101CC000C5079091C6070E946A128091C50790913E
:101CD000C60793C0803309F03FC0F801A180F8E245
:101CE000AF1609F4A6C089E2A81619F0ECE2AE120C
:101CF00018C099249A949B0CE1E0F0E0EC0FFD1FD2
:101D0000EB0DF11DB7FCFA9580810E94250E88230A
:101D100011F0B92CEECFFCE2AF1609F474C0B92C67
:101D200072C08A2D0E94100E982E8A2D0E941B0EC2
:101D300081119394B7FC7DC0E1E0F0E0EC0FFD1F52
:101D4000EB0DF11DB7FCFA958080882D0E94100ED6
:101D500089150CF079C06DC08332D1F481E08B0D10
:101D6000E1E0F0E0EC0FFD1FE80FF11D87FDFA95B3
:101D7000C8018E199F098083B394B394E1E0F0E029
:101D8000EC0FFD1FEB0DF11DB7FCFA95C0823BC0B7
:101D90008133C9F5AA24AA94AB0CE1E0F0E0EC0F82
:101DA000FD1FEB0DF11DB7FCFA9580810E94250EF9
:101DB000882311F0BA2CEECFBA94BA94E1E0F0E0A7
:101DC000EC0FFD1FEA0DF11DA7FCFA958081B7010C
:101DD000680F711D87FD7A958091C5079091C607A0
:101DE0000E946A12E091C507F091C6078181813097
:101DF00019F4D08282818183CF010E949012909346
:101E0000C6078093C507C8010E9490128C014DCF70
:101E1000B7FC1FC01FEF1B0DE1E0F0E0EC0FFD1F52
:101E2000EB0DF11DB7FCFA9580810E94250EB12EB5
:101E3000EFCFB394E1E0F0E0EC0FFD1FEB0DF11DEF
:101E4000B7FCFA95A082DFCFBA94882D0E94250EA8
:101E500071CF60960FB6F894DEBF0FBECDBFDF9195
:101E6000CF911F910F91FF90EF90DF90CF90BF9097
:101E7000AF909F908F900895FF920F931F93CF93F1
:101E8000DF93CDB7DEB7C05AD1090FB6F894DEBFE5
:101E90000FBECDBF8C01E091C507F091C607FF24AE
:101EA000F394F082AF01481B590B4F5F5F4FBC01A9
:101EB000CE0101960E9404221093C6070093C50725
:101EC000CE0101960E94390EE091C507F091C60738
:101ED000F0821092C4071092C307C056DF4F0FB6AE
:101EE000F894DEBF0FBECDBFDF91CF911F910F9150
:101EF000FF900895EF92FF920F931F93CF93DF937C
:101F0000CDB7DEB760970FB6F894DEBF0FBECDBF7A
:101F10000091C5071091C60719820E943712FC0173
:101F2000F080F11006C00E9437126AE00E9483120E
:101F300055C0F12C81E3EE24E3948C32B9F18CF49A
:101F4000893231F18B3209F18832B9F7F394E1E04B
:101F5000F0E0EC0FFD1FEF0DF11DF7FCFA9510827C
:101F600006C08536D1F1863629F0813331F70E94DB
:101F7000730D2AC0F394E1E0F0E0EC0FFD1FEF0DCC
:101F8000F11DF7FCFA95E082F2CF0E94B20D1CC061
:101F9000E1E0F0E0EC0FFD1FEF0DF11DF7FCFA950D
:101FA00060818F2D0E94E30DFA940EC0E1E0F0E015
:101FB000EC0FFD1FEF0DF11DF7FCFA95808191E00C
:101FC000980F90830E94030E833709F0B6CFC801A3
:101FD0000E943C0FFF24F39401C0F12C8F2D6096DA
:101FE0000FB6F894DEBF0FBECDBFDF91CF911F912A
:101FF0000F91FF90EF9008950F931F93CF93DF936E
:102000008091BE079091BF070E94F403EC01888184
:102010009981892B59F48091BE079091BF0702974F
:102020002CF081E090E00E94F403EC0100E010E06D
:10203000688179816115710529F18091BC079091C2
:10204000BD0708171907F4F4CB0101969093BF0759
:102050008093BE07882777FD8095982F0E94D3171D
:1020600080E20E94AA17CE0102960E94B8170E9431
:1020700066188881998101960E94F403EC010F5F34
:102080001F4FD6CFDF91CF911F910F9108950E94DE
:1020900090120E949012FC012081203191F4218144
:1020A00032813093BF072093BE070E949012FC013B
:1020B0002081203131F4818192819093BD078093FA
:1020C000BC070C94FC0F8091BA079091BB070E944B
:1020D00090120E9490122091B90720622093B907B4
:1020E000FC012081203119F48181928102C081E0BC
:1020F00090E00C94B60C0E94B304882321F00E9457
:10210000F6040C94DB0C8FEF9FEF0C94B60C0E943E
:10211000B30440E050E066E080E00E946C0380E29F
:102120000E94AA1760919C0770919D07633071050A
:102130003CF06E5F7F4F882777FD8095982F03C016
:1021400060E070E0CB010E94D31780E20E94AA17E2
:1021500040E050E068E080E00E946C030C94661858
:102160000E94D30440E050E08823D1F067E080E093
:102170000E946C0380E20E94AA1760919C077091F4
:102180009D076E5F7F4F882777FD8095982F0E946F
:10219000D31780E20E94AA1740E050E068E001C037
:1021A00069E080E00E946C030C9466180E949F0313
:1021B0000C94F60540E050E061E080E00E946C0382
:1021C00060919C0770919D07882777FD8095982FD7
:1021D0000E94D3170E94661840E050E062E080E061
:1021E0000E946C030E940B06BC01882777FD809536
:1021F000982F0E94D3170E94661840E050E063E0D9
:1022000080E00E946C036091210170912201882777
:1022100077FD8095982F0E94D3170C9466188091B3
:10222000BA079091BB070E949515863B23E0920761
:1022300031F48091BA079091BB070C94471082311A
:1022400023E0920711F40C9463108C3A21E092077A
:1022500011F40C947B10853723E0920711F40C9451
:1022600087108A3923E0920711F40C94B0108A3950
:1022700026E0920711F40C94D610833B934011F49E
:102280000C94DA1088EA91E00E94791788EA91E0CC
:102290000E94AC1780E20E94AA170E947417885A05
:1022A0009140BC01882777FD8095982F6F5F7F4F05
:1022B0008F4F9F4F0E94D3170C946618CF93DF93D4
:1022C0008091A801882351F16091BA077091BB07F2
:1022D00088EA91E00E9454170E947417892B21F01C
:1022E000DF91CF910C940F118091BA079091BB07A9
:1022F000FC012081203121F0DF91CF910C942E0C34
:10230000FC01C181D28188EA91E00E94A2170E945B
:102310003619BE01DF91CF910C940904DF91CF9162
:1023200008950E94F604882381F040E050E06AE0BE
:1023300080E00E946C030E94661888EE93E00E9481
:102340007E0B84E08093B90708950C94D610EF9229
:10235000FF920F931F93CF93DF93EC018B017A01D0
:102360000E94661840E050E060E080E00E946C034C
:102370000E946618B701CE01805E9D4F0E94AE0399
:10238000BE0180E292E00E94170681E090E0909307
:10239000BF078093BE078AE090E09093BD078093CB
:1023A000BC071092B907B80168557E4F7093BB0700
:1023B0006093BA0788EA91E0DF91CF911F910F9166
:1023C000FF90EF900C9491118091980718167CF46F
:1023D0008091B9078B7F8093B90740E050E06BE0B4
:1023E00080E00E946C030E9466180C94D3040E9443
:1023F0009A0B882339F08091B9078B7F8093B907B6
:102400000C94DB0C089520919807233029F48091D7
:10241000B90783608093B9078091B907982F9371AA
:10242000903111F40C94FF0C982F9370923031F08E
:10243000933039F0913041F40C94AF0B0E94B90BFA
:1024400013C00E94A00C10C085FF04C080E090E083
:102450000C94B60C82FD0C94E41112163CF40E940C
:10246000B80381110E945E1110929807089580911F
:10247000C7079091C8070895FC01208124326CF4AD
:102480002232D4F42031A9F01CF42230D0F01CC048
:10249000203291F02132D9F017C0223391F01CF490
:1024A0002033ACF411C0233391F02054223020F0BB
:1024B0000BC083E090E00895FC01818190E00296DA
:1024C000089581E090E0089580E090E0089582E032
:1024D00090E008950F931F93CF93DF9300D0CDB773
:1024E000DEB78C01CB0169837A830E943C12AC0178
:1024F00069817A81C8010F900F90DF91CF911F9170
:102500000F910C9404226093C0079093C2078093AC
:10251000C107E091C507F091C60781E08083089567
:10252000CF93DF93EC010E943C128C0F9D1FDF9133
:10253000CF910895CF93DF93EC01FC0120812223FA
:1025400019F00E949012F9CF8C1B9D0B0196DF9120
:10255000CF9108950E9436199093C8078093C707BA
:102560008091C5079091C6079093C4078093C307D5
:102570000E9490129093C6078093C50708952091FA
:10258000C7073091C807A901480F511D87FD5A950B
:10259000CA010E9436199093C8078093C70708950F
:1025A000E091C707F091C80780818732B1F4A0910C
:1025B000C507B091C60780E18C93818190E01296A7
:1025C0009C938E931197CF0102969093C8078093A6
:1025D000C7070E94AA1281E0089580E00895CF9273
:1025E000DF92EF92FF920F931F93CF93DF931F928F
:1025F000CDB7DEB7E091C707F091C80780810E9490
:10260000781881110BC00F90DF91CF911F910F911E
:10261000FF90EF90DF90CF900C94D012E091C5071F
:10262000F091C60780E1808312821182E091C70792
:10263000F091C8078081803381F481810E946918FC
:10264000E091C707F091C807883549F43296F093B6
:10265000C807E093C70720E108C02AE006C08181CF
:102660000E946918823431F028E0022F112707FDFB
:1026700010950BC08091C7079091C8070296909360
:10268000C8078093C70722E0F0CFE091C707F09119
:10269000C807622F808129830E947F18E091C707B5
:1026A000F091C8072981882339F1C090C507D090DF
:1026B000C607D60111968D919C911297089F7001C3
:1026C000099FF00C189FF00C1124622F8081298340
:1026D0000E94A718E80EF11C87FDFA94F601F28219
:1026E000E1828091C7079091C80701969093C8072F
:1026F0008093C7072981C9CFCF010E94AA1281E028
:102700000F90DF91CF911F910F91FF90EF90DF908D
:10271000CF9008958091C7079091C807FC01208150
:10272000222329F065E00E94831280E00895E09161
:10273000C507F091C607108281E00895CF93DF931B
:102740006091C7077091C807FB0101900020E9F76D
:102750003197E61BF70BA091C507B091C60781E43E
:102760008C931196EC931197EF01DD27AE01CD010B
:1027700002960E9404228091C7079091C8078C0F8F
:102780009D1F0E94AA12DF91CF910C948A130F9380
:102790001F93CF93DF930091C7071091C807F801EB
:1027A0008081823261F5A091C507B091C60780E4AF
:1027B0008C93E801219621E030E0AE01699161112E
:1027C00014C08FEF820F11968C9381E090E0FA0194
:1027D0004081423211F080E090E0820F931F800F21
:1027E000911F0E94AA1281E00BC0623251F3CD0109
:1027F000820F931FFC0161832F5F3F4FDECF80E08C
:10280000DF91CF911F910F910895CF93DF93C091E6
:10281000C507D091C60780E38883E091C707F09190
:10282000C80780818C3339F491819E3359F09D33F0
:1028300079F48BE708C08E3359F491819D3341F4CC
:102840008DE701C083E23196F093C807E093C70794
:102850000E94691889838091C7079091C8070196E3
:102860000E94AA1281E0DF91CF910895CF93DF9368
:10287000C091C707D091C8070E94EF12882389F042
:10288000E091C307F091C4072181328121503109C1
:102890002033354730F067E0CE010E94831280E09C
:1028A00001C081E0DF91CF9108958091C707909199
:1028B000C807FC0120812B3329F064E00E948312B9
:1028C00080E00895E091C507F091C60722E32083D8
:1028D00001960E94AA1281E00895E091C707F09145
:1028E000C80720E0CF013191332341F0383211F491
:1028F0002F5FF8CF3932B1F72150A1F70895CF9368
:102900008091C7079091C807FC0120812D33F1F019
:10291000283211F062E016C00E946D14FC01C081E3
:10292000C11104C06AE00E94831213C001960E9484
:102930003619FC0180818D3359F062E08091C70720
:102940009091C8070E948312C0E003C0C8E001C094
:10295000C9E08C2FCF910895CF93DF930E946D141F
:10296000EC018BE388832091C7073091C8072F5F64
:102970003F4F3093C8072093C7070E947A0F8823E0
:1029800029F00E94551489E2888381E0DF91CF917C
:1029900008950F931F93CF93DF930E947F14182FF6
:1029A000811102C080E050C0E091C507F091C607D8
:1029B00001E20083C091C307D091C407CE010E94F9
:1029C0003C12AC01BE01CE0102960E940D22E091A4
:1029D000C307F091C40700831183CF010E949012B6
:1029E000FC019093C6078093C507193021F483E357
:1029F000808382818183F093C407E093C307CF0172
:102A00000E9490129093C6078093C507193081F0F9
:102A10008091C7079091C80701960E94361990933C
:102A2000C8078093C7070E947A0F882359F005C012
:102A30000E94AC148111ECCFB5CF0E948A1391E0B3
:102A4000811101C090E0892FDF91CF911F910F91EB
:102A500008950E94C713811102C00C947A0F81E07F
:102A600008950E947A0F882371F0E091C707F091D2
:102A7000C8078081882329F00E945514882319F003
:102A8000F0CF0C948A1380E008950E9429158823C2
:102A900071F0E091C707F091C8078081882329F081
:102AA0000E945514882319F0F0CF0C948A1380E00B
:102AB00008950E94EF12811104C00E94C713882359
:102AC00049F0E091C707F091C80780818111F1CFEB
:102AD0000C948A1368E08091C7079091C8070E9400
:102AE000831280E00895CF93C82F18164CF0CF9131
:102AF0000C948A13C150D9F30E945514882321F0F5
:102B00000E947A0F8111F6CF80E0CF9108950E9444
:102B1000EF1281110C948A1368E08091C70790919D
:102B2000C8070E94831280E00895FC012081207F65
:102B3000203219F401960C94491980E090E0089530
:102B40008091C5079091C6070E9495158A3D23E0A4
:102B5000920709F44BC0D4F48C3CF1E09F0709F4D0
:102B60003FC04CF4843D910579F18F38E1E09E0738
:102B700009F444C03EC08F3CF1E09F07A1F18D3CB9
:102B800023E09207B1F58CE090E03AC08E35E7E0A3
:102B90009E0709F446C04CF4833E23E09207B9F047
:102BA0008C37E6E09E07D1F124C08C3AF7E09F070E
:102BB00089F08E302DE0920781F08338E7E09E07A0
:102BC000C1F48BE090E01CC083E090E019C084E089
:102BD00090E016C085E090E013C086E090E010C061
:102BE00087E090E00DC08AE090E00AC08DE090E0C0
:102BF00007C00E94260297FD17C002C080E090E047
:102C0000E091C507F091C60791E290838183CF01DF
:102C10000E94901221E0FC012083089581E090E061
:102C2000EFCF82E090E0ECCF0895FF920F931F93D7
:102C3000CF93DF93F82EE091C707F091C80780810A
:102C40000E946F188823A1F1E091C507F091C60793
:102C500080E28083C0E0D0E0E091C707F091C80730
:102C6000EC0FFD1F80810E941E190091C507109175
:102C7000C607882379F0E091C707F091C807EC0FE9
:102C8000FD1F80810E946918F801EC0FFD1F8283EF
:102C90002196E2CFF801C183F1100E94A015809126
:102CA000C7079091C8078C0F9D1F0E94AA1281E050
:102CB000DF91CF911F910F91FF900895CF9380E006
:102CC0000E941516C82F811108C063E08091C707C4
:102CD0009091C8070E94831207C0E091C307F0914A
:102CE000C40782E28083C1E08C2FCF91089580E0F9
:102CF0000E941516811102C063E02BC0E091C3074A
:102D0000F091C40783E3808382818183CF010E9495
:102D100090129093C6078093C5070E94EF12E0912E
:102D2000C707F091C807811103C068E0CF0115C043
:102D30008081811102C00C948A130E94051488239B
:102D400039F0E091C307F091C4078181823499F38F
:102D500069E08091C7079091C8070E94831280E0C4
:102D600008958091C5079091C6070E949012909394
:102D7000C6078093C50780E00E9415168111FBCF1E
:102D80000E94EF128111F7CF0E94C7138111F3CF78
:102D9000E091C507F091C60781E080830895CF9345
:102DA00081E00E941516C82F811108C061E0809152
:102DB000C7079091C8070E94831261C0E091C307C2
:102DC000F091C4078081813241F00E94C914C82F5C
:102DD000811154C00E94B11652C0E181E11103C0BB
:102DE000CF910C949E138CEF8E0F823018F4CF91FC
:102DF0000C9487158AEF8E0F823018F4CF910C94C3
:102E00008A13E13019F4CF910C944515E23051F456
:102E10000E945E16882381F10E948A13C1E081110D
:102E20002EC02AC0E33019F4CF910C944217EA3037
:102E300019F4CF910C947716EB3011F481E012C0A5
:102E4000EC3019F4CF910C945915ED3019F4CF9161
:102E50000C943115E0344CF0FF27E7FDF095ED536D
:102E6000FF4F8081CF910C94731566E08091C70766
:102E70009091C8070E948312C0E001C0C1E08C2F6E
:102E8000CF9108950E947A0F882369F00E9455140B
:102E9000882341F00E94CF1691E0811101C090E09B
:102EA000892F089580E008959093C8078093C707FD
:102EB0007093C6076093C5071092C4071092C307AA
:102EC00060E080E090E00E9483120E943614882324
:102ED00051F0E091C707F091C807808181110C94EF
:102EE000CF160C948A1308958091C1079091C20760
:102EF0000895AC016091C00781E00C946C03FC0163
:102F0000AF01481B590B2191211102C0FC0103C0E4
:102F10002132B4F3FBCF9F01281B390BDF01A40F33
:102F2000B51F6C91662311F06193F5CFFC01E20FA0
:102F3000F31F21503109108237FD03C08291813285
:102F4000C4F30895FC010196208120532A30D0F368
:102F5000CF0108950C945203CF93DF93EC01899134
:102F6000882319F00E945203FACFDF91CF91089580
:102F70000F931F93CF93DF938C01C0E0D0E09E01AD
:102F80002196F801808190E0281739073CF4F80178
:102F9000EC0FFD1F80810E945203F1CFDF91CF9192
:102FA0001F910F9108954F925F926F927F928F922F
:102FB0009F92AF92BF92CF92DF92EF92FF921F93B8
:102FC000CF93DF9300D01F92CDB7DEB76B017C01AA
:102FD00097FF0CC08DE20E945203F094E094D094CD
:102FE000C094C11CD11CE11CF11C05C06115710508
:102FF0008105910569F0812C9AEC992E9AE9A92E08
:103000009BE3B92E2AE0422E512C612C712C15C065
:1030100080E30F900F900F90DF91CF911F91FF9061
:10302000EF90DF90CF90BF90AF909F908F907F9068
:103030006F905F904F900C945203C814D904EA0427
:10304000FB044CF4C501B401A30192010E94CB2101
:1030500049015A01F2CF8AE0482E512C612C712C83
:10306000181419041A041B04F4F4C701B601A501CD
:1030700094010E94CB21182F80E3820F69837A8309
:103080009B830E9452036981C62E7A81D72EE12E3E
:103090009B81F92EC501B401A30192010E94CB21AD
:1030A00049015A01DDCF0F900F900F90DF91CF9122
:1030B0001F91FF90EF90DF90CF90BF90AF909F90C7
:1030C0008F907F906F905F904F9008958AE00C945E
:1030D00052039FE9980F9A3108F4805208950E9494
:1030E00069189FEB980F81E09A3108F080E008950D
:1030F00090ED980F81E09A3008F080E00895CF932A
:10310000DF931F92CDB7DEB78033E4F08A333CF40F
:10311000282F332727FD30952F5231090CC06983A2
:103120000E946918698181346CF0282F332727FDAC
:10313000309526533109772767FD709581E0621736
:1031400073070CF480E00F90DF91CF9108958033E6
:1031500044F08A3314F4805308950E946918875309
:10316000089580E00895AF92BF92DF92EF92FF92B0
:103170000F931F93CF93DF9300D0CDB7DEB75C01E1
:10318000FC0180818D3231F4FFEFAF1ABF0A2FEFBF
:10319000298302C031E03983F5018081803351F405
:1031A00081810E946918883569F4F2E0AF0EB11C84
:1031B00090E101C09AE000E010E0E92EFF24E7FC76
:1031C000F0940CC0823429F02FEFA21AB20A98E0D2
:1031D000F2CF32E0A30EB11C92E0EDCFF501D19019
:1031E0005F01692F8D2D9A830E947F189A81882311
:1031F00099F0F801EE9D8001EF9D100DFE9D100DE0
:103200001124692F8D2D9A830E94A718080F111D74
:1032100087FD1A959A81E2CF29812003C001219F61
:10322000900D11240F900F90DF91CF911F910F916E
:10323000FF90EF90DF90BF90AF90089590ED980FC2
:103240009A3040F00E946F1891E0811101C090E027
:10325000892F089581E00895893034F08E3014F07C
:10326000803211F481E0089580E008950F931F9358
:10327000CF93DF93EC018E012196F80180810E94AB
:103280002C198111F8CFC801DF91CF911F910F91B7
:103290000895FC01508180E090E040E045178CF4F7
:1032A0009C01220F331FDF01A40FB11D47FDBA950A
:1032B00011968C91992787FD9095822793274F5FD0
:1032C000EDCF08951F920F920FB60F9211242F93F6
:1032D0003F938F939F93AF93BF938091CA07909131
:1032E000CB07A091CC07B091CD073091C90723E05F
:1032F000230F2D3720F40196A11DB11D05C026E82E
:10330000230F0296A11DB11D2093C9078093CA0700
:103310009093CB07A093CC07B093CD078091CE07B5
:103320009091CF07A091D007B091D1070196A11D30
:10333000B11D8093CE079093CF07A093D007B09391
:10334000D107BF91AF919F918F913F912F910F9096
:103350000FBE0F901F9018952FB7F8946091CA0771
:103360007091CB078091CC079091CD072FBF089526
:103370003FB7F8948091CE079091CF07A091D007E6
:10338000B091D10726B5A89B05C02F3F19F0019633
:10339000A11DB11D3FBF6627782F892F9A2F620F7D
:1033A000711D811D911D42E0660F771F881F991FB7
:1033B0004A95D1F708958F929F92AF92BF92CF9284
:1033C000DF92EF92FF926B017C010E94B8194B01D2
:1033D0005C01C114D104E104F104F1F00E94F92070
:1033E0000E94B819681979098A099B09683E7340D7
:1033F0008105910570F321E0C21AD108E108F108B6
:1034000088EE880E83E0981EA11CB11CC114D10463
:10341000E104F10429F7DDCFFF90EF90DF90CF902A
:10342000BF90AF909F908F900895789484B58260FC
:1034300084BD84B5816084BD85B5826085BD85B558
:10344000816085BDEEE6F0E0808181608083E1E807
:10345000F0E010828081826080838081816080833F
:10346000E0E8F0E0808181608083E1E9F0E0808144
:1034700082608083808181608083E0E9F0E08081E8
:1034800081608083E1ECF0E08081846080838081D2
:1034900082608083808181608083E3ECF0E08081C2
:1034A00081608083E0ECF0E0808182608083E2ECE8
:1034B000F0E0808181608083EAE7F0E080818460D1
:1034C000808380818260808380818160808380812D
:1034D000806880830895823108F08251E82FF0E0FF
:1034E000E85FFD4FE49180917B00E3FB222720F908
:1034F00030E095E0220F331F9A95E1F78F7D822B04
:1035000080937B00E7708091230120E4829FC001BB
:103510001124E82BE0937C0080917A0080648093F2
:103520007A0080917A0086FDFCCF8091780020910E
:10353000790090E0922B089590E0FC013197EF30F4
:10354000F105B0F5EA5AFF4F0C94EA218091800012
:103550008F7703C0809180008F7D809380000895D5
:1035600080918000877FF9CF84B58F7702C084B5C2
:103570008F7D84BD0895809190008F7707C08091E2
:1035800090008F7D03C080919000877F8093900092
:1035900008958091C0008F7703C08091C0008F7D17
:1035A0008093C00008958091C200877F8093C200FD
:1035B0000895CF93DF9390E0FC01ED5CFD4F2491E3
:1035C000FC01EE5AFD4F8491882349F190E0880F69
:1035D000991FFC01E357FD4FA591B49181589D4F70
:1035E000FC01C591D4919FB7611108C0F8948C91EA
:1035F000209582238C93888182230AC0623051F403
:10360000F8948C91322F309583238C938881822B70
:10361000888304C0F8948C91822B8C939FBFDF9198
:10362000CF9108950F931F93CF93DF931F92CDB740
:10363000DEB7282F30E0F901EC5EFD4F8491F901EF
:10364000ED5CFD4F1491F901EE5AFD4F04910023FA
:10365000C9F0882321F069830E949C1A6981E02FB8
:10366000F0E0EE0FFF1FE158FD4FA591B4919FB719
:10367000F8948C91611103C01095812301C0812BB6
:103680008C939FBF0F90DF91CF911F910F91089561
:10369000CF93DF93282F30E0F901EC5EFD4F84914A
:1036A000F901ED5CFD4FD491F901EE5AFD4FC49143
:1036B000CC2391F081110E949C1AEC2FF0E0EE0FC8
:1036C000FF1FEF58FD4FA591B4912C912D2381E060
:1036D00090E021F480E002C080E090E0DF91CF91A3
:1036E0000895CF93DF931F92CDB7DEB76983DC01D6
:1036F000ED91FC910280F381E02D41E050E0BE01AC
:103700006F5F7F4F09950F90DF91CF910895CF9311
:10371000DF93EC018C859D8597FF05C082E00E94B8
:10372000A51D9D878C878C859D85DF91CF91089500
:1037300083E00C943920FC018485958597FD06C0B3
:1037400082E00E944D1D90E00196089582E00E9463
:103750004D1D90E00895FC018485958597FD05C079
:103760002FEF3FEF35872487089582E00C94A51D45
:10377000CF93DF93EC0180912F01882331F083E018
:103780000E94D61D1816190634F081E090E09B8344
:103790008A8380E090E0DF91CF910895FC01208141
:1037A0002E5F208342E450E06BE972E080E80C94E5
:1037B000711EFC0121818081813A59F4213209F086
:1037C0004BC047E050E068E271E080E00E94711E6B
:1037D0005EC0813209F040C0233289F4838190E0D9
:1037E000982F88273281832BA0E0B0E080932401BA
:1037F00090932501A0932601B09327010FC020329A
:1038000039F467E070E088E291E00E94A21E09C0EE
:10381000223221F4828180932F0103C02D7F203238
:10382000B1F580912208811103C0E0E0F8E002C008
:10383000EEEFFAE08091280190912901A0912A01F0
:10384000B0912B01803B9440A105B10511F5809109
:103850002F0180FF03C01DC080E00895EE3F2AE0E5
:10386000F20731F0808191819093FF0A8093FE0AE4
:1038700087E797E7918380832BE088E190E00FB69C
:10388000F894A895809360000FBE2093600081E0BB
:10389000089588E10FB6F89480936000109260005C
:1038A0000FBEA895EE3F8AE0F80739F08091FE0A36
:1038B0009091FF0A91838083EACF1092FF0A1092C1
:1038C000FE0AE5CF2FEF3FEFFC01358724870895EF
:1038D000CF93C0912F016AE070E080E090E00E94F9
:1038E000DB1981E0C11101C080E0CF9108951092F1
:1038F000D5071092D40788EE93E0A0E0B0E0809363
:10390000D6079093D707A093D807B093D90789E932
:1039100091E09093D3078093D2078FEF9FEF90931E
:10392000DF078093DE070895615030F02091F100A9
:10393000FC0120830196F8CF289A84E680932C0816
:10394000089540912708509128082091250830912A
:10395000260842175307B4F49091E8009570E1F3FC
:103960009091E80092FD19C08093F10080912708A2
:103970009091280801968F739927892B19F48EEF5F
:103980008093E800809127089091280801969093F1
:1039900028088093270881E0089580E00895CF9259
:1039A000DF92EF92FF920F931F93CF93DF931F92BB
:1039B000CDB7DEB7082F162FF42E862F880F8E5F17
:1039C00099830E94A11C83E00E94A11CE02EC02EBE
:1039D0009981D92E8C2D8E19811798F4F601F7FE56
:1039E00002C0849101C080810E94A11C082F80E048
:1039F0000E94A11C8023FFEFCF1ADF0A8111EACFBA
:103A000001C081E00F90DF91CF911F910F91FF9046
:103A1000EF90DF90CF9008958091D70081608093E0
:103A2000D70080EA8093D80089B5806189BD89B5C7
:103A3000826089BD09B400FEFDCF61E070E080E0E6
:103A400090E00E94DB198091D8008F7C8061809388
:103A5000D8008091E000807F8093E0000895CF93AC
:103A6000DF931F92CDB7DEB71982CE0101960E9477
:103A7000CE1B0E948121BE016F5F7F4F0E94FA2002
:103A800089810F90DF91CF9108952FB7FC0120839A
:103A9000F89467706093E9000895CF93DF931F92C5
:103AA000CDB7DEB7682FCE0101960E94451D8091EB
:103AB000F20099819FBF0F90DF91CF910895FF92FF
:103AC0000F931F93CF93DF9300D0CDB7DEB7F62EC1
:103AD0008A0190912B08992311F057FF03C08FEFB3
:103AE0009FEF2BC0682FCE0101967A830E94451D5F
:103AF0008091F20090E0A8017A81801791070CF480
:103B0000AC01EF2DF72FF40E84E6FE1639F0289A5B
:103B100080932C089091F1009193F7CF41155105B6
:103B200021F08091F200882321F089818FBFCA01A2
:103B300004C08BE68093E800F8CF0F900F90DF91E0
:103B4000CF911F910F91FF900895CF93DF931F9214
:103B5000CDB7DEB741E050E0BE016F5F7F4F0E94FE
:103B60005F1D019719F4898190E002C08FEF9FEFEC
:103B70000F90DF91CF910895CF93DF931F92CDB730
:103B8000DEB7682FCE0101960E94451D9091E80096
:103B9000892F807295FF04C09091F20080E4891B08
:103BA00099819FBF0F90DF91CF9108956F927F927F
:103BB0008F929F92AF92BF92CF92DF92EF92FF923D
:103BC0000F931F93CF93DF931F92CDB7DEB7782E5D
:103BD0007B01C42EB52E80912B08882369F0042F19
:103BE000152F8AEFD82E872D8072982E9AE3A92E52
:103BF000872D8074882E11C08FEF9FEF57C0872DBF
:103C00000E94BC1D682E81110CC0DA94A9F361E0FA
:103C100070E080E090E00E94DB190115110579F752
:103C20003BC0282F30E0021713070CF4602E672DDD
:103C3000CE0101960E94451D8091E80085FF29C0B4
:103C4000262D30E0021B130B992039F06A948FEF78
:103C50006816B1F01092F100F9CFF701862D77FECA
:103C600007C0815058F094919093F1003196F9CFAC
:103C7000815020F091919093F100FACFE20EF31E63
:103C80008091E80085FF0FC00115110511F4811026
:103C90000AC089818FBFC1CF5D9A84E680932D08C9
:103CA0008C2D9B2D03C0A092E800F3CF0F90DF91E5
:103CB000CF911F910F91FF90EF90DF90CF90BF9029
:103CC000AF909F908F907F906F9008951092E90031
:103CD00010922808109227089093260880932508B0
:103CE0000895CF92DF92FF920F931F93CF93DF93AC
:103CF00000D0CDB7DEB7F82E8A016B010115110592
:103D0000B1F0F601F7FE02C0849101C080814983C1
:103D10005A830E94A11C01501109FFEFCF1ADF0A3C
:103D200049815A818111EACF8FEF9FEF01C0CA010B
:103D30000F900F90DF91CF911F910F91FF90DF9027
:103D4000CF900895BF92CF92DF92EF92FF920F93A0
:103D50001F93CF93DF936C018B01EB013BEFB32EED
:103D60002097C1F07E01C134D1051CF020E4E22E81
:103D7000F12C8091E80082FFFCCFC8018C1B9D0BC9
:103D80006E2D8C0D9D1D0E94941CB092E800CE19E2
:103D9000DF09E6CFC801DF91CF911F910F91FF900E
:103DA000EF90DF90CF90BF9008951F920F920FB6C3
:103DB0000F921124DF92EF92FF920F931F932F9394
:103DC0003F934F935F936F937F938F939F93AF93A3
:103DD000BF93EF93FF93CF93DF93CDB7DEB76C978D
:103DE000DEBFCDBF1092E9008091E80083FF23C1C0
:103DF00068E0CE0145960E94941C82EF8093E80013
:103E00003D8937FF05C08091E80080FFFCCF03C0EB
:103E10008EEF8093E800832F807609F0F0C02E8922
:103E20004F89D88C21110CC0303829F480912A0890
:103E30008093F10002C01092F1001092F100F4C0E2
:103E4000842F90E09D29213049F43111EDC0019774
:103E500009F0EAC080912A088D7F0AC0233059F406
:103E60003111E2C0019709F0DFC080912A08826019
:103E700080932A08D9C0253041F48091E80080FF62
:103E8000FCCF40684093E300CFC0263009F08DC0DE
:103E9000EB8CFC8C22E0D2122CC080E090E00E94DF
:103EA000661E0E942F1D99E08E010F5F1F4FF801C3
:103EB000292F11922A95E9F79983DA8291E09E835E
:103EC00090EA98879AEF99872091270830912808DF
:103ED000275F3F4F3C832B838D83C7010E94661E63
:103EE00049E050E0B80180E00E94711E0E942F1D41
:103EF0009BC0C7010E94661E0E948121BE016B5EAD
:103F00007F4F0E942321009719F00CF08DC090C0C4
:103F100081E0D8120EC08B8D9C8D089719F481E03A
:103F2000809324088091240881112FC06FEE72E0E5
:103F300031C0E3E0DE127CC08F89882349F18230F2
:103F400029F440E86DE08DE093E01CC0813029F455
:103F500040E86BE081E093E015C0833009F068C071
:103F60000E9481218E010F5F1F4FB8010E944221E4
:103F7000F80101900020E9F73197E01BF10B40E0D8
:103F80006E2FC8010E94CF1C4DC06DED72E002C0C3
:103F90006BE173E06115710509F44AC0FB014491BE
:103FA00050E080E80E94711E3FC0273009F440C0F5
:103FB000283021F481E08093F10036C02930A1F54A
:103FC0003370B1F5E1E3F1E081E021E036E3908187
:103FD000992361F08093E9002093EB0091919093F5
:103FE000EC003093ED008F5F873089F78EE7809388
:103FF000EA001092EA008F8980932B0815C08B8D00
:104000009C8D0E94661E898D811105C0CE0145964A
:104010000E94D91B07C00E948121BE016B5E7F4FA9
:104020000E946121882321F08EEF8093E80003C075
:1040300081E28093EB006C960FB6F894DEBF0FBE62
:10404000CDBFDF91CF91FF91EF91BF91AF919F9144
:104050008F917F916F915F914F913F912F911F9120
:104060000F91FF90EF90DF900F900FBE0F901F9079
:1040700018958093E9008091F200882319F08AE373
:104080008093E80008951F920F920FB60F921124AB
:104090002F933F934F935F936F937F938F939F9350
:1040A000AF93BF93CF93EF93FF93C091E1008091C3
:1040B000E100837F8093E1008093E100C3FF0FC0A4
:1040C0001092E90081E08093EB001092EC0082E313
:1040D0008093ED0010922B0888E08093F000C2FFDF
:1040E00019C083E00E94392080912D08882339F07F
:1040F00080912D08815080932D08882389F180912B
:104100002C08882339F080912C08815080932C084A
:10411000882341F1C4FF10C08091E2008E7E81604F
:104120008093E2008091E1008F7E8093E100809196
:1041300029088E7E806111C0C0FF16C08091E20008
:104140008E7E80618093E2008091E1008E7E80937C
:10415000E100809129088E7E81608093290804C047
:104160005D98CDCF2898D6CFFF91EF91CF91BF9199
:10417000AF919F918F917F916F915F914F913F91FF
:104180002F910F900FBE0F901F90189510922B0833
:1041900010922A08109229080E940C1D8091E100BB
:1041A0008E7E8093E1008DE08093E200559A209A04
:1041B0005D982898EEEFFFE7859194918B3F9C4D99
:1041C00019F481E080932208089508950E94151A39
:1041D0000E94E52083E298E00E94C6200E9422030C
:1041E000C0E0D0E00E944C032097E1F30E94000061
:1041F000F9CF0895EF92FF920F931F93CF93DF9320
:104200007B01FC01C281D38100E010E0209781F0A6
:10421000E881F9810280F381E02DB701CE01099593
:1042200097FD08C0080F191F0884D985C02DEECF4F
:10423000C80102C08FEF9FEFDF91CF911F910F91C7
:10424000FF90EF9008950F931F93CF93DF938B010F
:10425000FC01C281D381209771F0E881F98104804B
:10426000F581E02DB801CE010995009731F408845D
:10427000D985C02DF0CF80E090E0DF91CF911F91E4
:104280000F9108950F931F93CF93DF938B01FC0140
:10429000C281D381209771F0E881F9810680F7818E
:1042A000E02DB801CE010995080F111D0884D985AC
:1042B000C02DF0CFF8011082DF91CF911F910F91A7
:1042C00008950F931F93CF93DF938B01FC01C2815D
:1042D000D381209771F0E881F9810190F081E02D80
:1042E000B801CE010995811106C00884D985C02D79
:1042F000F0CF80E001C081E0DF91CF911F910F915D
:1043000008958091320881110DC082E080932E08BB
:1043100084E080932F08109231081092300881E0D9
:10432000809332088EE298E0089597FB072E16F4EA
:10433000009407D077FD09D00E94F02107FC05D03A
:104340003EF4909581959F4F0895709561957F4FAC
:104350000895A1E21A2EAA1BBB1BFD010DC0AA1FC6
:10436000BB1FEE1FFF1FA217B307E407F50720F0DE
:10437000A21BB30BE40BF50B661F771F881F991F59
:104380001A9469F760957095809590959B01AC01A2
:10439000BD01CF010895052E97FB1EF400940E94E5
:1043A000E22157FD07D00E94A92107FC03D04EF45B
:1043B0000C94E22150954095309521953F4F4F4FF9
:1043C0005F4F089590958095709561957F4F8F4FC1
:1043D0009F4F0895EE0FFF1F0590F491E02D099473
:1043E000AA1BBB1B51E107C0AA1FBB1FA617B7071B
:1043F00010F0A61BB70B881F991F5A95A9F7809537
:104400009095BC01CD010895FB01DC0102C0019033
:104410000D9241505040D8F708956817790768F415
:10442000FB01DC01E40FF51FA40FB51F02C00290D1
:104430000E9241505040D8F708950C940422F999F7
:10444000FECF92BD81BDF89A992780B50895262F99
:10445000F999FECF1FBA92BD81BD20BD0FB6F89469
:0E446000FA9AF99A0FBE01960895F894FFCFCC
:10446E000101010202AA05890AE405B80AB505C1CF
:10447E00057A059405750A010B3307900B1A0BA7E5
:10448E000A010001FFFFFFFF00E100000000000035
:10449E0000C1808100000019FF0AFF1405FF00FF14
:1044AE00140FFF0FFF14FFFFFFFFFFFFFFFFFFFFC4
:1044BE00FFFF0A0A0AFFFFFFFFFFFFFFFFFFFFFFDD
:1044CE00FFFFFFFFFFFFFFFFFFFFFFFFFFFFFFFFEE
:1044DE00FFFFFFFFFFFFFFFFFFFFFFFFFFFFFFFFDE
:1044EE00FFFFFFFFFFFFFFFFFFFFFFFFFFFFFFFFCE
:1044FE00FF0A050A1900000000711BB81B9B1BABBD
:06450E001B871B981B0037
:00000001FF
