:100000000C9484010C94AC010C94AC010C94AC01E4
:100010000C94AC010C94AC010C94AC010C94AC01AC
:100020000C94AC010C94AC010C948D1F0C941F1E0D
:100030000C94AC010C94AC010C94AC010C94AC018C
:100040000C94AC010C94AC010C94AC010C94AC017C
:100050000C94AC010C94AC010C94AC010C94AC1855
:100060000C94AC010C94AC010C94AC010C94AC015C
:100070000C94AC010C94AC010C94AC010C94AC014C
:100080000C94AC010C94AC010C94AC010C94AC013C
:100090000C94AC010C94AC010C94AC010C94AC012C
:1000A0000C94AC010C94AC010C94AC01FE19011A37
:1000B000F019F419FA19221A221A221A051A091A21
:1000C0000D1A131A171A221A1D1A0A436D64206F8B
:1000D0007220566172206578702D640A53796D62C2
:1000E0006F6C20273D27206578702D640A4E616D66
:1000F000652065787065637465640A53796D626F15
:100100006C20273B27206578702D640A457874722F
:100110006120636861727320617420656E640A55A2
:100120006E6578706563746564206572726F720ABB
:100130004E756D626572206F7574206F66207261F6
:100140006E67650A4E756D626572206578706563CD
:100150007465640A556E65787065637465642073B0
:10016000796D626F6C0A556E6578702D64206C69CC
:100170006E6520656E640A004D69736B6174696E0B
:100180006F20424153494320312E350A636F646525
:100190003A200A766172733A200A6E6578743A20C2
:1001A0000A425245414B0A456E64206F6620636FD8
:1001B00064650A53617665640A4C6F616465640A1C
:1001C00062797465730A4C6F6164206661696C655D
:1001D000640A4175746F72756E20696E20312073E8
:1001E00065630A43616E63656C6564210A000706F6
:1001F00005040100080A0B0C0D09000000020009AB
:100200000F0000030401000C0000000000000000CB
:1002100000000000000000000004080201104080FF
:1002200040102040804080080204018040201002DD
:10023000011080102040402004040404040304053D
:100240000202020204030202020206060606060673
:100250000404020202040400000000230026002916
:10026000002C002F0000000000250028002B002E8D
:1002700000310000000000240027002A002D00307B
:1002800000080B0002020201000904000001020242
:1002900000000524001001052401010104240206C8
:1002A0000524060001070581031000400904010030
:1002B000020A000000070502024000000705830251
:1002C00040000012010002EF02014041233780008C
:1002D0000101020301120100020000004041233726
:1002E0008000010102030141726475696E6F204C48
:1002F0004C430041726475696E6F204D6963726F83
:10030000000403090400C11B11241FBECFEFDAE073
:10031000DEBFCDBF11E0A0E0B1E0E2E0F3E402C057
:1003200005900D92A63AB107D9F726E0A6EAB1E00A
:1003300001C01D92A83AB207E1F713E0C8E0D3E08C
:1003400004C02297FE010E943621C630D107C9F7AA
:100350000E9430200C947F210C9400008F3F59F5AF
:1003600080E00E94B51980917C00807F8E60809330
:100370007C0061E070E080E090E00E9425198091AF
:100380007A00806480937A0080917A0086FDFCCFA9
:1003900020917800309179001216130674F44427E6
:1003A00037FD4095542F64EB7BE281E190E00E94A1
:1003B0001521C90108950C94B5198FEF9FEF089589
:1003C0000E94921A21E0019709F020E0822F0895FF
:1003D000CF93DF93C82FD62F67FD0CC061E00E943A
:1003E000231A61E0D11101C060E08C2FDF91CF9121
:1003F0000C945C1A6F3F11F460E001C062E08C2F36
:10040000DF91CF910C94231ACF93DF93EC018230CC
:10041000910514F40E94F6180E94F6189E014427D4
:1004200037FD4095542F0E94F320C901DF91CF91F1
:1004300008958C3921E0920749F08F36934019F4E2
:1004400080E490E008958FEF9FEF089581E490E0BD
:1004500008958F3C21E0920769F0853523E09207EB
:1004600031F08C39914049F08FEF9FEF089580E093
:1004700090E0089582E090E0089581E090E0089592
:10048000FB01882319F0813031F00895A081B181FA
:1004900082818C930895628180810C94E801FB0134
:1004A000813051F0823079F0811110C00190F081DB
:1004B000E02D808190E0089580810E94E0019927DD
:1004C00087FD9095089580810C94AE0180E090E0C6
:1004D00008951F93CF93DF93EC0110E01C161D06C7
:1004E00034F42197CE010E9469211827F7CF812F7C
:1004F000DF91CF911F910895EF92FF920F931F9379
:10050000CF93DF93EC01009799F56115710561F4C4
:10051000C091A601D091A701CE010E946902682F67
:10052000CE010E94712107C01092A7011092A6016E
:100530001616170614F491E051C081E090E00E9475
:100540006921C82FD0E0DC2FCC2780E090E00E940A
:1005500069219E01282BC901215031092B3B3240D2
:10056000E0F503960E94690291E08823B9F135C055
:1005700016161706ACF48C01060F171F69918091AF
:10058000A6019091A7019C012F5F3F4F3093A701D7
:100590002093A6010E947121C017D10779F7CBCF14
:1005A000EE24FF24E61AF70A8C01C8018C1B9D0B70
:1005B0008E159F050CF0BFCF8091A6019091A701E9
:1005C0009C012F5F3F4F3093A7012093A6010E940B
:1005D0006921F80181938F01E8CF90E0892FDF91A5
:1005E000CF911F910F91FF90EF90089540E052EC52
:1005F00061E070E080E496E00E94AC1B80E496E04D
:100600000E94B21B8823D1F368E270E08CE291E093
:100610000C94F71080E496E00E94E51A181619066B
:100620002CF480E496E00E94F51A089580E0089585
:100630000E940A03809308060C944D11CF93C82F93
:100640008A3011F46DE008C0883051F468E080E42D
:1006500096E00E94BB1A60E280E496E00E94BB1A1A
:100660006C2F80E496E0CF910C94BB1A0C941E037F
:100670000F931F93CF93DF93EA01882329F08130F2
:1006800029F50AEC10E002C008E711E080E090E0F4
:1006900016164CF4F801E80FF91FE4910196EA30C0
:1006A000C9F76150F5CF080F191FF80184918A30FE
:1006B00051F0209719F08883219602C00E941E03F2
:1006C0000F5F1F4FF2CF209709F01882DF91CF9173
:1006D0001F910F910895E0910C06F0910D06118283
:1006E000108282E090E090930B0680930A061092AD
:1006F0000906089590930D0680930C060C946B03E5
:10070000809108068D3011F08A3099F488EA91E0E2
:100710000E94C916E0910906FF27E7FDF095E8550C
:10072000FE4F1082109209068AE00E94360381E093
:100730000895883011F08F3759F480910906181602
:10074000ACF498E0909308068150809309060EC09F
:10075000803264F0E091090691E09E0F90930906C3
:10076000FF27E7FDF095E855FE4F8083809108064E
:100770000E94360380E00895E0910C06F0910D068A
:10078000208131812115310551F0281739073CF4BA
:10079000228130E02D5F3F4FE20FF31FF1CFCF01F9
:1007A00008958F929F92AF92BF92CF92DF92EF9275
:1007B000FF920F931F93CF93DF937C016B01CB01CB
:1007C0000E94BC03EC01888199818C159D0511F56F
:1007D0000A8110E00D5F1F4F0C0F1D1F40910C068A
:1007E00050910D0680910A0690910B06480F591FF3
:1007F000401B510BB801CE010E9457210C1B1D0B51
:1008000080910A0690910B06801B910990930B062C
:1008100080930A06F70101900020E9F78F0101504B
:1008200011090E191F090023B9F15801BB24409189
:100830000C0650910D0680910A0690910B06480F08
:10084000591F4C1B5D0B4501F3E08F0E911CBE013F
:10085000CE01880D991D0E94572180910A06909122
:100860000B06880D991D90930B0680930A06D9827A
:10087000C8820A83A501B701CE010396DF91CF910B
:100880001F910F91FF90EF90DF90CF90BF90AF90AE
:100890009F908F900C944E21DF91CF911F910F91DB
:1008A000FF90EF90DF90CF90BF90AF909F908F9090
:1008B000089561E070E080E090E00E947C0288236F
:1008C000B9F062E070E08AE096E00E947C026091FC
:1008D0000A0670910B0680910C0690910D060E94FD
:1008E0007C0260E070E080E090E00E947C0281E0A9
:1008F00008956FEF7FEF80E090E00E947C028823F4
:10090000D1F06EEF7FEF8AE096E00E947C0260916A
:100910000A0670910B0671956195710980910C061C
:1009200090910D060E947C0260E070E080E090E013
:100930000E947C0281E00895EF92FF920F931F9333
:10094000CF93DF931F92CDB7DEB700910C061091C5
:100950000D066FEF7FEF80E090E00E947C0288231D
:1009600009F466C06EEF7FEF88EA91E00E947C0296
:100970006EEF7FEFC8010E947C02F80180819181B7
:10098000892B09F442C0609128067091290688EAF3
:1009900091E00E949E167801F2E0EF0EF11C6FEFDD
:1009A0007FEFCE0101960E947C02698170E0719513
:1009B0006195710988EA91E00E947C02E981F0E08A
:1009C000E855FE4F1082609128067091290688EA4A
:1009D00091E00E949E1680912806909129060E941F
:1009E000E4118983F8018283AC01552760912806C0
:1009F00070912906C80103960E944E21098110E0DA
:100A00000F5F1F4F0E0D1F1DB3CF60E070E080E041
:100A100090E00E947C0280910C0690910D06081BCC
:100A2000190B0E5F1F4F10930B0600930A0681E00F
:100A30000F90DF91CF911F910F91FF90EF9008954C
:100A4000E0912506F09126068091210690912206DC
:100A50009C012F5F3F4F3093220620932106880F81
:100A6000991FE80FF91F8081918190932201809353
:100A7000210108958FEF9FE7909322018093210138
:100A800008958091330690913406FC012081222341
:100A900031F00E94DA119093340680933306089562
:100AA000E0913306F09134068081882319F00E948A
:100AB0004105F6CF0895E0913306F0913406818127
:100AC000928190932201809321010C944105E09141
:100AD0002506F09126068091210690912206019725
:100AE0009093220680932106880F991FE80FF91F23
:100AF000809121019091220191838083E0913306BE
:100B0000F09134068181928190932201809321019A
:100B10000C944105809127068260809327068FE31D
:100B20000E94F416E0913306F091340682810E940F
:100B3000F4168DE30C94F41610921C0610921B060A
:100B400010921A0680911F0690912006909322061B
:100B500080932106E0911D06F0911E0611821082FD
:100B6000089520911C0680911A0690911B0634E08E
:100B70002302800D911D1124089576956795709339
:100B8000200660931F0690931E0680931D06909387
:100B90002606809325060C949C05FC0181819927EB
:100BA00087FD90952081223030F022813FE723029B
:100BB000800D911D1124089560911C06772767FD13
:100BC0007095A0911D06B0911E0640E050E04617BA
:100BD0005707C4F49B01240F351F35952795F9015C
:100BE000EE0FFF1FEE0FFF1FEA0FFB1F0190F081BA
:100BF000E02DE817F90714F0B901E9CFA9014F5F1B
:100C00005F4FE5CF842F0895CF93DF93EC010E94CF
:100C1000DC05E0911D06F0911E0694E08902E00DCE
:100C2000F11D1124808191818C179D0719F4828117
:100C3000938102C080E090E0DF91CF910895CF933F
:100C4000DF93C82FDD27C7FDD095DF67CE010E9457
:100C5000DC05E0911D06F0911E0694E08902E00D8E
:100C6000F11D1124808191818C179D0719F48281D7
:100C7000938102C08FEF9FEFDF91CF910895EF92A4
:100C8000FF920F931F93CF93DF938C017B010E9400
:100C9000DC0520911D0630911E06E82FFF27E7FD99
:100CA000F095EF01CC0FDD1FCC0FDD1FB9016C0FEC
:100CB0007D1FDB014D915C914017510731F140914F
:100CC0001C068417ACF4552747FD50954E1B5F0B4F
:100CD000440F551F440F551F80911A0690911B0613
:100CE000480F591FCE010496820F931F0E9457216F
:100CF000E0911D06F0911E06EC0FFD1F118300838D
:100D000080911C068F5F80931C06E0911D06F09178
:100D10001E06EC0FFD1FF382E282DF91CF911F913F
:100D20000F91FF90EF900895FF920F931F93CF9331
:100D3000DF93E0913306F09134068181C82FDD27DF
:100D4000C7FDD095DF678F71992787FD90959093A8
:100D50001506809314060E944105E0913306F09138
:100D60003406018112810E944105E0913306F09121
:100D700034068081882329F00E944105FF24F394E2
:100D800002C022E0F22ECE010E94DC05E0911D0699
:100D9000F0911E0694E08902E00DF11D112480817E
:100DA00091818C179D0701F160911A0670911B06C5
:100DB00081E0F81203C080E090E802C080E090E09B
:100DC000682B792BCE010E943F06F09E9001F19E88
:100DD000300D112480911A0690911B06820F931FEB
:100DE00090931B0680931A06DF91CF911F910F916C
:100DF000FF900895DC01409116065091170660910E
:100E000018067091190680E090E084179507BCF4ED
:100E10009A01280F391F35952795F901EE0FFF1F0D
:100E2000EE0FFF1FE60FF71F0190F081E02DEA178C
:100E3000FB0714F0A901E9CFC9010196E6CF089597
:100E4000CF93DF93EC010E94FA06880F991F880F59
:100E5000991FE0911806F0911906E80FF91F80819B
:100E600091818C179D0749F480910C0690910D0695
:100E700022813381820F931F02C080E090E0DF91D6
:100E8000CF910895EF92FF920F931F93CF93DF932B
:100E90008C017B010E94FA069C014091160650913C
:100EA0001706EC01CC0FDD1FCC0FDD1F8417950753
:100EB000A4F48091180690911906421B530B440F1D
:100EC000551F440F551FBC016C0F7D1F9E012C5FE9
:100ED0003F4F820F931F0E945721E0911806F09117
:100EE0001906EC0FFD1F11830083F382E2828091CB
:100EF0001606909117060196909317068093160692
:100F0000DF91CF911F910F91FF90EF900895209165
:100F1000250630912606E0912106F0912206AF01C8
:100F20004F5F5F4F5093220640932106AF01440F5D
:100F3000551FD901A40FB51F6D917C9111978F3268
:100F400009F452C01CF5863209F4C5C054F483324A
:100F500009F4B3C0853209F452C0813209F0DEC011
:100F600061C08B3279F18D32B1F18A3209F0D6C08D
:100F7000FA013296E20FF31F20813181269FC001D2
:100F8000279F900D369F900D1124C6C08E3509F411
:100F9000BBC054F48D3309F46CC08E3309F45CC0CB
:100FA0008C3309F0BBC04BC08C3709F49DC024F4CE
:100FB0008B3709F46AC008958D3709F472C08E37F3
:100FC00039F10895FA013296E20FF31F8081918181
:100FD000860F971FA1C0FA013296E20FF31F80819E
:100FE0009181861B970B98C0FA013296E20FF31F8E
:100FF000808191810E94DF20718360830895FA01CE
:101000003296E20FF31F808191810E94DF2084C01D
:10101000F0932206E09321067195619571096D9315
:101020007C930895F0932206E093210681E090E0FE
:10103000672B11F080E090E08D939C930895FA0166
:101040003296E20FF31F81E090E020813181261774
:1010500037070CF461C03CC0FA013296E20FF31F6F
:1010600081E090E020813181621773070CF454C055
:101070002FC0FA013296E20FF31F81E090E0208149
:1010800031812617370721F547C0FA013296E20F62
:10109000F31F81E090E02081318162177307E4F54E
:1010A00017C0FA013296E20FF31F81E090E0208131
:1010B00031812617370784F50BC0FA013296E20F0B
:1010C000F31F81E090E0208131812617370721F559
:1010D00080E090E021C0FA013296E20FF31F808198
:1010E0009181892B61F008C0FA013296E20FF31F5B
:1010F00080819181892B29F481E0672B19F480E0AC
:1011000001C081E090E008C0FA013296E20FF31FBF
:101110008081918186279727918380830895CF933B
:10112000DF930E9493188F3F21E09207D9F48091BA
:10113000210690912206880F991FE0912506F091D3
:101140002606E80FF91F8081918120910806332738
:1011500027FD309531832083892B09F469C01092D3
:10116000080666C0893C910599F48091210690910A
:101170002206880F991FC0912506D0912606C80F18
:10118000D91F888199810E9404029983888350C065
:10119000833D21E09207A1F48091210690912206DF
:1011A000880F991FE0912506F0912606E80FF91F98
:1011B0008081918197FF3CC09195819591092FC0C5
:1011C0000E942902EC01E0912106F0912206809113
:1011D000250690912606D7FD25C0BF01660F771F13
:1011E000680F791F8C2F0E944F02C050DF4F28815B
:1011F000332727FD30952150310940912106509128
:101200002206240F351F3093220620932106220F39
:10121000331FE0912506F0912606E20FF31F91831C
:10122000808306C0EE0FFF1FE80FF91F11821082A6
:10123000DF91CF9108950E941F06E0912106F09161
:10124000220620912506309126068F3F4FEF940706
:1012500039F4EE0FFF1FE20FF31F11821082089581
:10126000492F441F4427441F62E0641B9F77EE0F01
:10127000FF1FE20FF31F70911C0640815181640330
:101280009001659F300D1124820F931F24E072029C
:10129000800D911D1124A0911D06B0911E06A80F6E
:1012A000B91F623019F48D919C9102C08C9190E02D
:1012B000918380830895CF93DF93E0913306F0917B
:1012C00034068081833209F45CC03CF4803149F1FA
:1012D0008232E9F181115DC00CC0823351F0833359
:1012E00009F454C0803309F054C081810E948707FB
:1012F00050C0E0912506F09126068091210690913C
:1013000022069C012F5F3F4F309322062093210637
:10131000880F991FE80FF91F80819181DF91CF918C
:101320000895A0912506B0912606809121069091FE
:101330002206019790932206809321062181328113
:10134000880F991FA80FB91F2D933C9322C0C091FD
:101350002506D091260680912106909122060197BC
:101360009093220680932106880F991FC80FD91FDA
:10137000CF0101960E94CD050E94040699838883BF
:1013800008C0CF0101960E948F0803C081810E948E
:101390001B090E94410591CFCF93DF9380913306C3
:1013A0009091340601960E94CD05EC010E94410502
:1013B0000E945B09BC01CE01DF91CF910C943F06E6
:1013C0008091330690913406FC012081223399F0FC
:1013D000203421F0211106C00C94B01701960E9410
:1013E000021709C00E945B09BC01882777FD809520
:1013F000982F0E941D170E944105E2CFE09133060D
:10140000F09134068081882349F0823321F00E94D4
:101410005B090E94F4160E944105F0CF08950E94D6
:101420005B09892B59F4E0913306F09134068081F1
:10143000882319F00E944105F6CF08950C944105C8
:101440000F931F93CF93DF9300D0CDB7DEB78B01FF
:1014500049835A830E941F0649815A818F3F2FEF8B
:101460009207F9F0292F221F2227221F62E0621B18
:101470009F7770911C0660039001619F300D1124CD
:10148000820F931FE4E07E02800D911D1124E091F4
:101490001D06F0911E06E80FF91F4083623009F423
:1014A00051830F900F90DF91CF911F910F9108956D
:1014B0001F93CF93DF93E0913306F09134061181AF
:1014C0000E9441050E945B09EC010E9441050E94B7
:1014D0005B09AC01BE01812FDF91CF911F910C946C
:1014E000200ACF93DF93C0911406CF71C0648FEBB5
:1014F0008C0F8A3108F056C0E0913306F091340623
:101500008081803111F0D0E019C041815281609119
:10151000140670911506D5E075956795DA95E1F793
:101520008C2F0E94200A2091140630911506205E0F
:101530003F4F30931506209314062BC02D2F3327D1
:1015400027FD3095E0913306F0913406418150E05B
:1015500024173507F4F4E20FF31F4281552747FDA6
:1015600050956091140670911506B5E075956795D4
:10157000BA95E1F78C2F0E94200A20911406309131
:101580001506205E3F4F3093150620931406DF5F4B
:10159000D5CF0E944105E0913306F0913406808159
:1015A0008111AACFDF91CF910895CF93DF93EC0102
:1015B00081E090E00E94040290931106809310064F
:1015C000D0930F06C0930E06DF91CF9108950E942D
:1015D0005B090E94D50A80912706816080932706C7
:1015E000089581E090E00E9404022091100630915D
:1015F0001106AC01421B530B81E020910E06309185
:101600000F06241735070CF080E008950E94F10AB8
:10161000882329F0809127068E7F809327060895DE
:10162000CF93DF93809108068823D1F00E94800336
:101630008823B1F088EA91E00E94FD17EC018091C7
:1016400033069091340601960E94CD05BE010E949A
:101650003F060E944105809127068D7F80932706D3
:10166000DF91CF910895DF92EF92FF920F931F9336
:10167000CF93DF93E82EE82FFF27E7FDF095ED5F8E
:10168000FE4FD0800D2D112707FD109520912106CA
:1016900030912206201B310B309322062093210625
:1016A000F12CC0912106D09122062091250630917F
:1016B0002606FD1484F4CF0DD11DF7FCDA95CC0F6E
:1016C000DD1FC20FD31F0E945B09998388830E948C
:1016D0004105F394E6CFBE01660F771F620F731FBB
:1016E0008E2D0E9440028091210690912206800F4B
:1016F000911F9093220680932106DF91CF911F9135
:101700000F91FF90EF90DF900895CF93DF93EC015E
:10171000909334068093330688818823D1F00E9409
:101720004105898180346CF4E82FEE0FFF0BEB5FED
:10173000FE4F0190F081E02D09958981823021F4DE
:1017400008C080540E94330BC0913306D0913406F8
:10175000E3CFDF91CF91089540E050E065E080E075
:101760000E9438030C94B0178091270684FD0E94D4
:101770007904809127068C7C809327060895CF9367
:10178000DF9380912101909122010E94BC03EC0122
:1017900088819981009731F40E94B40B0E94AC0BB0
:1017A00081E022C0019690932201809321014A8119
:1017B00050E0BE016D5F7F4F88EA91E00E944E21AC
:1017C000EA81F0E0E855FE4F1082609128067091A2
:1017D000290688EA91E00E949E1680912806909141
:1017E00029060E94850B80E0DF91CF9108950E9429
:1017F000B40B109213061092120680911F0690915E
:101800002006909322068093210640E050E064E099
:1018100080E00E9438030C94B017009729F0909351
:101820001306809312060895809112069091130674
:101830008F3F2FEF920729F0019790931306809323
:1018400012060E94BF0B882321F0109213061092FB
:1018500012068091120690911306892B11F40C94B4
:10186000B40B089581E090E09093220180932101D0
:101870000E94BC03909324068093230610921706BF
:101880001092160680910C0690910D0620910A0682
:1018900030910B06820F931F9093190680931806C0
:1018A0008091270680618093270608950F931F93E8
:1018B000CF93DF93E0912306F091240680819181FC
:1018C000892B31F08091210190912201892B41F4E3
:1018D0000E94B40BDF91CF911F910F910C94AC0B30
:1018E000C281D0E02396CE0FDF1F8881998190932B
:1018F000220180932101CF0103960E94850B009164
:10190000210110912201888199818017910709F1A5
:10191000C8010E9420079093240680932306892BF8
:10192000E1F4C8010E94BC0390932406809323062F
:1019300020910C0630910D06BC01621B730B809147
:10194000210190912201DF91CF911F910F910C9471
:101950004207D0932406C0932306DF91CF911F91B5
:101960000F9108950E948111FC0180818D3211F048
:10197000813261F40E944F13E0913106F0913206FA
:1019800081818D3229F48EE7818302C080E0089541
:1019900081E00895CF930E943912882339F00E9484
:1019A0008111FC018081883271F526C080E00E949F
:1019B0005F158823A1F00E948111FC018081E091D4
:1019C0003106F0913206883239F483E2808381E077
:1019D0000E940912C6E61AC082E2808314C00E94E7
:1019E0008111FC01C081C83219F40E944F130EC04E
:1019F0000E94B20C811109C00E94811169E00E940D
:101A0000CD11C5E603C0CBE201C0C1E38C2FCF915D
:101A100008950E948111FC018081882329F18B3374
:101A200019F1893219F18C3219F1982F9D7F9D326D
:101A300081F096ED980F923060F08E3551F09BED6D
:101A4000980F923030F094EC980F933010F08C3760
:101A500021F40E944F1381E308950E94811169E0EF
:101A60000E94CD1185E6089583E7089589E20895DF
:101A70008CE20895CF93DF931F92CDB7DEB718168F
:101A80003CF00E94811169E00E94CD1185E60EC0F4
:101A900069830E944F13698116163CF4E091310668
:101AA000F091320681E3808361838BE20F90DF91B6
:101AB000CF910895811107C00E94811169E00E94B1
:101AC000CD1185E608950E944F1381E30895815258
:101AD0008E3530F4E82FF0E0E95CFE4F8081089508
:101AE0008FEF0895813231F091E08E3709F090E068
:101AF000892F089581E00895883281F0E0913306BE
:101B0000F091340690E390838183CF010E94DA1133
:101B1000909334068093330681E0089580E0089521
:101B20008F929F92AF92BF92CF92DF92EF92FF92ED
:101B30000F931F93CF93DF93CDB7DEB760970FB6A8
:101B4000F894DEBF0FBECDBF7C018C01BB24BA94DC
:101B500083E3D82E98E2C92EF8018081813009F400
:101B6000AEC0823211F0803161F4B8018091330649
:101B7000909134060E94B4118091330690913406FE
:101B800093C0803309F03FC0F801A180F8E2AF169E
:101B900009F4A6C089E2A81619F0ECE2AE1218C04A
:101BA00099249A949B0CE1E0F0E0EC0FFD1FEB0D03
:101BB000F11DB7FCFA9580810E947C0D882311F0FD
:101BC000B92CEECFFCE2AF1609F474C0B92C72C088
:101BD0008A2D0E94670D982E8A2D0E94720D811108
:101BE0009394B7FC7DC0E1E0F0E0EC0FFD1FEB0D3E
:101BF000F11DB7FCFA958080882D0E94670D89152C
:101C00000CF079C06DC08332D1F481E08B0DE1E03E
:101C1000F0E0EC0FFD1FE80FF11D87FDFA95C801FC
:101C20008E199F098083B394B394E1E0F0E0EC0F48
:101C3000FD1FEB0DF11DB7FCFA95C0823BC081334F
:101C4000C9F5AA24AA94AB0CE1E0F0E0EC0FFD1F6B
:101C5000EB0DF11DB7FCFA9580810E947C0D882365
:101C600011F0BA2CEECFBA94BA94E1E0F0E0EC0FA8
:101C7000FD1FEA0DF11DA7FCFA958081B701680FE1
:101C8000711D87FD7A9580913306909134060E94EC
:101C9000B411E0913306F09134068181813019F45A
:101CA000D08282818183CF010E94DA119093340621
:101CB00080933306C8010E94DA118C014DCFB7FC26
:101CC0001FC01FEF1B0DE1E0F0E0EC0FFD1FEB0D5F
:101CD000F11DB7FCFA9580810E947C0DB12EEFCFEB
:101CE000B394E1E0F0E0EC0FFD1FEB0DF11DB7FC4C
:101CF000FA95A082DFCFBA94882D0E947C0D71CF17
:101D000060960FB6F894DEBF0FBECDBFDF91CF91C6
:101D10001F910F91FF90EF90DF90CF90BF90AF9009
:101D20009F908F900895FF920F931F93CF93DF930F
:101D3000CDB7DEB7C05AD1090FB6F894DEBF0FBEDB
:101D4000CDBF8C01E0913306F0913406FF24F3946B
:101D5000F082AF01481B590B4F5F5F4FBC01CE01B2
:101D600001960E944E211093340600933306CE0153
:101D700001960E94900DE0913306F0913406F082B6
:101D80001092320610923106C056DF4F0FB6F8940B
:101D9000DEBF0FBECDBFDF91CF911F910F91FF909E
:101DA0000895EF92FF920F931F93CF93DF93CDB7D8
:101DB000DEB760970FB6F894DEBF0FBECDBF0091BF
:101DC00033061091340619820E948111FC01F080C3
:101DD000F11006C00E9481116AE00E94CD1155C029
:101DE000F12C81E3EE24E3948C32B9F18CF4893246
:101DF00031F18B3209F18832B9F7F394E1E0F0E088
:101E0000EC0FFD1FEF0DF11DF7FCFA95108206C0D7
:101E10008536D1F1863629F0813331F70E94CA0C1C
:101E20002AC0F394E1E0F0E0EC0FFD1FEF0DF11D8F
:101E3000F7FCFA95E082F2CF0E94090D1CC0E1E0A8
:101E4000F0E0EC0FFD1FEF0DF11DF7FCFA9560813E
:101E50008F2D0E943A0DFA940EC0E1E0F0E0EC0FF5
:101E6000FD1FEF0DF11DF7FCFA95808191E0980FB1
:101E700090830E945A0D833709F0B6CFC8010E94A3
:101E8000930EFF24F39401C0F12C8F2D60960FB6B2
:101E9000F894DEBF0FBECDBFDF91CF911F910F91A0
:101EA000FF90EF9008950F931F93CF93DF9380914E
:101EB0002C0690912D060E94BC03EC01888199812B
:101EC000892B59F480912C0690912D0602972CF0C5
:101ED00081E090E00E94BC03EC0100E010E068812A
:101EE00079816115710529F180912A0690912B065F
:101EF00008171907F4F4CB01019690932D068093EF
:101F00002C06882777FD8095982F0E941D1780E268
:101F10000E94F416CE0102960E9402170E94B0178A
:101F20008881998101960E94BC03EC010F5F1F4FCD
:101F3000D6CFDF91CF911F910F9108950E94DA11B2
:101F40000E94DA11FC012081203191F4218132813B
:101F500030932D0620932C060E94DA11FC0120817B
:101F6000203131F48181928190932B0680932A064F
:101F70000C94530F80912806909129060E94DA1143
:101F80000E94DA1120912706206220932706FC0187
:101F90002081203119F48181928102C081E090E09A
:101FA0000C940D0C0E945904882321F00E949C047B
:101FB0000C94320C8FEF9FEF0C940D0C0E9459047F
:101FC00040E050E066E080E00E94380380E20E943A
:101FD000F41660910A0670910B066E5F7F4F88279A
:101FE00077FD8095982F0E941D1780E20E94F416BD
:101FF00040E050E068E080E00E9438030C94B017A5
:102000000E94790440E050E08823D1F067E080E04E
:102010000E94380380E20E94F41660910A067091D3
:102020000B066E5F7F4F882777FD8095982F0E9463
:102030001D1780E20E94F41640E050E068E001C005
:1020400069E080E00E9438030C94B0170E946B0393
:102050000C949C0540E050E061E080E00E94380371
:1020600060910A0670910B06882777FD8095982F5E
:102070000E941D170E94B01740E050E062E080E02F
:102080000E9438030E94B105BC01882777FD809526
:10209000982F0E941D170E94B01740E050E063E0A7
:1020A00080E00E943803609121017091220188270D
:1020B00077FD8095982F0E941D170C94B017809182
:1020C0002806909129060E94DF14863B23E09207A0
:1020D00031F480912806909129060C949E0F82314C
:1020E00023E0920711F40C94BA0F8C3A21E0920786
:1020F00011F40C94D20F853723E0920711F40C945D
:10210000DE0F8A3923E0920711F40C9400108A390B
:1021100026E0920711F40C942610833B934011F4AF
:102120000C942A1088EA91E00E94C31688EA91E094
:102130000E94F61680E20E94F4160E94BE16885A8B
:102140009140BC01882777FD8095982F6F5F7F4F66
:102150008F4F9F4F0E941D170C94B017CF93DF93A2
:102160008091A801882351F1609128067091290679
:1021700088EA91E00E949E160E94BE16892B21F0EB
:10218000DF91CF910C945F108091280690912906E1
:10219000FC012081203121F0DF91CF910C94850B3F
:1021A000FC01C181D28188EA91E00E94EC160E9474
:1021B0008018BE01DF91CF910C94D103DF91CF91B4
:1021C00008950E949C04882381F040E050E06AE07A
:1021D00080E00E9438030E94B01788EE93E00E94CE
:1021E000D50A84E08093270608950C9426100F9357
:1021F0001F93CF93DF93EC018B010E94B01740E057
:1022000050E060E080E00E9438030E94B017CE01E9
:10221000805E9D4F0E947A03BE0180E292E00E94A0
:10222000BD0581E090E090932D0680932C0683E01D
:1022300090E090932B0680932A0610922706B8010F
:1022400068557E4F709329066093280688EA91E0CE
:10225000DF91CF911F910F910C94E11080910806AE
:1022600018167CF4809127068B7F8093270640E028
:1022700050E06BE080E00E9438030E94B0170C949D
:1022800079040E94F10A882339F0809127068B7F18
:10229000809327060C94320C089520910806233071
:1022A00029F4809127068360809327068091270672
:1022B000982F9371903111F40C94560C982F9370C1
:1022C000923031F0933039F0913041F40C94060B98
:1022D0000E94100B13C00E94F70B10C085FF04C0B2
:1022E00080E090E00C940D0C82FD0C942E111216DF
:1022F0003CF40E94800381110E94AE1010920806E7
:10230000089580913506909136060895FC0120814C
:1023100024326CF42232D4F42031A9F01CF422309F
:10232000D0F01CC0203291F02132D9F017C02233F6
:1023300091F01CF42033ACF411C0233391F02054FD
:10234000223020F00BC083E090E00895FC018181F1
:1023500090E00296089581E090E0089580E090E09A
:10236000089582E090E008950F931F93CF93DF9339
:1023700000D0CDB7DEB78C01CB0169837A830E9490
:102380008611AC0169817A81C8010F900F90DF91AD
:10239000CF911F910F910C944E2160932E06909334
:1023A000300680932F06E0913306F091340681E0E9
:1023B00080830895CF93DF93EC010E9486118C0FE8
:1023C0009D1FDF91CF910895CF93DF93EC01FC0126
:1023D0002081222319F00E94DA11F9CF8C1B9D0B6A
:1023E0000196DF91CF9108950E9480189093360650
:1023F000809335068091330690913406909332068F
:10240000809331060E94DA1190933406809333064C
:1024100008952091350630913606A901480F511DC7
:1024200087FD5A95CA010E948018909336068093C2
:1024300035060895E0913506F091360680818732A1
:10244000B1F4A0913306B091340680E18C93818180
:1024500090E012969C938E931197CF0102969093E1
:102460003606809335060E94F41181E0089580E0DD
:102470000895CF92DF92EF92FF920F931F93CF9325
:10248000DF931F92CDB7DEB7E0913506F0913606A7
:1024900080810E94C21781110BC00F90DF91CF91F4
:1024A0001F910F91FF90EF90DF90CF900C941A1234
:1024B000E0913306F091340680E18083128211822C
:1024C000E0913506F09136068081803381F4818178
:1024D0000E94B317E0913506F0913606883549F42D
:1024E0003296F0933606E093350620E108C02AE0E4
:1024F00006C081810E94B317823431F028E0022F98
:10250000112707FD10950BC0809135069091360676
:102510000296909336068093350622E0F0CFE09144
:102520003506F0913606622F808129830E94C917F3
:10253000E0913506F09136062981882339F1C09063
:102540003306D0903406D60111968D919C91129746
:10255000089F7001099FF00C189FF00C1124622F46
:10256000808129830E94F117E80EF11C87FDFA94FF
:10257000F601F282E182809135069091360601964D
:1025800090933606809335062981C9CFCF010E94EA
:10259000F41181E00F90DF91CF911F910F91FF9087
:1025A000EF90DF90CF900895809135069091360698
:1025B000FC012081222329F065E00E94CD1180E0FA
:1025C0000895E0913306F0913406108281E0089579
:1025D000CF93DF936091350670913606FB01019031
:1025E0000020E9F73197E61BF70BA0913306B09175
:1025F000340681E48C931196EC931197EF01DD275B
:10260000AE01CD0102960E944E2180913506909137
:1026100036068C0F9D1F0E94F411DF91CF910C9410
:10262000D4120F931F93CF93DF930091350610912F
:102630003606F8018081823261F5A0913306B091AF
:10264000340680E48C93E801219621E030E0AE016D
:102650006991611114C08FEF820F11968C9381E004
:1026600090E0FA014081423211F080E090E0820F68
:10267000931F800F911F0E94F41181E00BC0623202
:1026800051F3CD01820F931FFC0161832F5F3F4FF8
:10269000DECF80E0DF91CF911F910F910895CF930E
:1026A000DF93C0913306D091340680E38883E091B4
:1026B0003506F091360680818C3339F491819E3352
:1026C00059F09D3379F48BE708C08E3359F491812A
:1026D0009D3341F48DE701C083E23196F0933606D5
:1026E000E09335060E94B317898380913506909157
:1026F000360601960E94F41181E0DF91CF91089592
:10270000CF93DF93C0913506D09136060E943912DF
:10271000882389F0E0913106F091320621813281DF
:10272000215031092033354730F067E0CE010E9457
:10273000CD1180E001C081E0DF91CF9108958091BB
:10274000350690913606FC0120812B3329F064E098
:102750000E94CD1180E00895E0913306F091340697
:1027600022E3208301960E94F41181E00895E09114
:102770003506F091360620E0CF013191332341F048
:10278000383211F42F5FF8CF3932B1F72150A1F769
:102790000895CF938091350690913606FC012081F3
:1027A0002D33F1F0283211F062E016C00E94B71309
:1027B000FC01C081C11104C06AE00E94CD1113C0A8
:1027C00001960E948018FC0180818D3359F062E0EF
:1027D00080913506909136060E94CD11C0E003C06D
:1027E000C8E001C0C9E08C2FCF910895CF93DF934B
:1027F0000E94B713EC018BE388832091350630915A
:1028000036062F5F3F4F30933606209335060E94E1
:10281000D10E882329F00E949F1389E2888381E0EA
:10282000DF91CF9108950F931F93CF93DF930E9471
:10283000C913182F811102C080E050C0E091330607
:10284000F091340601E20083C0913106D091320646
:10285000CE010E948611AC01BE01CE0102960E94FB
:102860005721E0913106F091320600831183CF01A8
:102870000E94DA11FC0190933406809333061930DC
:1028800021F483E3808382818183F0933206E09395
:102890003106CF010E94DA119093340680933306FB
:1028A000193081F0809135069091360601960E948C
:1028B000801890933606809335060E94D10E8823A7
:1028C00059F005C00E94F6138111ECCFB5CF0E94DC
:1028D000D41291E0811101C090E0892FDF91CF9156
:1028E0001F910F9108950E941113811102C00C9441
:1028F000D10E81E008950E94D10E882371F0E091FD
:102900003506F09136068081882329F00E949F13B6
:10291000882319F0F0CF0C94D41280E008950E941F
:102920007314882371F0E0913506F09136068081AA
:10293000882329F00E949F13882319F0F0CF0C946C
:10294000D41280E008950E943912811104C00E94BF
:102950001113882349F0E0913506F0913606808105
:102960008111F1CF0C94D41268E0809135069091DA
:1029700036060E94CD1180E00895CF93C82F181617
:102980004CF0CF910C94D412C150D9F30E949F13F4
:10299000882321F00E94D10E8111F6CF80E0CF91E3
:1029A00008950E94391281110C94D41268E080912C
:1029B0003506909136060E94CD1180E00895FC0105
:1029C0002081207F203219F401960C94931880E026
:1029D00090E0089580913306909134060E94DF14B0
:1029E0008A3D23E0920709F44BC0D4F48C3CF1E01B
:1029F0009F0709F43FC04CF4843D910579F18F386D
:102A0000E1E09E0709F444C03EC08F3CF1E09F071F
:102A1000A1F18D3C23E09207B1F58CE090E03AC043
:102A20008E35E7E09E0709F446C04CF4833E23E070
:102A30009207B9F08C37E6E09E07D1F124C08C3ABA
:102A4000F7E09F0789F08E302DE0920781F0833800
:102A5000E7E09E07C1F48BE090E01CC083E090E0CB
:102A600019C084E090E016C085E090E013C086E0D5
:102A700090E010C087E090E00DC08AE090E00AC0CE
:102A80008DE090E007C00E94190297FD17C002C0B8
:102A900080E090E0E0913306F091340691E290837B
:102AA0008183CF010E94DA1121E0FC012083089587
:102AB00081E090E0EFCF82E090E0ECCF0895FF92CC
:102AC0000F931F93CF93DF93F82EE0913506F0918B
:102AD000360680810E94B9178823A1F1E091330660
:102AE000F091340680E28083C0E0D0E0E0913506CA
:102AF000F0913606EC0FFD1F80810E94681800914E
:102B0000330610913406882379F0E0913506F09170
:102B10003606EC0FFD1F80810E94B317F801EC0F01
:102B2000FD1F82832196E2CFF801C183F1100E943C
:102B3000EA1480913506909136068C0F9D1F0E94F5
:102B4000F41181E0DF91CF911F910F91FF900895D3
:102B5000CF9380E00E945F15C82F811108C063E009
:102B600080913506909136060E94CD1107C0E09104
:102B70003106F091320682E28083C1E08C2FCF9142
:102B8000089580E00E945F15811102C063E02BC0B0
:102B9000E0913106F091320683E380838281818364
:102BA000CF010E94DA1190933406809333060E947D
:102BB0003912E0913506F0913606811103C068E0C4
:102BC000CF0115C08081811102C00C94D4120E94E3
:102BD0004F13882339F0E0913106F091320681815C
:102BE000823499F369E080913506909136060E940F
:102BF000CD1180E0089580913306909134060E94B3
:102C0000DA11909334068093330680E00E945F15BA
:102C10008111FBCF0E9439128111F7CF0E9411134D
:102C20008111F3CFE0913306F091340681E0808387
:102C30000895CF9381E00E945F15C82F811108C0CD
:102C400061E080913506909136060E94CD1161C0F9
:102C5000E0913106F09132068081813241F00E948C
:102C60001314C82F811154C00E94FB1552C0E1817A
:102C7000E11103C0CF910C94E8128CEF8E0F8230DB
:102C800018F4CF910C94D1148AEF8E0F823018F47F
:102C9000CF910C94D412E13019F4CF910C948F148D
:102CA000E23051F40E94A815882381F10E94D412C9
:102CB000C1E081112EC02AC0E33019F4CF910C94E9
:102CC0008C16EA3019F4CF910C94C115EB3011F445
:102CD00081E012C0EC3019F4CF910C94A314ED30C4
:102CE00019F4CF910C947B14E0344CF0FF27E7FDEE
:102CF000F095ED53FF4F8081CF910C94BD1466E0A9
:102D000080913506909136060E94CD11C0E001C039
:102D1000C1E08C2FCF9108950E94D10E882369F0D5
:102D20000E949F13882341F00E94191691E081119F
:102D300001C090E0892F089580E0089590933606B1
:102D400080933506709334066093330610923206F2
:102D50001092310660E080E090E00E94CD110E9468
:102D60008013882351F0E0913506F091360680817A
:102D700081110C9419160C94D412089580912F0689
:102D8000909130060895AC0160912E0681E00C947C
:102D90003803FC01AF01481B590B2191211102C0DE
:102DA000FC0103C02132B4F3FBCF9F01281B390B78
:102DB000DF01A40FB51F6C91662311F06193F5CF6D
:102DC000FC01E20FF31F21503109108237FD03C0CF
:102DD00082918132C4F30895FC0101962081205331
:102DE0002A30D0F3CF0108950C941E03CF93DF93C4
:102DF000EC018991882319F00E941E03FACFDF911C
:102E0000CF9108950F931F93CF93DF938C01C0E070
:102E1000D0E09E012196F801808190E028173907C3
:102E20003CF4F801EC0FFD1F80810E941E03F1CFDE
:102E3000DF91CF911F910F9108954F925F926F9202
:102E40007F928F929F92AF92BF92CF92DF92EF923A
:102E5000FF921F93CF93DF9300D01F92CDB7DEB7C1
:102E60006B017C0197FF0CC08DE20E941E03F09461
:102E7000E094D094C094C11CD11CE11CF11C05C08D
:102E8000611571058105910569F0812C9AEC992EE7
:102E90009AE9A92E9BE3B92E2AE0422E512C612CEF
:102EA000712C15C080E30F900F900F90DF91CF91A0
:102EB0001F91FF90EF90DF90CF90BF90AF909F90C9
:102EC0008F907F906F905F904F900C941E03C8146A
:102ED000D904EA04FB044CF4C501B401A301920136
:102EE0000E94152149015A01F2CF8AE0482E512C47
:102EF000612C712C181419041A041B04F4F4C70172
:102F0000B601A50194010E941521182F80E3820FBC
:102F100069837A839B830E941E036981C62E7A810E
:102F2000D72EE12E9B81F92EC501B401A301920198
:102F30000E94152149015A01DDCF0F900F900F908B
:102F4000DF91CF911F91FF90EF90DF90CF90BF90D6
:102F5000AF909F908F907F906F905F904F9008956B
:102F60008AE00C941E039FE9980F9A3108F480526E
:102F700008950E94B3179FEB980F81E09A3108F0F3
:102F800080E0089590ED980F81E09A3008F080E09D
:102F90000895CF93DF931F92CDB7DEB78033E4F06F
:102FA0008A333CF4282F332727FD30952F523109DF
:102FB0000CC069830E94B317698181346CF0282F9B
:102FC000332727FD309526533109772767FD709504
:102FD00081E0621773070CF480E00F90DF91CF91CE
:102FE0000895803344F08A3314F4805308950E9486
:102FF000B3178753089580E00895AF92BF92DF9290
:10300000EF92FF920F931F93CF93DF9300D0CDB732
:10301000DEB75C01FC0180818D3231F4FFEFAF1A25
:10302000BF0A2FEF298302C031E03983F501808187
:10303000803351F481810E94B317883569F4F2E03E
:10304000AF0EB11C90E101C09AE000E010E0E92E63
:10305000FF24E7FCF0940CC0823429F02FEFA21A71
:10306000B20A98E0F2CF32E0A30EB11C92E0EDCFAD
:10307000F501D1905F01692F8D2D9A830E94C917A8
:103080009A81882399F0F801EE9D8001EF9D100D43
:10309000FE9D100D1124692F8D2D9A830E94F1172A
:1030A000080F111D87FD1A959A81E2CF298120030F
:1030B000C001219F900D11240F900F90DF91CF91AF
:1030C0001F910F91FF90EF90DF90BF90AF90089508
:1030D00090ED980F9A3040F00E94B91791E081115D
:1030E00001C090E0892F089581E00895893034F07F
:1030F0008E3014F0803211F481E0089580E008955C
:103100000F931F93CF93DF93EC018E012196F8016B
:1031100080810E9476188111F8CFC801DF91CF918C
:103120001F910F910895FC01508180E090E040E0F4
:1031300045178CF49C01220F331FDF01A40FB11D32
:1031400047FDBA9511968C91992787FD9095822716
:1031500093274F5FEDCF08951F920F920FB60F92F6
:1031600011242F933F938F939F93AF93BF9380919D
:10317000380690913906A0913A06B0913B063091FD
:10318000370623E0230F2D3720F40196A11DB11D32
:1031900005C026E8230F0296A11DB11D2093370616
:1031A0008093380690933906A0933A06B0933B0675
:1031B00080913C0690913D06A0913E06B0913F065D
:1031C0000196A11DB11D80933C0690933D06A093EE
:1031D0003E06B0933F06BF91AF919F918F913F9173
:1031E0002F910F900FBE0F901F9018952FB7F89446
:1031F000609138067091390680913A0690913B06AD
:103200002FBF08953FB7F89480913C0690913D06FA
:10321000A0913E06B0913F0626B5A89B05C02F3F62
:1032200019F00196A11DB11D3FBF6627782F892F88
:103230009A2F620F711D811D911D42E0660F771F4D
:10324000881F991F4A95D1F708958F929F92AF9248
:10325000BF92CF92DF92EF92FF926B017C010E94AE
:1032600002194B015C01C114D104E104F104F1F035
:103270000E9443200E940219681979098A099B0952
:10328000683E73408105910570F321E0C21AD108B0
:10329000E108F10888EE880E83E0981EA11CB11C9D
:1032A000C114D104E104F10429F7DDCFFF90EF90C0
:1032B000DF90CF90BF90AF909F908F9008957894BB
:1032C00084B5826084BD84B5816084BD85B582602B
:1032D00085BD85B5816085BDEEE6F0E080818160C9
:1032E0008083E1E8F0E010828081826080838081C9
:1032F00081608083E0E8F0E0808181608083E1E9A3
:10330000F0E0808182608083808181608083E0E959
:10331000F0E0808181608083E1ECF0E08081846076
:103320008083808182608083808181608083E3EC00
:10333000F0E0808181608083E0ECF0E08081826059
:103340008083E2ECF0E0808181608083EAE7F0E056
:1033500080818460808380818260808380818160BD
:1033600080838081806880830895823108F0825153
:10337000E82FF0E0E251FE4FE49180917B00E3FB07
:10338000222720F930E095E0220F331F9A95E1F7CC
:103390008F7D822B80937B00E7708091230120E456
:1033A000829FC0011124E82BE0937C0080917A0079
:1033B000806480937A0080917A0086FDFCCF8091B2
:1033C00078002091790090E0922B089590E0FC0124
:1033D0003197EF30F105B0F5EA5AFF4F0C943421E4
:1033E000809180008F7703C0809180008F7D8093D3
:1033F0008000089580918000877FF9CF84B58F7712
:1034000002C084B58F7D84BD0895809190008F7730
:1034100007C0809190008F7D03C080919000877FCE
:103420008093900008958091C0008F7703C08091B1
:10343000C0008F7D8093C00008958091C200877F77
:103440008093C2000895CF93DF9390E0FC01E75E84
:10345000FD4F2491FC01E85CFD4F8491882349F1E4
:1034600090E0880F991FFC01ED58FD4FA591B49194
:103470008B599D4FFC01C591D4919FB7611108C034
:10348000F8948C91209582238C93888182230AC0A2
:10349000623051F4F8948C91322F309583238C93C1
:1034A0008881822B888304C0F8948C91822B8C9322
:1034B0009FBFDF91CF9108950F931F93CF93DF9319
:1034C0001F92CDB7DEB7282F30E0F901E650FE4F4E
:1034D0008491F901E75EFD4F1491F901E85CFD4F1D
:1034E00004910023C9F0882321F069830E94E61922
:1034F0006981E02FF0E0EE0FFF1FEB59FD4FA59122
:10350000B4919FB7F8948C91611103C010958123F9
:1035100001C0812B8C939FBF0F90DF91CF911F91A2
:103520000F910895CF93DF93282F30E0F901E650F3
:10353000FE4F8491F901E75EFD4FD491F901E85CFB
:10354000FD4FC491CC2391F081110E94E619EC2F1C
:10355000F0E0EE0FFF1FE95AFD4FA591B4912C91B9
:103560002D2381E090E021F480E002C080E090E033
:10357000DF91CF910895CF93DF931F92CDB7DEB740
:103580006983DC01ED91FC910280F381E02D41E043
:1035900050E0BE016F5F7F4F09950F90DF91CF9193
:1035A0000895CF93DF93EC018C859D8597FF05C02F
:1035B00082E00E94EF1C9D878C878C859D85DF9122
:1035C000CF91089583E00C94831FFC018485958539
:1035D00097FD06C082E00E94971C90E00196089536
:1035E00082E00E94971C90E00895FC0184859585F7
:1035F00097FD05C02FEF3FEF35872487089582E0C0
:103600000C94EF1CCF93DF93EC0180912F01882362
:1036100031F083E00E94201D1816190634F081E075
:1036200090E09B838A8380E090E0DF91CF910895C2
:10363000FC0120812E5F208342E450E061E872E0CB
:1036400080E80C94BB1DFC0121818081813A59F4F2
:10365000213209F04BC047E050E068E271E080E0C1
:103660000E94BB1D5EC0813209F040C0233289F444
:10367000838190E0982F88273281832BA0E0B0E0EF
:103680008093240190932501A0932601B0932701F4
:103690000FC0203239F467E070E088E291E00E94C8
:1036A000EC1D09C0223221F4828180932F0103C0D6
:1036B0002D7F2032B1F580919006811103C0E0E0AA
:1036C000F8E002C0EEEFFAE0809128019091290124
:1036D000A0912A01B0912B01803B9440A105B10536
:1036E00011F580912F0180FF03C01DC080E0089577
:1036F000EE3F2AE0F20731F0808191819093FF0A3A
:103700008093FE0A87E797E7918380832BE088E127
:1037100090E00FB6F894A895809360000FBE2093B8
:10372000600081E0089588E10FB6F894809360000E
:10373000109260000FBEA895EE3F8AE0F80739F0BE
:103740008091FE0A9091FF0A91838083EACF1092C4
:10375000FF0A1092FE0AE5CF2FEF3FEFFC013587FD
:1037600024870895CF93C0912F016AE070E080E034
:1037700090E00E94251981E0C11101C080E0CF9145
:103780000895109243061092420688EE93E0A0E05E
:10379000B0E08093440690934506A0934606B0930C
:1037A000470689E991E090934106809340068FEFA8
:1037B0009FEF90934D0680934C060895615030F032
:1037C0002091F100FC0120830196F8CF289A84E62D
:1037D00080939A06089540919506509196062091FF
:1037E00093063091940642175307B4F49091E80081
:1037F0009570E1F39091E80092FD19C08093F1007B
:10380000809195069091960601968F739927892B42
:1038100019F48EEF8093E8008091950690919606BA
:103820000196909396068093950681E0089580E036
:103830000895CF92DF92EF92FF920F931F93CF9351
:10384000DF931F92CDB7DEB7082F162FF42E862FE9
:10385000880F8E5F99830E94EB1B83E00E94EB1B15
:10386000E02EC02E9981D92E8C2D8E19811798F4B7
:10387000F601F7FE02C0849101C080810E94EB1B1B
:10388000082F80E00E94EB1B8023FFEFCF1ADF0A96
:103890008111EACF01C081E00F90DF91CF911F919C
:1038A0000F91FF90EF90DF90CF9008958091D70017
:1038B00081608093D70080EA8093D80089B58061C9
:1038C00089BD89B5826089BD09B400FEFDCF61E084
:1038D00070E080E090E00E9425198091D8008F7CF4
:1038E00080618093D8008091E000807F8093E00029
:1038F0000895CF93DF931F92CDB7DEB71982CE0123
:1039000001960E94181B0E94CB20BE016F5F7F4F63
:103910000E94442089810F90DF91CF9108952FB7A5
:10392000FC012083F89467706093E9000895CF93B9
:10393000DF931F92CDB7DEB7682FCE0101960E94AC
:103940008F1C8091F20099819FBF0F90DF91CF91E2
:103950000895FF920F931F93CF93DF9300D0CDB7BD
:10396000DEB7F62E8A0190919906992311F057FF40
:1039700003C08FEF9FEF2BC0682FCE0101967A8393
:103980000E948F1C8091F20090E0A8017A8180173C
:1039900091070CF4AC01EF2DF72FF40E84E6FE1620
:1039A00039F0289A80939A069091F1009193F7CF7D
:1039B0004115510521F08091F200882321F0898181
:1039C0008FBFCA0104C08BE68093E800F8CF0F9048
:1039D0000F90DF91CF911F910F91FF900895CF939A
:1039E000DF931F92CDB7DEB741E050E0BE016F5FBD
:1039F0007F4F0E94A91C019719F4898190E002C0B1
:103A00008FEF9FEF0F90DF91CF910895CF93DF93CA
:103A10001F92CDB7DEB7682FCE0101960E948F1C92
:103A20009091E800892F807295FF04C09091F20078
:103A300080E4891B99819FBF0F90DF91CF910895FA
:103A40006F927F928F929F92AF92BF92CF92DF92AE
:103A5000EF92FF920F931F93CF93DF931F92CDB7F7
:103A6000DEB7782E7B01C42EB52E8091990688236F
:103A700069F0042F152F8AEFD82E872D8072982E8B
:103A80009AE3A92E872D8074882E11C08FEF9FEFA7
:103A900057C0872D0E94061D682E81110CC0DA9434
:103AA000A9F361E070E080E090E00E942519011523
:103AB000110579F73BC0282F30E0021713070CF4EB
:103AC000602E672DCE0101960E948F1C8091E80028
:103AD00085FF29C0262D30E0021B130B992039F0F9
:103AE0006A948FEF6816B1F01092F100F9CFF701E8
:103AF000862D77FE07C0815058F094919093F10085
:103B00003196F9CF815020F091919093F100FACF46
:103B1000E20EF31E8091E80085FF0FC0011511052C
:103B200011F481100AC089818FBFC1CF5D9A84E6EC
:103B300080939B068C2D9B2D03C0A092E800F3CFB1
:103B40000F90DF91CF911F910F91FF90EF90DF9039
:103B5000CF90BF90AF909F908F907F906F9008957F
:103B60001092E90010929606109295069093940692
:103B7000809393060895CF92DF92FF920F931F9345
:103B8000CF93DF9300D0CDB7DEB7F82E8A016B015B
:103B900001151105B1F0F601F7FE02C0849101C0D4
:103BA000808149835A830E94EB1B01501109FFEF6A
:103BB000CF1ADF0A49815A818111EACF8FEF9FEF37
:103BC00001C0CA010F900F90DF91CF911F910F910B
:103BD000FF90DF90CF900895BF92CF92DF92EF9247
:103BE000FF920F931F93CF93DF936C018B01EB0137
:103BF0003BEFB32E2097C1F07E01C134D1051CF0FC
:103C000020E4E22EF12C8091E80082FFFCCFC80175
:103C10008C1B9D0B6E2D8C0D9D1D0E94DE1BB0928A
:103C2000E800CE19DF09E6CFC801DF91CF911F91DF
:103C30000F91FF90EF90DF90CF90BF9008951F926B
:103C40000F920FB60F921124DF92EF92FF920F9313
:103C50001F932F933F934F935F936F937F938F9314
:103C60009F93AF93BF93EF93FF93CF93DF93CDB722
:103C7000DEB76C97DEBFCDBF1092E9008091E800FF
:103C800083FF23C168E0CE0145960E94DE1B82EFD0
:103C90008093E8003D8937FF05C08091E80080FFF0
:103CA000FCCF03C08EEF8093E800832F807609F06D
:103CB000F0C02E894F89D88C21110CC0303829F4DE
:103CC000809198068093F10002C01092F10010924A
:103CD000F100F4C0842F90E09D29213049F4311186
:103CE000EDC0019709F0EAC0809198068D7F0AC067
:103CF000233059F43111E2C0019709F0DFC08091FF
:103D00009806826080939806D9C0253041F480914E
:103D1000E80080FFFCCF40684093E300CFC026302E
:103D200009F08DC0EB8CFC8C22E0D2122CC080E01C
:103D300090E00E94B01D0E94791C99E08E010F5FF7
:103D40001F4FF801292F11922A95E9F79983DA82FA
:103D500091E09E8390EA98879AEF99872091950643
:103D600030919606275F3F4F3C832B838D83C7019D
:103D70000E94B01D49E050E0B80180E00E94BB1DE8
:103D80000E94791C9BC0C7010E94B01D0E94CB20DD
:103D9000BE016B5E7F4F0E946D20009719F00CF002
:103DA0008DC090C081E0D8120EC08B8D9C8D08977D
:103DB00019F481E0809392068091920681112FC0C0
:103DC00065ED72E031C0E3E0DE127CC08F898823AC
:103DD00049F1823029F440E86DE083EF92E01CC0A5
:103DE000813029F440E86BE087EE92E015C0833023
:103DF00009F068C00E94CB208E010F5F1F4FB801F1
:103E00000E948C20F80101900020E9F73197E01B17
:103E1000F10B40E06E2FC8010E94191C4DC063ECED
:103E200072E002C061E073E06115710509F44AC0F7
:103E3000FB01449150E080E80E94BB1D3FC0273049
:103E400009F440C0283021F481E08093F10036C0AD
:103E50002930A1F53370B1F5E1E3F1E081E021E033
:103E600036E39081992361F08093E9002093EB0081
:103E700091919093EC003093ED008F5F873089F73C
:103E80008EE78093EA001092EA008F89809399066A
:103E900015C08B8D9C8D0E94B01D898D811105C030
:103EA000CE0145960E94231B07C00E94CB20BE0175
:103EB0006B5E7F4F0E94AB20882321F08EEF8093B2
:103EC000E80003C081E28093EB006C960FB6F89493
:103ED000DEBF0FBECDBFDF91CF91FF91EF91BF91BC
:103EE000AF919F918F917F916F915F914F913F9192
:103EF0002F911F910F91FF90EF90DF900F900FBEC9
:103F00000F901F9018958093E9008091F20088230C
:103F100019F08AE38093E80008951F920F920FB67C
:103F20000F9211242F933F934F935F936F937F933F
:103F30008F939F93AF93BF93CF93EF93FF93C091D2
:103F4000E1008091E100837F8093E1008093E100B4
:103F5000C3FF0FC01092E90081E08093EB00109244
:103F6000EC0082E38093ED001092990688E0809344
:103F7000F000C2FF19C083E00E94831F80919B065E
:103F8000882339F080919B06815080939B0688237B
:103F900089F180919A06882339F080919A068150A0
:103FA00080939A06882341F1C4FF10C08091E200FB
:103FB0008E7E81608093E2008091E1008F7E80930D
:103FC000E100809197068E7E806111C0C0FF16C00F
:103FD0008091E2008E7E80618093E2008091E1001A
:103FE0008E7E8093E100809197068E7E8160809323
:103FF000970604C05D98CDCF2898D6CFFF91EF915A
:10400000CF91BF91AF919F918F917F916F915F9170
:104010004F913F912F910F900FBE0F901F901895C9
:104020001092990610929806109297060E94561CBC
:104030008091E1008E7E8093E1008DE08093E2002C
:10404000559A209A5D982898EEEFFFE78591949114
:104050008B3F9C4D19F481E080939006089508955C
:104060000E945F190E942F2081E996E00E94102093
:104070000E94F602C0E0D0E00E9418032097E1F30E
:104080000E940000F9CF0895EF92FF920F931F93C3
:10409000CF93DF937B01FC01C281D38100E010E06C
:1040A000209781F0E881F9810280F381E02DB7014A
:1040B000CE01099597FD08C0080F191F0884D985FE
:1040C000C02DEECFC80102C08FEF9FEFDF91CF91DF
:1040D0001F910F91FF90EF9008950F931F93CF932F
:1040E000DF938B01FC01C281D381209771F0E881BD
:1040F000F9810480F581E02DB801CE010995009782
:1041000031F40884D985C02DF0CF80E090E0DF91B4
:10411000CF911F910F9108950F931F93CF93DF932A
:104120008B01FC01C281D381209771F0E881F98174
:104130000680F781E02DB801CE010995080F111D09
:104140000884D985C02DF0CFF8011082DF91CF917E
:104150001F910F9108950F931F93CF93DF938B01BE
:10416000FC01C281D381209771F0E881F98101902F
:10417000F081E02DB801CE010995811106C00884B7
:10418000D985C02DF0CF80E001C081E0DF91CF91D3
:104190001F910F9108958091A00681110DC082E0BA
:1041A00080939C0684E080939D0610929F06109257
:1041B0009E0681E08093A0068CE996E0089597FB27
:1041C000072E16F4009407D077FD09D00E943A21FB
:1041D00007FC05D03EF4909581959F4F089570950A
:1041E00061957F4F0895A1E21A2EAA1BBB1BFD010A
:1041F0000DC0AA1FBB1FEE1FFF1FA217B307E407C6
:10420000F50720F0A21BB30BE40BF50B661F771F1D
:10421000881F991F1A9469F76095709580959095FD
:104220009B01AC01BD01CF010895052E97FB1EF443
:1042300000940E942C2157FD07D00E94F32007FC18
:1042400003D04EF40C942C21509540953095219537
:104250003F4F4F4F5F4F08959095809570956195B2
:104260007F4F8F4F9F4F0895EE0FFF1F0590F491E2
:10427000E02D0994AA1BBB1B51E107C0AA1FBB1F5D
:10428000A617B70710F0A61BB70B881F991F5A95E2
:10429000A9F780959095BC01CD010895FB01DC0143
:1042A00002C001900D9241505040D8F70895681710
:1042B000790768F4FB01DC01E40FF51FA40FB51FBB
:1042C00002C002900E9241505040D8F708950C94CD
:1042D0004E21F999FECF92BD81BDF89A992780B5FC
:1042E0000895262FF999FECF1FBA92BD81BD20BD3A
:1042F0000FB6F894FA9AF99A0FBE01960895F894B9
:02430000FFCFED
:1043020001010102025005E0098A050F0A5B0567F7
:104312000520053A05CC09580A9406E70A710AFEF7
:1043220009010001FFFFFFFF00E1000000000000A3
:1043320000C1808100000019FF0AFF1405FF00FF81
:10434200140FFF0FFF14FFFFFFFFFFFFFFFFFFFF31
:10435200FFFF0A0A0AFFFFFFFFFFFFFFFFFFFFFF4A
:10436200FFFFFFFFFFFFFFFFFFFFFFFFFFFFFFFF5B
:10437200FFFFFFFFFFFFFFFFFFFFFFFFFFFFFFFF4B
:10438200FFFFFFFFFFFFFFFFFFFFFFFFFFFFFFFF3B
:10439200FF0A050A1900000000BB1A021BE51AF504
:0643A2001AD11AE21A0014
:00000001FF
