:020000040800F2
:1000000000500020752F00080000000000000000D4
:1000100000000000000000000000000000000000E0
:1000200000000000000000000000000000000000D0
:1000300000000000000000000000000000000000C0
:1000400000000000000000000000000000000000B0
:1000500000000000000000000000000000000000A0
:100060000000000000000000000000000000000090
:100070000000000000000000000000000000000080
:100080000000000000000000000000000000000070
:100090000000000000000000000000000000000060
:1000A0000000000000000000000000000000000050
:1000B0000000000000000000000000000000000040
:1000C0000000000000000000000000000000000030
:1000D00000000000552200080000000000000000A1
:1000E0000000000000000000000000000000000010
:1000F0000000000000000000000000000000000000
:1001000000000000000000000000000000000000EF
:1001100000000000000000000000000000000000DF
:1001200000000000000000000000000000000000CF
:1001300000230220054A10B41268054C05491370CB
:1001400053702370088010BC704700BF84000020EB
:100150005C000020800000200023022130B4054A0A
:10016000054D064C286023700370437030BC11802D
:10017000704700BF80000020840000205C00002049
:1001800010B5184B18780D281DD00A281BD0082848
:100190000DD07F280BD01F2805D9134A1349137897
:1001A0005C1C1470C85402F097FB002010BD0E496F
:1001B0000A78002AF7D00820013A18700A7002F075
:1001C0008BFB002010BD094C204605F0D9F9002317
:1001D000054A0A2011781370635402F07DFB012058
:1001E00010BD00BF880000205C000020B800002087
:1001F00080780330704700BF83780333184470471A
:10020000094B1B68B3F900205AB1904202DC08E0A8
:10021000824206DA9A7803321344B3F90020002AA6
:10022000F6D11846704700BF840000202DE9F8433E
:10023000DFF894800746D8F800200D46B2F9003068
:10024000144633B907E0A37803331C44B4F90030F3
:100250000BB19D42F7DC9D4222D0384602F040FAB5
:10026000C6B20EB9BDE8F883DFF86090D8F8003068
:10027000B9F90020F01C1A44121B2146204402F058
:10028000A3FAB9F80030A67003333344A9F800305C
:10029000394632462580E01CBDE8F84302F02CBA0E
:1002A000DFF82890A678B9F9003003361A44A1196E
:1002B000521A204602F088FAB9F80030F6B29E1BB6
:1002C000A9F80060C9E700BF84000020800000207A
:1002D00010B50121002002F0FFFC78B1084C02218A
:1002E000204602F0F9FC074BB4F90010186802F040
:1002F000F3FC0021084602F0EFFC012010BD00BF16
:10030000800000208400002010B54FF0FF31002055
:1003100002F0E2FC88B1094C6FF00101204602F0C6
:10032000DBFC2188064B494209B2186802F0D4FC74
:100330000021084602F0D0FC012010BD8000002002
:10034000840000202DE9F041DFF8AC8082B04FF04E
:10035000FF310020D8F8005002F0BEFC10B902B006
:10036000BDE8F0816FF00101204802F0B5FC204E9D
:100370001E4F24E0316805F0A9F84FF0FF310DF170
:10038000070002F0A9FC9DF807101848494202F046
:10039000A3FC00229DF8073031681448FA5405F098
:1003A00095F8306803F05EF9C4B2AC702246E81CE0
:1003B00031688DF8074002F09FF9033425446FF04F
:1003C0000101284602F088FCB5F900100748002911
:1003D000D0D1084602F080FC0120D8F80020054B5F
:1003E000AD1A02351D8002B0BDE8F081B8000020D2
:1003F000340B00208000002084000020054B064ABA
:100400001868B2F90030054950F823000133138011
:100410000880704798000020A00000200000002005
:1004200047F6FF72014B1A80704700BF00000020A2
:1004300010B5054C206803782BB103F099F92060C2
:100440000378002BF9D110BD400B002010B5064CED
:10045000064B2068D0F801201A80037813B103F00E
:1004600087F9206010BD00BF400B00200000002075
:100470000B4970B50B880B480B4A0C4C0568B2F958
:100480000060013B1BB220680B8045F82360D0F868
:1004900001301380037813B103F06AF9206070BD56
:1004A000A00000209800002000000020400B002049
:1004B00008B5094A3F20137843F00203137005F092
:1004C000CFF8064B1B68987805F0CAF8BDE80840DD
:1004D0003D2005F0C5B800BF300B0020400B0020C8
:1004E0002DE9F04FDFF8F4B183B0DBF8003003F012
:1004F0001F0848F04008A8F14103192B62D8744B3B
:1005000048F4FE48D3F8009099F80070102F7DD081
:1005100099F801A0BAF1000F53D04FF0000C6D4BC9
:10052000DBF80000019300226B4B4FEA601E1F783E
:10053000019B3CB21E68944215DDA3185B1003EBCF
:10054000430136F9115019B2454505DA3DE036F957
:10055000144044453ADB29468B185B10914203EB6B
:1005600043041DB2F3DCD2B202EB420206EB4202BC
:10057000B2F90030434519D1D2F8023019B24A1C01
:1005800014D009EB0C020029927823DBC3F30E038D
:1005900003EB8E0E07EB47070FFA8EFE06EB4706BE
:1005A00046F80E20DBF8000099F801A00CF1010CD0
:1005B0005FFA8CFC2030D445CBF80000B3D399F817
:1005C0000070C7B903B0BDE8F08F214601330C4677
:1005D0001AB2B0E7C3F30E03734407EB47071BB22D
:1005E00006EB4706F2543A4BDBF80000D3F80090D4
:1005F00099F801A0DAE7484603F0BAF8344B81468F
:1006000018600778002FDDD0102F81D10022324BE7
:10061000DBF8004018782F4BD9F801601968651194
:100620000FFA80FC944519DD0CEB02035B1003EB21
:10063000430E31F91EA00FFA83FEC24505DA30E001
:1006400031F91AA0C2452DDBE6460EEB02035B1022
:10065000964503EB430A0FFA83FCF1DCD2B202EBBE
:10066000420201EB4203B3F90020424515D1D3F811
:1006700002301AB2B2F1FF3F0FD0002A16DBC3F3EB
:100680000E0303EB850300EB40001BB201EB4001BE
:10069000CE50DBF8004099F800702034CBF80040D1
:1006A0008FE7E6460133F4461AB2BBE7C3F30E0305
:1006B0002B4400EB40001BB201EB4001CE54044B35
:1006C000DBF80040D3F8009099F80070E5E700BF30
:1006D000400B00209C000020A2000020A40000206D
:1006E0002DE9F04F574C584B206883B0457805F002
:1006F0001F021A60037845F4FE45002B79D10426C9
:100700003146D0F801A0514F002297F800C0DFF821
:1007100040910FFA8CFEF046D9F80000904517DDA5
:1007200008EB02035B1003EB430430F914B01CB276
:10073000AB4505DA53E030F91880A84550DB5C463C
:10074000A3185B10A24203EB43080FFA83FBF2DB12
:10075000D2B202EB420230F91230AB423CD0012956
:100760000CBF4FF4004300230021DFF8E880B8F904
:100770000020134301938E4517DD0EEB01035B1040
:1007800003EB430430F914B01CB2AB4505DA2BE09F
:1007900030F91EE0AE4528DB5C4663185B10A142D1
:1007A00003EB430E0FFA83FBF2DBCBB203EB430404
:1007B00064000119B1F900E0AE4506D09C4527D888
:1007C0000CF1010C0D8087F800C00AFB0626019B86
:1007D000A8F80060C1F8023003B0BDE8F08F4446CD
:1007E0000133A0461AB299E774460133A64619B2FE
:1007F000C1E702F0BDFF20600278D0F801A022B16D
:1008000002F0B6FF20600378ABB9042631467AE7E0
:10081000ACEB030303EB430304F1060E02EB4302CC
:10082000704401F0D1FFD9F8001097F800C0B8F972
:1008300000202144C4E702F09BFF012620603146DE
:1008400061E700BF400B0020A4000020A2000020B0
:100850009C00002096000020002330B40649074A7F
:1008600007480D88074C12680749037025800B80E4
:1008700030BC137053707047940000209C0000201F
:10088000A2000020A000002096000020044A054B92
:1008900010781B8800EB400003EB400000B270476B
:1008A000A2000020960000200023F0B4084A89101E
:1008B0001180084F084E094D094C0A4A38603060D3
:1008C000298023701380F0BC03704370704700BF11
:1008D000940000209C00002098000020A000002030
:1008E000A20000209600002002784378012A05D952
:1008F0008078C0EBC010184400B2704718B270473F
:1009000040F4FE40704700BF002170B4114A124B02
:1009100014781E68A14215DA63185B1003EB4302DA
:1009200036F912501AB2854205DA0EE036F9144053
:1009300084420BDB2A4653185B10914203EB4304BD
:100940001DB2F3DBC8B270BC7047224601331446B7
:1009500019B2DFE7A20000209C000020002170B443
:10096000174A184B14781E688C4215DD63185B100B
:1009700003EB430236F912501AB2854205DA19E048
:1009800036F91440844216DB2A4653185B10914214
:1009900003EB43041DB2F3DBCBB203EB430306EBE3
:1009A0004303B3F9002070BC82420CBFD3F80200AD
:1009B0000020704722460133144619B2D4E700BF25
:1009C000A20000209C000020002170B4194A1A4B9C
:1009D00014781E6840F4FE408C4215DD63185B10ED
:1009E00003EB430236F912501AB2854205DA1BE0D6
:1009F00036F91440844218DB2A4653185B109142A2
:100A000003EB43041DB2F3DBCBB203EB430306EB72
:100A10004303B3F9002070BC824214BF4FF0FF3093
:100A2000D3F8020000B2704722460133144619B2CF
:100A3000D2E700BFA20000209C0000202DE9F04179
:100A40000F460021274D284E95F800E004463068F7
:100A50000FFA8EFC8C4517DD0CEB01035B1003EBEA
:100A6000430230F912801AB2A04505DA21E030F9CC
:100A70001CC0A4451EDB424653185B10914203EB99
:100A8000430C0FFA83F8F2DBCBB203EB43084FEAD7
:100A9000480800EB0801B1F90020A24205D09E45AC
:100AA0000CD80EF101030C802B70C1F80270BDE868
:100AB000F08162460133944619B2CBE70B4AAEEBA4
:100AC0000303B2F9002008F1060E03EB4303704460
:100AD00002EB430201F078FE316895F800E04144F2
:100AE000DFE700BFA20000209C000020960000204D
:100AF00070B406460020104A104BB2F900101D6871
:100B0000814211DD0B185B1035F923401AB2B44253
:100B100005DA0BE035F92340B44208DB0A46131826
:100B20005B10904219B2F5DB70BC70470A46013386
:100B3000114618B2E4E700BF8C00002090000020AE
:100B40000021174A174B70B4B2F900401E688C425E
:100B500011DD63185B1036F923501AB2854205DAAD
:100B600016E036F92350854213DB224653185B10FA
:100B700091421CB2F5DB06EB8103B3F900208242FF
:100B80000BD170BC084AB3F90200136818447047CF
:100B900022460133144619B2D9E7002070BC7047D1
:100BA0008C00002090000020840000202DE9F041FE
:100BB000224D0446B5F900C04FF0000E6046204EAD
:100BC0000F463168704513DD00EB0E035B1031F901
:100BD00023801AB2A04505DA19E031F92380A04537
:100BE00016DB024602EB0E035B10964518B2F4DBEF
:100BF000F44512DC4FEA8E080CF1010C01EB0803FE
:100C000021F80840A5F800C05F80BDE8F0810246E9
:100C1000013310460FFA83FED4E70EF10100800085
:100C2000ACEB0E02A0F1040892000844414401F02C
:100C3000CBFD3168B5F900C0DEE700BF8C000020B5
:100C4000900000205D495E4BB1F9002030B51D6871
:100C5000531C1BB221380B8055F822405D2835D833
:100C6000DFE800F03A34413449523434345B6234C2
:100C700068346E3434343434343434343434347585
:100C80007E87343434343434343434343434343487
:100C90003434343434343434343434343434343414
:100CA000342F343434343434343434343434343409
:100CB0003434343434343434343434343434909933
:100CC000A03555F82320544045F8234030BD6442F8
:100CD0000A8045F8224030BDB4FA84F464090A80E1
:100CE00045F8224030BD55F82320141B18BF0124BD
:100CF00045F8234030BD55F8231091FBF4F204FB76
:100D0000121445F8234030BD55F8232012B1221C9F
:100D100018BF012245F8232030BD55F8232004FBDD
:100D200002F445F8234030BD55F82320144445F81B
:100D3000234030BD55F82320141B45F8234030BD17
:100D400055F8232092FBF4F445F8234030BD55F8C4
:100D500023209442D4BF0024012445F8234030BD11
:100D600055F82320141BB4FA84F4640945F8234091
:100D700030BD55F823209442ACBF0024012445F82F
:100D8000234030BD55F823209442B4BF00240124F1
:100D900045F8234030BD55F8232062B9003418BF10
:100DA000012491E755F823209442CCBF002401246C
:100DB00045F8234030BD012486E700BFA000002095
:100DC0009800002070B504F067FD40F2FF129042D9
:100DD0001CD0C92843D040F2D31290420CD001F06D
:100DE000A3FE041E22DA0021234A244BB2F900207C
:100DF0001B6843F8221070BD1F4B204AB3F9001046
:100E0000126852F82130002B25DB70BD1B4B1A4AAB
:100E10001B68B2F900201A4933F922000C7843F814
:100E200022400028F1D000230B7070BD124D134EEC
:100E3000B5F900103368E0B203EB810101F0E8FE80
:100E4000104A2B88115D013B32680B441BB22B808A
:100E500042F8230070BD5B4242F8213070BD074A62
:100E6000054B1468B3F9005054F8250001F0E2FD79
:100E700044F8250070BD00BFA000002098000020AD
:100E800088000020500000200021F0B42C4A2D4B97
:100E900017781E6840F4FE403CB28C4215DD6318A2
:100EA0005B1003EB430236F912501AB2854205DAA1
:100EB00036E036F91440844233DB2A4653185B107F
:100EC000914203EB43041DB2F3DBCBB203EB4303CC
:100ED00006EB4303B3F90020824226D1D3F8022067
:100EE00013B2591C21D0002BACBF042301231D4693
:100EF000154916480968B0F90000C2F30E0251F80E
:100F0000204007EB470704FB03231BB203EB470317
:100F1000012D14BFF358F35CF0BC41F8203070474A
:100F200022460133144619B2B7E70021F0BC074A44
:100F3000054BB2F900201B6843F82210704700BF30
:100F4000A20000209C00002098000020A0000020AB
:100F50002DE9F84F4D4E4E4F3068DFF83C91DFF8E9
:100F60003C810378332B20D8DFE803F0211F1F1FBB
:100F70001F1F1F1F1F1F1F1F1F1F1F1F7E1F1F1F22
:100F80001F1F1F1F1F1F1F1F1F1F1F1F1F1F2B780C
:100F90001F1F1F1F1F1F1F1F1F1F1F1F721F211A11
:100FA0004078FFF771FF30680378002B4CD1B9F916
:100FB000003039685A1C51F82300A9F80020BDE818
:100FC000F88FB9F80050D7F800E0013D2DB2A9F82C
:100FD000005043788178012B03D9C378C3EBC31346
:100FE000194400222B4B98F800A01C6809B29245C6
:100FF00019DD0AEB02035B1003EB430C34F91CB060
:101000000FFA83FC8B4505DA3BE034F91AA08A45D8
:1010100038DBDC460CEB02035B10624503EB430A52
:101020000FFA83FBF1DBD2B202EB420204EB420285
:10103000B2F900308B4214BF0023D2F802304EF8D0
:1010400025300378002BB2D002F092FB306088E7A5
:101050004078FFF7F7FD30680378A6E70130FFF727
:10106000B1FE30680378A0E7B9F80030D0F801107D
:101070003A68013B1BB2A9F8003042F8231003780C
:1010800093E7D4460133E2461AB2B0E7400B0020A2
:10109000980000209C000020A0000020A20000205A
:1010A0002DE9F843304D286843788478012B03D923
:1010B000C378C3EBC3131C44037824B213B102F00A
:1010C00057FB2860FFF744FF0021284D284E95F874
:1010D0000090074630680FFA89FE8E4517DD0EEB4B
:1010E00001035B1003EB430230F912C01AB2A445AE
:1010F00005DA21E030F91EE0A6451EDB62465318F2
:101100005B10914203EB430E0FFA83FCF2DBCBB290
:1011100003EB43084FEA480800EB0801B1F900204F
:10112000A24205D099450CD809F101030C802B701F
:10113000C1F80270BDE8F88372460133964619B2D1
:10114000CBE70C4AA9EB0303B2F9002003EB4303FE
:1011500008F1060E02EB4302704401F035FB3168E2
:1011600095F800904144DFE7400B0020A2000020EA
:101170009C0000209600002010B50F4C23681A78C0
:10118000581C322A12D0402A0BD032B1FFF7E0FEB1
:1011900004F086FA23681A7842B9BDE8104004F0DA
:1011A0000BBB04F06BFA23681A78F5E7184602F0D7
:1011B000DFFA03462060E2E7400B002010B5094C3F
:1011C000206803784BB1322B08D0FFF7C1FEC0B2C4
:1011D00004F046FA2068037803B910BD02F0C8FA9B
:1011E0002060EEE7400B002010B5FFF7B1FE094C80
:1011F00048B92068037863B102F0BAFA2060037836
:10120000002BF9D110BD2068037813B102F0B0FAB9
:10121000206010BD400B0020F8B5304E30680378D8
:101220004578002B55D1FFF793FE044630680378CC
:1012300013B102F09DFA3060FFF78AFE0021284AC0
:10124000284B17781E6845F4FE450FFA87FE8E4539
:1012500017DD0EEB01035B1003EB430236F912C0FE
:101260001AB2AC4505DA2FE036F91EE0AE452CDBAC
:10127000624653185B108A4203EB430E0FFA83FC5D
:10128000F2DCCBB203EB430306EB4303B3F90020DC
:10129000AA4218D1D3F802301AB2511C13D0002A36
:1012A000C3F30E0308DB03EB840407EB470724B208
:1012B00006EB47063051F8BD234407EB47071BB246
:1012C00006EB4706F054F8BD72460133964619B254
:1012D000BDE702F04DFA3060A5E700BF400B0020EB
:1012E000A20000209C00002010B5FFF731FE04464C
:1012F000012001F09FFB044A044913784C6043F03D
:1013000001031370086010BD300B00206000002046
:10131000F0B50025244C254B27781E6840F4FE408C
:101320000FFA87FEAE4517DD0EEB05035B1003EBEE
:10133000430436F914C01CB2844505DA27E036F9B7
:101340001EE0864524DB644663195B10AC4203EB68
:10135000430E0FFA83FCF2DCEBB203EB430306EB24
:101360004303B3F90040844210D1D3F8023018B2DD
:10137000441C0BD00028C3F30E030DDB03EB8101EB
:1013800007EB470709B206EB47067250F0BD7446FB
:101390000133A6461DB2C5E70B4407EB47071BB256
:1013A00006EB4706F254F0BDA20000209C0000208E
:1013B00010B50446012001F03DFB024B83E811000B
:1013C00010BD00BF6000002008B5012001F032FB15
:1013D000044A13685268C01A9042D4BF002001200A
:1013E00008BD00BF6000002008B5012001F022FB0D
:1013F000054A13685268C01A904204DD034A137804
:1014000023F00103137008BD60000020300B0020A2
:101410002DE9F843394B1B780BB9BDE8F883FEF78B
:10142000AFFE0028F9D0364D2B685A789C78012AF7
:1014300003D9DB78C3EBC3131C44324804F062F9D0
:101440000021314E314F96F800C08046386824B2F2
:101450000FFA8CFE8E4517DD0EEB01035B1003EBDC
:10146000430230F912901AB2A14505DA29E030F9A9
:101470001EE0A64526DB4A4653185B10914203EB5B
:10148000430E0FFA83F9F2DBCBB203EB43094FEAC9
:10149000490900EB0901B1F90020A24205D09C45A1
:1014A00018D80CF101030C8033702868C1F8028051
:1014B00003785BB9164A137823F002031370BDE872
:1014C000F88372460133964619B2C3E702F050F929
:1014D0002860EFE70F4AACEB0303B2F9002003EBFF
:1014E000430309F1060E02EB4302704401F06CF96C
:1014F000396896F800C04944D3E700BF880000204F
:10150000400B0020B8000020A20000209C0000201A
:10151000300B0020960000202DE9F04F214B224D8A
:101520001E5C2B88B2B29B1A83B01BB2804601921C
:101530002B80A6B34FF0000BDFF870A0DFF870909F
:1015400005E05FFA8BF39E42B5F9003019D903EB41
:101550000B04DAF80070FFF7FBFCD9F8003047F80D
:1015600024001A780BF1010B002AEAD0184602F089
:10157000FFF85FFA8BF39E42C9F80000B5F900301E
:10158000E5D8DAF80010404601EB830101F0ECFAEF
:101590002B88019A1A442A8003B0BDE8F08FDFF847
:1015A0000CA0EEE758000020A000002098000020CA
:1015B000400B00202DE9F04F304C83B020600378C1
:1015C000002B57D006462E4D2E4F0CE02E4B03EB32
:1015D0008808D8F8043098477378022B4AD02668D8
:1015E0003378002B46D0304602F0C2F8206096F8DF
:1015F0000180B8F13F0FE9D9A8F14008234A5FFA0A
:1016000088F3D65C01932B881FFA86F9A3EB0903B4
:101610001BB22B8006B34FF0000A05E05FFA8AF395
:10162000B342B5F9003017D203EB0A0BD7F80080AC
:10163000FFF78EFC236848F82B0019780AF1010A9D
:101640000029EBD0184602F093F85FFA8AF3B34210
:101650002060B5F90030E7D33968019801EB8301C8
:1016600001F082FA2B8826689944A5F80090337817
:10167000002BB8D103B0BDE8F08F00BF400B0020B5
:10168000A00000209800002000000020580000204A
:10169000002208B50521104601F0E6F9BDE8084032
:1016A00004F08AB810B5054C2378DA0602D5FEF7A7
:1016B0002BFE237823F03303237010BD300B002062
:1016C000F8B5194EB6F90000FEF79AFDB0F90030F2
:1016D0009BB9164C2378DA060BD4002223F033038F
:1016E00010460521237001F0BFF904F065F80120D0
:1016F000F8BDFEF709FE2378EFE7054600240C4FFE
:101700000133AA78E91C338038460A4E00F0F4FF12
:10171000AB7838463168FC5403F0D8FE3068FFF7E8
:1017200049FF2046F8BD00BF00000020300B00201C
:10173000B8000020340B0020F8B50E4C2378DA06F0
:1017400002D5FEF7E1FD237800250B4A0B4FB2F8D6
:1017500000E00B4E23F033032A4628460421237071
:10176000A7F800E0B56001F07FF9BDE8F84004F0AB
:1017700023B800BF300B002094000020A000002000
:1017800060000020F8B550BB244D254EAB68581CB6
:1017900018BF03F1FF33B6F9000018BFAB60FEF7C6
:1017A0002FFDB0F900300446E3B91E4C2378D9066A
:1017B00002D5FEF7A9FD2378002223F0330310465B
:1017C0000521237001F050F903F0F6FF0023AB6010
:1017D0002378DA061ED423F033032370F8BD0F4BB1
:1017E0009860F8BD104F0133A278E11C3846338071
:1017F00000F082FF00220D4EA37838463168FA547B
:1018000003F064FE3068FFF7D5FEAB68002BE5D12E
:10181000044CDDE7FEF778FD2378DCE7600000206C
:1018200000000020300B0020B8000020340B002006
:10183000F8B501230B4A184613800025FEF7E0FC9B
:10184000094A0A4B0A491468B3F900200B7822446C
:10185000084F094E094C43F010030B70F8603260DA
:101860002580F8BD000000208400002080000020BA
:10187000300B002060000020900000208C00002031
:101880002DE9F041554FFB68B3F9002022B1DFF894
:101890006081B8F9002092B9514C2378DA0602D55C
:1018A000FEF732FD2378002223F033031046052192
:1018B000237001F0D9F8BDE8F04103F07DBF9A78BC
:1018C000D81C03329C189B5C627843EA0223A8F878
:1018D0000030FFF76FFEB4F90030B8F90000834222
:1018E0002ED000213F4D404EB5F90040D6F800C043
:1018F0008C4211DD63185B103CF923E01AB2864577
:1019000005DA18E03CF923E0864515DB224653183A
:101910005B1091421CB2F5DB0CEB8103B3F90020A4
:10192000824210D1314CB3F9023022681344FB607B
:1019300063B1BDE8F08122460133144619B2D7E7FE
:10194000FC60BDE8F0810023284CFB60FEF758FCEA
:101950002468B5F900C0041BF8604FF0000E604623
:10196000B8F90070316824B2704513DD00EB0E0346
:101970005B1031F923801AB2B84505DA18E031F965
:101980002380B84515DB024602EB0E035B1096453B
:1019900018B2F4DBF44511DC63464FEA8E080133DC
:1019A00001EB080221F808702B805480BDE8F0811B
:1019B0000246013310460FFA83FED5E70EF101000F
:1019C0008000ACEB0E02A0F10408920008444144F0
:1019D00000F0FAFE3168B5F90030E0E76000002061
:1019E000300B00208C00002090000020840000209C
:1019F0000000002008B501F0FDFD03782D2B03D079
:101A0000212B01D0002008BD02F0F2F9054B1B6824
:101A10005A782D2A01D0012008BD7E225A7001205B
:101A200008BD00BF3C0B002010B502F00BF838B128
:101A300001F0E0FD0378282B1DD02B24204610BD9B
:101A400001F03CFF58B101F0D5FD0378282B28D0D8
:101A500022222B24174B20461B681A7010BD01F060
:101A6000C9FD0478282C19D001F0C4FD03782D2B72
:101A700009D0212B07D0652401F0BCFD092101F01C
:101A800065FE204610BD02F0B3F90A4B1B685A7878
:101A90002D2A01D17E225A703124CFE702F0A8F915
:101AA000CCE72322034B01201B6866241A7001F047
:101AB00095FEC3E73C0B002008B501F09BFD0078C4
:101AC00090B13B2810D0292810D02C280ED05E28A9
:101AD00006D0A0F12503DBB2192B08D97C280BD145
:101AE00002F086F9312008BD732008BD08BD064A02
:101AF00022FA03F3DB07F3D401F07CFD092101F0A6
:101B000025FE652008BD00BF6305800310B560B1E8
:101B10000C4602F06DF934B13122074B2B201B68C3
:101B20005C701A7010BD2B2010BD01F063FD0921FF
:101B300001F00CFE652010BD3C0B002008B518B16B
:101B400002F056F9312008BD01F054FD092101F0E1
:101B5000FDFD652008BD00BF2138C0B25D289ABFD9
:101B6000024B18564FF0FF30704700BF385900083D
:101B700021281DBF7E38B0FA80F04009012070474F
:101B800028280CD00346302210B5064C206843703C
:101B9000027001F0EDFD01232060184610BD002306
:101BA00018467047400B00200378012B00F0058198
:101BB0002DE9F04F804685B006464FF0FF34824F46
:101BC000DFF808920DE0302B35D0232B75D0312B68
:101BD00000F08480304601F0CBFD03780646012BEF
:101BE00012D0222B01D0102BEDD13146386801F0F4
:101BF00077FD386801F0BCFD3860304601F0B8FD73
:101C000003780646012BECD1002C11DB30266E4DFB
:101C100004AB234413F8103C013C282B64B205D0DC
:101C200028680670437001F0A3FD2860631CEFD1A3
:101C300005B0BDE8F08F7578282D37D0292D00F03C
:101C400083802C2D00F0A180A5F12103DBB25D2B58
:101C500071D94FF0FF0A002C28DB04AB234413F8A2
:101C6000102CA2F12103DBB25D2B1FD819F9033030
:101C70009A451BDC4FF0300B013C282A64B206D099
:101C8000386880F800B0427001F072FD386004AB33
:101C9000621C23440AD013F8102CA2F12103DBB2FA
:101CA0005D2B03D819F903305345E5DA013464B2EA
:101CB00004AB234403F8105C8CE72820E4B2631CD7
:101CC000023404AA5BB264B204A913442144A6EB13
:101CD000080203F8102C01F8100C7BE704AB234436
:101CE00013F8102CE4B2651E282A6DB266D04FF0AE
:101CF000300A3868427080F800A001F039FD04AB6A
:101D0000ECB21D4415F8102C631E5BB2282A386013
:101D10001D46EFD104AA134413F8101C023C4144A1
:101D200001F0DEFC386864B24378012B38D001F052
:101D30001FFD38604EE7212D19F803A035D10AF1B7
:101D4000010A5FFA8AFA86E704AB234413F8103CD1
:101D5000013C282B4FFA84FB33D04FF0300A38680F
:101D600000E0A346437080F800A001F001FD04AB41
:101D70005B4413F8103C0BF1FF34282B386064B23D
:101D8000EFD12C2D08BF5C4624E704AB234413F8A5
:101D9000103C04F1FF3B282B4FFA8BFBDDD119E7F8
:101DA0003322837802704370C1E77E2D7FF453AFF6
:101DB0000AF1010A5FFA8AFA4DE770472B46386844
:101DC000A8E75C4606E700BF400B00203859000832
:101DD00070B5012605460A4CA8B0236801461A1AB8
:101DE00032441E70684600F087FC68462560FFF7A5
:101DF000DBFE00222168034B0E701A6028B070BD14
:101E0000400B00203C0B00202DE9F0474FF000096B
:101E10008C4CACB08DF80090256801F0EBFB067897
:101E2000002E00F0008131200746874EDFF81C822B
:101E300028383E28FDD801A353F820F0D11F000810
:101E4000ED1F0008331E0008991F0008791F0008C5
:101E5000331E0008331E0008331E0008331E00081E
:101E6000431F0008331E0008331E0008331E0008FD
:101E7000331E0008331E0008331E0008331E0008FE
:101E8000331E0008331E0008331E0008331E0008EE
:101E9000331E0008331E0008331E0008331E0008DE
:101EA000331E0008331E0008331E0008331E0008CE
:101EB000331E0008331E0008331E0008331E0008BE
:101EC000331E0008331E0008331E0008331E0008AE
:101ED000331E0008331E0008331E0008331E00089E
:101EE000331E0008331E0008331E0008331E00088E
:101EF000331E0008331E0008331E0008331E00087E
:101F0000331E0008331E0008331E0008331E00086D
:101F1000331E0008331E0008331E0008331E00085D
:101F2000331E0008331E0008331E0008331E00084D
:101F3000391F0008E71F0008002630462CB0BDE816
:101F4000F087FFF771FD73287FF472AF01262368D5
:101F500029465A1B32441E7004A800F0CDFB04A889
:101F60002560FFF721FE002230462168364B0E70B7
:101F70001A602CB0BDE8F0872CAB03EB090212F815
:101F8000B03C591C02F8B01CF3B901F033FB092135
:101F900001F0DCFB65204BE701F02CFB007800280A
:101FA000D4D03B28D2D029283FF442AF2C283FF48C
:101FB0003FAF5E2808D0A0F12503DBB2192B3DD836
:101FC00028FA03F3DB07E0D501F012FF31202FE7F9
:101FD000002209F101095FFA89F92CAB4B4403F89F
:101FE000B02C312024E701229144F4E7B9F1000F2D
:101FF00012D02CAB4B4413F8B0AC01F0F9FEBAF19F
:10200000000F19D02B2033681F7083F801A009F14D
:10201000FF395FFA89F90BE701F0ECFA092101F0C9
:1020200095FB6520F3E701F0E5FA0A2101F08EFB4C
:1020300030462CB0BDE8F0872B20E8E77C28C3D0E1
:10204000A3E700BF400B00203C0B0020630580038A
:1020500062B67047012143099B0003F1604303F519
:1020600061431A6800F01F0001FA00F01043186085
:10207000704700BF082970B434BF002604260F251E
:1020800001F00701345889008D4042EA830324EAB5
:10209000050403FA01F12143315070BC704700BFC1
:1020A0000AB91031C9B20122036902FA01F11943D8
:1020B000016170470123826803FA01F1114214BFE4
:1020C00018460020704700BF174A10B4136817491C
:1020D000174C23F0800313600A68216802F0800225
:1020E00021F07043002A43F0804314BF01200020F8
:1020F00023600DD10F4C104923680A6823F0F003C8
:1021000043F0900322F0040223600A6010BC704781
:10211000094A21F07F41136841F0924143F00403E2
:102120002160136010BC70470C0C0140080C01408A
:10213000000C014004080140040001402E4B70B423
:102140001A682E4D42F008021A601A682C4C42F0B0
:1021500001021A602A68216822F08002294E2A6052
:10216000356821F0704242F0804222602A0638D45D
:10217000254D264C2968226821F004012960196840
:1021800022F0F00221F0080142F090021960226072
:102190000024194A1E4913681E4D43F480431360FE
:1021A0000B681D499B040A6844BF00EBD0704010C7
:1021B0001A4B104308601A68194842F400521A601A
:1021C0001A68184942F00C021A601A6842F020029C
:1021D0001A602C7004700B6870BC43F020030B6015
:1021E0007047094A21F07F41136841F0924143F062
:1021F000040321601360CBE7181002400C0C01406F
:10220000000C0140080C014004000140040801409A
:1022100004100240A8000020083801400C3801409A
:10222000A900002004E100E00749084A0B78127871
:102230009A4206D006485A1CC05C02F007030B7095
:1022400070474FF0FF307047A8000020A900002021
:10225000AC00002030B40849084B0A7808481D78C3
:102260000078531C03F00703064C984218BF0B700C
:10227000A55430BC704700BFA900002004380140BD
:10228000A8000020AC000020054A1368190603D4FA
:1022900000BF13681B06FBD5024B1860704700BFD8
:1022A0000038014004380140017869B110B4074A90
:1022B000074C00E000BF13681B06FBD5216010F837
:1022C000011F0029F7D110BC704700BF0038014042
:1022D00004380140002916DDF0B44B1E0A4F0B4AAA
:1022E0000B4E990040FA01F3156803F00F03FC5CF4
:1022F0002B0603D400BF13681D06FBD504390B1D44
:102300003460EFD1F0BC70473C0000200038014041
:1023100004380140002870B440F3A1805B4AC31721
:1023200082FB0012C3EBA202D5B2C5EB4514C5EB8C
:102330008404574900EB44040C70002A00F0948098
:10234000544A82FB0042C3EB6212D4B2C4EB44167F
:10235000C4EB860605EB46054D70002A00F086802A
:102360004D4A82FB0052C3EBA212D5B2C5EB451613
:10237000C5EB860604EB46048C70002A78D0474AE9
:1023800082FB0042C3EB2232D4B2C4EB4416C4EB4E
:10239000860605EB4605CD70002A6BD0404A82FBCD
:1023A0000052C3EB6232D5B2C5EB4516C5EB8606CB
:1023B00004EB46040C71002A5ED03A4A82FB0042CC
:1023C000C3EBA242D4B2C4EB4416C4EB860605EBC1
:1023D00046054D71002A51D0334A82FB0052C3EBAF
:1023E000A252D5B2C5EB4516C5EB860604EB4604F2
:1023F0008C71002A44D02D4C84FB0024C3EB646410
:10240000E2B2C2EB4216C2EB860605EB4605CD7181
:10241000002C37D0264C84FB0040C3EB2070C4B2A4
:10242000C4EB4413C4EB830302EB43020A7258B3B8
:102430000A234C72013B1F4D1F4A204CC8181368D9
:1024400010F801191E0601F1300103D400BF136812
:102450001B06FBD5A8422160F1D170BC7047002259
:102460000B4901230A70E5E70123E3E70223E1E7D3
:102470000323DFE70423DDE70523DBE70623D9E7B2
:102480000723D7E70823D5E70923D3E767666666FE
:10249000700000201F85EB51D34D6210AD8BDB68BF
:1024A00089B5F81483DE1B436BCA5F6B893BE65525
:1024B000A12FB8446F0000200038014004380140CB
:1024C000F0B4002001270C490C4B0A680C4E42F472
:1024D00000720A601A680B4C22F440421A601A68B3
:1024E000094DA1F56B41EC3942F480421A60376026
:1024F00025600860F0BC70471810024004100240CC
:102500000824014010240140244992001D4A00285B
:102510001368B8BF033023F0807313601368801012
:102520009901A0F1020003D500BF13689B01FBD401
:10253000154900F00F039B040B600B68114A43F42C
:1025400000530B600B6843F480630B60136843F027
:10255000807313601368990103D400BF13689B0153
:10256000FBD5094A136843F0020313601368C3F3F1
:102570008103022B05D000BF1368C3F38103022B34
:10258000F9D170470010024004100240044A136859
:10259000990603D400BF13689B06FBD5704700BFA4
:1025A0000428004025482649036870B443F0C0530E
:1025B00003600B68234A43F480730B60136843F095
:1025C000010313601368990703D400BF13689B07C6
:1025D000FBD51D491D4A0B6843F402430B60136889
:1025E0001E0703D400BF13681D07FBD5174A1368E5
:1025F0009C0603D400BF13689806FBD5002128264B
:10260000124A134D1368134C134843F01003136020
:102610002E6021600160136823F0100313601368BB
:10262000990603D400BF13689B06FBD5044A70BC0F
:10263000136823F480731360704700BF1C100240BE
:102640000070004024100240201002400428004086
:102650000C280040182800401C2800401E4A002872
:102660001368B8BF033023F08073136013688010C1
:102670009901A0F1020003D500BF13689B01FBD4B0
:10268000164900F00F039B040B600B68124A43F4D9
:1026900000530B600B6843F480630B60136843F0D6
:1026A000807313601368990103D400BF13689B0102
:1026B000FBD50A4A136843F0020313601368C3F39F
:1026C0008103022B05D000BF1368C3F38103022BE3
:1026D000F9D1FFF767BF00BF0010024004100240AD
:1026E00003783BB10346002013F8012F0130002A84
:1026F000FAD1704718467047002A47DD031DF0B530
:102700000D1DA84238BF99422CBF01230023092A7E
:1027100094BF002303F001036BB341EA00039B075E
:1027200029D1131F541E9B080133022C4FEA830644
:102730001BD9864600250F1F57F804CF01359D424F
:102740004EF804CBF8D3B2423144A4EB060400EBBC
:10275000060319D00A78002C1A700BDD4A78012C78
:102760005A7012DD8A789A70F0BD03460A78002C00
:102770001A70F3DCF0BD0A44431E11F8014B91427C
:1027800003F8014FF9D1F0BDF0BDF0BD704700BFB7
:10279000002A14DD70B403780E78451C9B1B01F1F0
:1027A00001040ED1114405E015F8010B14F8013BAA
:1027B000C01A02D1A142F7D1002070BC704700209E
:1027C00070471846F9E700BF8842F0B536D2002AB4
:1027D00040DD031D0C1DA04238BF99422CBF0123D0
:1027E0000023092A94BF002303F001039BB340EAAE
:1027F00001039B072FD107460025131F9B080133B8
:102800009C000E1F56F804EF01359D4247F804EB7B
:10281000F8D3A24200EB040501EB04061AD011F82C
:102820002370611C8A4200F8237013DD7378023430
:10283000A2426B7018DDB378AB70F0BD002A114472
:1028400000EB020306DD8A1A11F8014D914203F8EC
:10285000014DF9D1F0BD0A44431E11F8014B9142DC
:1028600003F8014FF9D1F0BDF0BD00BF0A280CD02C
:10287000082816D0164A1368190603D400BF136837
:102880001B06FBD5134B18607047114A13681906D5
:1028900003D400BF13681B06FBD50D220D4B1A6035
:1028A000E8E70B4A1368190603D400BF13681B0638
:1028B000FBD50821074B064A19601368190603D493
:1028C00000BF13681B06FBD52022024B1A60D1E71C
:1028D00000380140043801400A280CD0082816D0DE
:1028E000164A1368190603D400BF13681B06FBD5EC
:1028F000134B18607047114A1368190603D400BFC0
:1029000013681B06FBD50D220D4B1A60E8E70B4A36
:102910001368190603D400BF13681B06FBD50821F2
:10292000074B064A19601368190603D400BF1368E1
:102930001B06FBD52022024B1A60D1E7003801406C
:1029400004380140104A114B0F21072898BF134645
:1029500070B4012500F007041A68A400A1400C4ED1
:102960000C4C22EA01010C4A1960306025601368A2
:10297000990703D400BF13689B07FBD5074B70BCB6
:102980001868C0F30B0070470008014004080140BC
:102990003424014008240140002401404C2401401B
:1029A0000123044A03FA00F01368184214BF0120FF
:1029B0000020704708080140002970B41A4B1B4CD6
:1029C0001ADB072898BF1C460F26012500F00703D5
:1029D00022689B009E4022EA060205FA03F31A438E
:1029E000226009B91030C0B20123114A8340106837
:1029F0001843106070BC70474A1C14BF082504259A
:102A0000072898BF1C460F2600F0070322689B008A
:102A10009E4022EA060205FA03F31A4322604C1C88
:102A2000E8D00231DED1DFE70008014004080140B0
:102A3000100801400A4A0B4B116830B41D68136836
:102A40008CB29AB2944206BFABB243EA01431B0474
:102A50000128C8BF93FBF0F030BCD8BF18467047C0
:102A6000182800401C280040F0B4002833D001286A
:102A700018D11A4B39B113F8010B0A28FBD10139CF
:102A800011F0FF01F7D1164C164D0827202602E061
:102A900052B11170013213F8011B0A29F8D10AB1A1
:102AA00000231370F0BC7047082901D106E000BF75
:102AB00020680006FBD52960EDE700BF206800060E
:102AC000FBD52F602068000603D400BF20680006F5
:102AD000FBD52E60ECE7044BCCE700BF105A000892
:102AE00000380140043801409859000840F26F3323
:102AF000984216D0B0F55C7F0BDB40F2EA63984257
:102B000005D040F2EC63984208D141207047422042
:102B10007047B0F5CE7F01D1432070474FF0FF30B2
:102B200070474020704700BF40F25533984219D09B
:102B300008DCB0F5CE7F13D040F2CF1398420AD113
:102B400004207047B0F5D36F08D040F29E639842DE
:102B500001D1022070474FF0FF30704701207047CD
:102B60000320704700207047032806D8DFE800F0F4
:102B7000022D29060B684A681A70704770B491F9E3
:102B800004400B78002C1F481F4A22DB072B98BFFC
:102B900010460F26012503F00702016892009640B7
:102BA00021EA060105FA02F20A4302600CB9103369
:102BB000DBB2012215499A400B6813430B6070BCCD
:102BC00070470B684A681A6070470B684A681A8039
:102BD0007047611C14BF08250425072B98BF1046B9
:102BE0000F2603F0070201689200964021EA0601D1
:102BF00005FA02F20A430260601CE0D00234D6D12A
:102C0000D7E700BF04080140000801401008014058
:102C100004283AD8DFE800F02636292C030009788A
:102C20001B4A1C4B0F20072998BF134670B401257F
:102C300001F007041A68A400A040174E174C22EABE
:102C40000000174A1860316025601368990703D4A3
:102C500000BF13689B07FBD5124B70BC1868C0F30C
:102C60000B0070470B68187870470B68186870473E
:102C700001230D4A097812688B40134214BF0120CA
:102C8000002070470B68188870470020704700BF0D
:102C90000008014004080140342401400824014098
:102CA000002401404C24014008080140031E4FF05D
:102CB00000000FDD4FF6FF71013B9BB203F1006294
:102CC00002F54042013B12789BB28B4280EA02003F
:102CD000F4D17047704700BF2DE9F043002866D05B
:102CE00000294FDD4FF0010E4FF00208824E4D1EBD
:102CF000ADB23388814F824C8249DFF814C205445B
:102D00000138DA0710F8019F23D4C3F3090287F8CA
:102D10000090B2B903F1006202F54042C4F80080AD
:102D2000CCF80020226842F0400222600A68D207F4
:102D300003D500BF0A68D207FBD4226822F0420202
:102D4000226001339BB2A8423380DAD10120BDE872
:102D5000F083C4F800E03A7823F0010303F1006344
:102D600003F5404342EA09221A800B68DA0703D5CB
:102D700000BF0B68DB07FBD42268338822F0010216
:102D80002260DEE7CA435C4E59B13388541E1344B7
:102D900003F1006303F540431B78835422B2541CB3
:102DA000F3D133880120591A3180BDE8F08300291E
:102DB00022D0514B1880C9DC40F2FE71524A534B6D
:102DC00012781B7843EA02235A1E92B28A4200F21A
:102DD0008F8003331BB2013B9BB203F1006202F50B
:102DE000404212781BB2002B80EA0200F3DCB0FAFA
:102DF00080F04009BDE8F0833F4E308820F00105A7
:102E00002BB2002B0EDD4FF6FF74013B9BB203F19A
:102E1000006202F54042013B12789BB2A34281EA74
:102E20000201F4D1C40721D4344AC0F3090311705C
:102E3000002B5FD10225324B354C00F1006202F5C8
:102E400040421D6022601C682E4A44F040041C6011
:102E50001368DB0703D500BF1368DF07FBD4284ADC
:102E60000C46136823F0420313601AE00127234B3A
:102E700005F100651C782248614044EA012305F50C
:102E80004045204A07602B801368D90703D500BF4F
:102E90001368DD07FBD41A4A3088136823F0010356
:102EA0001360431C9BB2DA0733807FF54FAF0125D7
:102EB00023F00103124803F1006364F0FF0103F5FE
:102EC000404389B20F4A056019801368D80704D5BA
:102ED000134600BF1A68D107FBD4094933880A6832
:102EE000013322F001020A6001203380BDE8F08343
:102EF000BDE8F0830C46D4E7B4000020B600002003
:102F0000102002400C20024001C0000800C0000850
:102F1000142002400D480E49421A0AD00D480346BB
:102F200010441A780133D2B283420A7001F10101D0
:102F3000F7D1094A094B9A4218BF002104D01970F1
:102F400001339342FBD17047704700BF5C00002003
:102F500000000020C05A0008490B00205C0000203F
:102F600008B5FFF761F910F4004F18BF0020C0B298
:102F700008BD00BF08B50D480D4B984209D00D495A
:102F80000A780133D2B203F8012C834201F1010126
:102F9000F6D1094A094B9A4218BF002103D0197093
:102FA00001339342FBD102F097FC00BF5C0000208C
:102FB00000000020C05A0008490B00205C000020DF
:102FC000704700BF70B51C4EB6F90000FDF718F948
:102FD0000546B0F9000050B9B6F90030012B29DDE3
:102FE0000120FDF70DF90546B0F9000010B3B6F960
:102FF0000230002B1EDD002403E0B6F90230A342AC
:1030000018DD431C338002F04BFB202002F028FB2C
:10301000A81C02F033FB02F0CFFBB5F9000001342D
:10302000013000B2FDF7ECF80546B0F9000024B21B
:103030000028E2D170BD00BF7A00002070B500F01A
:1030400097FB00F095FB0278102A37D0224EB6F994
:103050000000FDF7D5F80546B0F9000050B9B6F903
:103060000030012B29DD0120FDF7CAF80546B0F933
:10307000000010B3B6F90230002B1EDD002403E07F
:10308000B6F90230A34218DD431C338002F008FB7E
:10309000202002F0E5FAA81C02F0F0FA02F08CFB06
:1030A000B5F900000134013000B2FDF7A9F805467A
:1030B000B0F9000024B20028E2D170BDD0F8013090
:1030C000054E338000F054FB0378102B04BFD0F87A
:1030D00001307380BBE700BF7A00002008B50A4BBF
:1030E000186800F045FB00F043FB084A137843F0F2
:1030F000200313700378102B0CBFD0F801000120BF
:10310000BDE80840FEF73EBB340B0020300B00202A
:1031100008B5FDF7DDF828B9BDE808404FF0FF30ED
:10312000FEF730BBFDF70EF9BDE80840FEF780BBA7
:1031300008B5FDF7CDF8002206211046FFF794FCF4
:10314000202002F08DFA094BB3F90000023002F0A2
:10315000A7FA202002F084FA002208211046FFF787
:1031600083FCBDE8084002F027BB00BF80000020C0
:1031700008B5FDF7C9F838B902460921FFF774FC14
:10318000BDE8084002F018BB002207211046FFF7F7
:103190006BFC202002F064FA084BB3F90000023007
:1031A00002F07EFA202002F05BFA0022082110468D
:1031B000FFF75AFCBDE8084002F0FEBA800000208C
:1031C00008B5FCF7B5FFBDE80840FDF745BB00BFFB
:1031D000002208B510460121FFF746FC0F4BB3F95A
:1031E000000002F05DFA02F0E7FA00220221104628
:1031F000FFF73AFCFDF74AFB02F052FA02F0DCFA64
:10320000002203211046FFF72FFC054BB3F9000005
:1032100002F046FABDE8084002F0CEBA8000002075
:103220000000002010B5574C206802F091F940F2E0
:10323000B633984251D040F21233984252D0B0F592
:10324000D67F63D040F27533984265D040F29A330E
:1032500098427DD040F29A63984200F0848040F218
:10326000B333984214D0484C204602F081F92046EE
:1032700002F0F8F9202002F0F3F902F073F9C4F13A
:103280000104204402F00CFABDE8104002F094BAA8
:10329000002201211046FFF7E7FB3C4BB3F9000089
:1032A00002F0FEF902F088FA002202211046FFF730
:1032B000DBFBFDF7EBFA02F0F3F902F07DFA0022F6
:1032C00003211046FFF7D0FB314BB3F9000002F0A9
:1032D000E7F9BDE8104002F06FBA2068BDE8104081
:1032E000FFF7ACBE206800F043FA00F041FA294A2B
:1032F000137843F0200313700378102B14BF0120C0
:10330000D0F80100BDE81040FEF73CBAFCF7E0FF42
:1033100078BB4FF0FF30F5E7FCF7DAFF002206211B
:103320001046FFF7A1FB202002F09AF9174BB3F9E2
:103330000000023002F0B4F9202002F091F90022DE
:1033400008211046FFF790FBBDE8104002F034BAA8
:10335000FCF7DAFF024690B90921FFF785FBBDE8CB
:10336000104002F029BAFCF7E3FEBDE81040FDF77B
:1033700073BAFCF7E7FFBDE81040FEF759BA002228
:103380000721CDE7340B0020B8000020800000208A
:1033900000000020300B002038B5124C237803B910
:1033A00038BD114D2046296802F090F802F0DAF895
:1033B00018B1BDE83840FFF735BF28680378102BF7
:1033C00003D0BDE83840FEF7F5B8204602F01AF900
:1033D00002F0FCF82B68D3F80110BDE8384009B2C0
:1033E000FCF724BFB8000020340B002008B5FCF720
:1033F000A9FF28B9FCF79CFEBDE80840FDF72CBAF0
:1034000000220A211046FFF72FFB02F0D5F94FF4F6
:103410007A70FDF7CDFF0422014B1A7008BD00BF82
:10342000300B0020F8B505460E4602F0C5F9002223
:10343000184C11461046FFF717FB02F0BDF9601952
:10344000FCF78AFE29462046FDF72EFA00250120CA
:1034500003221149114B124F124C3144396018802C
:103460005A802570FCF76EFF28B9FCF761FEBDE8B5
:10347000F840FDF7F1B92A4628460A21FFF7F4FA89
:1034800002F09AF94FF47A70FDF792FF042323704B
:10349000F8BD00BF30010020B80000207A000020F5
:1034A000340B0020300B002010B5104B1B7863B993
:1034B000FDF78AFF00B910BD0D4A137823F004030D
:1034C0001370BDE81040FEF7B3B90022084C104657
:1034D00023780B2123F004032370FFF7C5FA02F0D1
:1034E0006BF9BDE81040FCF70FBF00BF880000205B
:1034F000300B002038B53B4C3B4D2178032918D0C8
:103500002B7803F01302102A22D003F00302022AC0
:1035100015D0032A08D0012A16D013F0200221D199
:10352000580732D4C1B938BDFEF706F9002323701D
:1035300038BD2A7842F0030213462A70E1E7FDF70E
:1035400067FF0023237038BDBDE83840FDF74CBF4E
:10355000BDE83840FEF794B9FCF712FE38B90023F5
:103560002370E0E70020BDE83840FEF70BB91F48A4
:103570000378002BF3D01E4D296801F0A7FF01F05E
:10358000F1FFE0B1FFF74EFEE9E759B9FDF71CFF87
:103590000028C8D02B7823F004032B70BDE83840F6
:1035A000FEF746B923F0040310460B212B70FFF7FA
:1035B0005BFA02F001F9BDE83840FCF7A5BE2868C7
:1035C0000378102B02D0FDF7F5FFC8E7074802F09B
:1035D00019F801F0FBFF2B68D3F8011009B2FCF7D2
:1035E00025FEBCE788000020300B0020B80000203A
:1035F000340B0020014B1868704700BF440B0020BB
:103600000378412B2BD8DFE803F023232A2A2A2A28
:103610002A2A2A2A2A2A2A2A2A2A212A2A2A2A2A13
:103620002A2A2A2A2A2A2A2A2A2A272527272A2A08
:103630002A2A2A2A2A2A2A2A2A2A252523252A2A00
:103640002A2A2A2A2A2A2A2A2A2A272705207047AC
:1036500001207047022070474078023070470020F8
:10366000704700BF0378002B37D00246412B32D879
:10367000DFE803F02D2D313131313131313131314C
:10368000313131312F31313131313131313131312C
:10369000313131312A212A2A31313131313131313F
:1036A0003131313121212D2131313131313131313E
:1036B000313131312A2A02231A441378002BD5D113
:1036C000101A013000B2704753780233F4E7012337
:1036D000F2E70523F0E70023EEE70120704700BF83
:1036E0000B78412B2FD8DFE803F02B2B2E2E2E2E1C
:1036F0002E2E2E2E2E2E2E2E2E2E282E2E2E2E2EF0
:103700002E2E2E2E2E2E2E2E2E2E242124242E2E04
:103710002E2E2E2E2E2E2E2E2E2E21212B212E2EF3
:103720002E2E2E2E2E2E2E2E2E2E24240222FEF76C
:10373000E3BF4A780232FEF7DFBF0522FEF7DCBFA7
:103740000122FEF7D9BF0022FEF7D6BF012230B416
:10375000044B054D054C1B68297020601A7030BC65
:10376000704700BF400B0020480B0020380B0020A2
:103770000378412B2FD8DFE803F02B2B2E2E2E2E93
:103780002E2E2E2E2E2E2E2E2E2E282E2E2E2E2E5F
:103790002E2E2E2E2E2E2E2E2E2E242124242E2E74
:1037A0002E2E2E2E2E2E2E2E2E2E21212B212E2E63
:1037B0002E2E2E2E2E2E2E2E2E2E24240223184474
:1037C0007047437802331844704705231844704704
:1037D00001231844704700231844704710B5034C68
:1037E0002368184401F0F2FE206010BD440B002055
:1037F00010B5314C2068037803F0F003202B05D07E
:103800000020FFF773F9002854DA10BD013002F0F0
:1038100043F840F2DA33984213D01ADD40F25E7377
:10382000984245D024DD40F2AC7398422DD040F64A
:103830000E53984227D040F283739842E1D10B2275
:1038400000E00D222120012123685A701870997020
:1038500010BDB0F5E67F09D01DDCD42819D040F2A8
:103860008F13984208BF0022ECD0CAE70722E9E78D
:1038700040F2E33398420AD040F27C63984208BF9A
:103880000122DFD0BDE70622DCE70522DAE70422C9
:10389000D8E70322D6E740F2CF13984206D040F291
:1038A000CD33984208BF0C22CCD0AAE70A22C9E740
:1038B0000222C7E7C2B2C5E7400B00202DE9F0475E
:1038C000344E81463368187801F082FF002852D0C8
:1038D0002022DFF8C8800025D8F800301A7008E0F0
:1038E0003368D8F800A0185D01F06AFF3D465444E3
:1038F000A07033682CB2185D01F0AAFF6F1C00287D
:10390000EED1D8F800305D70B9F1000F35D13068D4
:10391000204401F05BFED8F800101F4B30601960A6
:103920000B78412B33D8DFE803F02E2E32323232BF
:103930003232323232323232323230323232323269
:10394000323232323232323232322B212B2B32327D
:103950003232323232323232323221212E2132327E
:10396000323232323232323232322B2B02230120C7
:103970000B44C8F80030BDE8F087FFF739FFC6E711
:103980004A78931CF3E70123F1E70523EFE70023CF
:10399000EDE700BF440B00203C0B0020400B002053
:1039A00070B5254C23681A78272A01D0002070BDF5
:1039B0001026224D9A1C296810460E705B78C1F8BB
:1039C0000130226001F002FE29681D4B2060196061
:1039D0000B78412B2ED8DFE803F02B2B2D2D2D2D2E
:1039E0002D2D2D2D2D2D2D2D2D2D292D2D2D2D2D0B
:1039F0002D2D2D2D2D2D2D2D2D2D262126262D2D18
:103A00002D2D2D2D2D2D2D2D2D2D21212B212D2D0C
:103A10002D2D2D2D2D2D2D2D2D2D262602230B4424
:103A20002B60012070BD4A78931CF8E70523F6E768
:103A30000123F4E70023F2E7440B0020400B0020B1
:103A40003C0B00202DE9F8436A4D2B68187801F0F3
:103A5000CBFE002856D000224FF01008664F3B687E
:103A600083F800805A709A70DA7029681A710878A1
:103A700030285CD04FF00A08464611E02B68D7F892
:103A8000009018783146D9F8014001F0CFFE08FBCC
:103A900004F42044C9F801002B685A1C2A605878A5
:103AA000314601F0A7FE0028E8D1286801F08EFD1C
:103AB0003968524B286019600B78412B35D8DFE804
:103AC00003F02D2D34343434343434343434343439
:103AD00034342F34343434343434343434343434AB
:103AE00034343127313134343434343434343434AC
:103AF000343427272D2734343434343434343434B4
:103B0000343431312B681A78272A26D0BDE8F8835F
:103B100002230B4401203B60BDE8F8830123F8E752
:103B20000523F6E74A78931CF3E70023F1E748788A
:103B300001F046FE58282B6804D19A1C2A6046469C
:103B40009878ADE7587801F03BFE42283BD04FF023
:103B500008082B6846461878A2E71024264F9A1CBE
:103B6000396810460C705B78C1F801302A6001F0AA
:103B70002DFD3A68214B28601A601378412B37D805
:103B8000DFE803F0343436363636363636363636F7
:103B900036363636323636363636363636363636C9
:103BA000363636362F292F2F3636363636363636D7
:103BB00036363636292934293636363636363636CE
:103BC000363636362F2F4FF0020846462B689A19A4
:103BD0002A60987864E7022313443B600120BDE823
:103BE000F88353780233F7E70523F5E70123F3E77A
:103BF0000023F1E7440B0020400B00203C0B002089
:103C00000A4B1A68137823B9094A01201268137005
:103C1000704730B401210525054B064C06481B684A
:103C2000257002601970002030BC7047440B0020E2
:103C3000400B0020480B0020380B0020F8B52E4D1B
:103C40002E4C2F683846FEF74BFD41222368C6B242
:103C500058701A70981C32463946FEF74DFD286898
:103C6000304401F0B3FC2368254A286013601A78B9
:103C7000412A3ED8DFE802F039393D3D3D3D3D3D2A
:103C80003D3D3D3D3D3D3D3D3B3D3D3D3D3D3D3D66
:103C90003D3D3D3D3D3D3D3D292129293D3D3D3DAC
:103CA0003D3D3D3D3D3D3D3D212139213D3D3D3D9C
:103CB0003D3D3D3D3D3D3D3D292902229918216074
:103CC000017849B999540120F8BD5A7802329918FF
:103CD000216001780029F5D005260121094D0A4C03
:103CE0002E70206099540020F8BD0122E6E70522DD
:103CF000E4E70022E2E700BF440B0020400B002075
:103D00003C0B0020480B0020380B0020F8B5354D47
:103D10002C682378222B01D00020F8BD4023324E9E
:103D200004F1010E37683B706178002953D02229D5
:103D300054D0012301E022290AD05A1C92B23B44FC
:103D4000597013B2E15C184604EB030E0029F2D15E
:103D5000013AD2B27A709EF80030222B08BF0130AF
:103D6000204401F033FC3268204B28601A6013783D
:103D7000412B2ED8DFE803F02B2B2D2D2D2D2D2DB3
:103D80002D2D2D2D2D2D2D2D292D2D2D2D2D2D2D67
:103D90002D2D2D2D2D2D2D2D262126262D2D2D2D74
:103DA0002D2D2D2D2D2D2D2D21212B212D2D2D2D69
:103DB0002D2D2D2D2D2D2D2D262602231344336040
:103DC0000120F8BD53780233F8E70523F6E7012315
:103DD000F4E70023F2E70A460120BBE700220120B6
:103DE000B8E700BF440B0020400B00203C0B002034
:103DF000302370B5324D334C2E68337023681878F9
:103E00003C284CD03E2851D001F0DAFC707020687C
:103E1000013001F0DBFB29682B4B206019600B7827
:103E2000412B37D8DFE803F03131363636363636B7
:103E300036363636363636362C363636363636362C
:103E40003636363636363636262126263636363657
:103E50003636363636363636212131213636363646
:103E60003636363636363636262602230B442B6057
:103E7000012070BD4A780120931C0B442B6070BD5B
:103E800005230B442B60012070BD01230B442B60E4
:103E9000012070BD00230B442B60012070BD5A78B7
:103EA0003E2A0AD03D2AAFD17B2003E05A783D2A32
:103EB000AAD17D2001332360A6E72320FAE700BFC3
:103EC000400B0020440B00203C0B002038B50D4B6C
:103ED0001C68FFF7B7FD98B147F22F520A4B1B68D9
:103EE000D3F80130013B93420AD907250122074B41
:103EF00007481B68074905700C601A70002038BD20
:103F0000012038BD440B00203C0B0020400B00205A
:103F1000480B0020380B002038B5274C2068037868
:103F20003B2B0AD004250122244B254C1B68254934
:103F3000257008601A70002038BD32221F4D0130F4
:103F40002B681A7001F042FB29681F4B2060196032
:103F50000B78412B2ED8DFE803F02B2B2D2D2D2DA8
:103F60002D2D2D2D2D2D2D2D2D2D292D2D2D2D2D85
:103F70002D2D2D2D2D2D2D2D2D2D262126262D2D92
:103F80002D2D2D2D2D2D2D2D2D2D21212B212D2D87
:103F90002D2D2D2D2D2D2D2D2D2D262602230B449F
:103FA00001202B6038BD4A78931CF8E70523F6E71B
:103FB0000123F4E70023F2E7440B0020400B00202C
:103FC000480B0020380B00203C0B00200C4B1868DD
:103FD000037873B1002204E0292B0BD010F8013FC5
:103FE0003BB1282BF8D110F8013F0132D2B2002B9F
:103FF000F7D17047013A12F0FF02EFD1704700BFCE
:10400000440B0020F8B5224D2B6818783D283BD092
:1040100028280AD0022501211E4A1F4C12681F4879
:104020002570036011700020F8BD002404E02928E9
:1040300014D013F8010F38B12828F8D113F8010F64
:104040000134E4B20028F7D10A260121114A124DA9
:104050001268124C2E7023601170F8BD013C14F0F0
:10406000FF04E6D1581C01F0B1FA03783D2B0DD0C6
:1040700002260122074B2F680749084D1B682F6055
:104080000E701A702046F8BD0820F8BD0920F8BD52
:10409000440B0020400B0020480B0020380B002070
:1040A00070B5384D2C68237873B1002204E0292BB9
:1040B00013D014F8013F3BB1282BF8D114F8013F7D
:1040C0000132D2B2002BF7D13B2323702B6801338E
:1040D0002B60FDF799FE28B970BD013A12F0FF027E
:1040E000E7D1F1E7286803783B2B0CD004260122A6
:1040F000254B264D1B6826492E7008601A7029230F
:104100002370012070BD32221F4E013033681A70B7
:1041100001F05CFA32681F4B28601A601378412B5B
:104120002DD8DFE803F02A2A2C2C2C2C2C2C2C2C1C
:104130002C2C2C2C2C2C282C2C2C2C2C2C2C2C2CC3
:104140002C2C2C2C2C2C252125252C2C2C2C2C2CCF
:104150002C2C2C2C2C2C21212A212C2C2C2C2C2CC2
:104160002C2C2C2C2C2C2525022313443360C6E741
:1041700053780233F9E70523F7E70123F5E7002336
:10418000F3E700BF440B0020400B0020480B002049
:10419000380B00203C0B0020F8B56D4C20680378EC
:1041A0003D2B33D0282B0AD002250122694B6A4CC3
:1041B0001B686A49257008601A700020F8BD00224B
:1041C00004E0292B0CD010F8013F3BB1282BF8D18B
:1041D00010F8013F0132D2B2002BF7D10A25E4E7F3
:1041E000013A12F0FF02EED1013001F0EFF903784D
:1041F0003D2B00F0E18002200122564B25685649F4
:10420000564C1B68256008701A70D6E72122514E63
:10421000534F33681A7039680B78881C412B00F2B1
:10422000A880DFE803F02121A6A6A6A6A6A6A6A63A
:10423000A6A6A6A6A6A67AA6A6A6A6A6A6A6A6A64A
:10424000A6A6A6A6A6A676527676A6A6A6A6A6A6F2
:10425000A6A6A6A6A6A652522152A6A6A6A6A6A67F
:10426000A6A6A6A6A6A67676212508200B788B7092
:104270003B689A1C1D70587032603A6099784129E9
:1042800000F2C780DFE801F07373C5C5C5C5C5C5B9
:10429000C5C5C5C5C5C5C5C54CC5C5C5C5C5C5C547
:1042A000C5C5C5C5C5C5C5C56E956E6EC5C5C5C5F3
:1042B000C5C5C5C5C5C5C5C595957395C5C5C5C590
:1042C000C5C5C5C5C5C5C5C56E6E08250222FEF7A4
:1042D0007BFA21213B68092D03F1020219705D7000
:1042E0003260CAD1332019799870D9702568931C2F
:1042F0003A6033602B78002233B947E0292B41D054
:1043000015F8013F002B41D0282BF7D10132D2B252
:10431000F6E708254A780232D9E708250522D6E7CC
:10432000073333602068013001F050F92060FDF759
:104330006BFD30B322681378002B36D005250121A0
:104340003368054C05482570026019700020F8BDDF
:10435000440B0020400B0020480B0020380B0020AD
:104360003C0B0020DB7802331A443260DAE7012389
:10437000FAE7212008213B689A1C187059703260B6
:104380007BE7F8BD013A12F0FF02B9D13B232B7055
:10439000236801332360FDF737FD00283FF40DAF9C
:1043A000FFF7BAFD29232B70BCE732680120137098
:1043B000F8BD02323260B5E72122224E224F336827
:1043C0001A7039680B78881C412B2AD8DFE803F073
:1043D000303029292929292929292929292929293F
:1043E000272929292929292929292929292929293F
:1043F000252325252929292929292929292929293F
:104400002323302329292929292929292929292927
:1044100025250023A8E7092558E709257AE7092576
:104420007CE7092221213B685A7019709A1C59E7D0
:10443000092221200B788B703B685A7018709A1CE7
:1044400050E700BF400B00203C0B0020F8B5364D74
:104450002C682378222B03D0BDE8F840FDF7D4BCAC
:104460004023324E04F1010E37683B706178002919
:1044700053D0222954D0012301E022290AD05A1C0A
:1044800092B23B44597013B2E15C184604EB030E40
:104490000029F2D1013AD2B27A709EF80030222B74
:1044A00008BF0130204401F091F83268204B2860A9
:1044B0001A601378412B2ED8DFE803F02B2B2D2D1B
:1044C0002D2D2D2D2D2D2D2D2D2D2D2D292D2D2D20
:1044D0002D2D2D2D2D2D2D2D2D2D2D2D262126262D
:1044E0002D2D2D2D2D2D2D2D2D2D2D2D21212B2122
:1044F0002D2D2D2D2D2D2D2D2D2D2D2D262602232F
:10450000134433600120F8BD53780233F8E70523E4
:10451000F6E70123F4E70023F2E70A460120BBE7B0
:1045200000220120B8E700BF440B0020400B002010
:104530003C0B00202DE9F843374E3368187801F022
:1045400047F900284AD02022DFF8D4900025D9F876
:1045500000301A7008E03368D9F80080185D01F067
:104560002FF93D464444A07033682CB2185D01F029
:104570006FF96F1C0028EED1D9F800305D703068FB
:10458000204401F023F8D9F80030244A3060136049
:104590001A78412A3ED8DFE802F036363D3D3D3DEF
:1045A0003D3D3D3D3D3D3D3D3D3D383D3D3D3D3D40
:1045B0003D3D3D3D3D3D3D3D3D3D3A2D3A3A3D3D44
:1045C0003D3D3D3D3D3D3D3D3D3D2D2D362D3D3D52
:1045D0003D3D3D3D3D3D3D3D3D3D3A3A03240122BB
:1045E0000F4B36680F4D10491B682E600C701A7007
:1045F000BDE8F883022222211A44C9F8002019706C
:104600000120BDE8F8830122F5E70522F3E75A7897
:104610000232F0E70022EEE7440B00203C0B0020C2
:10462000400B0020380B0020480B0020F8B5FDF7A8
:10463000EBFB002848D032262B4F2C4C2C4D206809
:104640000378002B4BD03B2B09D0042501223B687B
:10465000284C2949257008601A700020F8BD3B6875
:1046600001301E7000F0B2FF3968206029600B78BD
:10467000412B32D8DFE803F02F2F31313131313186
:1046800031313131313131312D313131313131311E
:1046900031313131313131312A212A2A313131312F
:1046A000313131313131313121212F21313131312C
:1046B00031313131313131312A2A02230B443B600F
:1046C000FDF7A2FB0028BAD10020F8BD4A78931C60
:1046D000F4E70523F2E70123F0E70023EEE73A6869
:1046E00001201370F8BD00BF400B0020440B0020D8
:1046F0003C0B0020480B0020380B00202DE9F04136
:104700006D4C20680378222B00F0C980FDF77CFBFC
:1047100010B90020BDE8F081684F20683B68322660
:10472000674D0278002A4AD03B2A09D0042501228D
:10473000644C6549257008601A700020BDE8F0815E
:104740001E70013000F042FF3B6820602B601A7839
:10475000412A00F29580DFE802F0919193939393C0
:10476000939393939393939393938F93939393931D
:104770009393939393939393939336213636939392
:104780009393939393939393939321219121939351
:10479000939393939393939393933636022103EBDE
:1047A000010EC7F800E00278222A15D0FDF72CFB95
:1047B0000028AED020683B680278002AB4D11A7075
:1047C0000120BDE8F0815978023103EB010EC7F8F2
:1047D00000E00278222AE9D140225A54417800F1BF
:1047E0000108002900F0C180222900F0C2800123C5
:1047F00001E022290AD05A1C92B27344597013B2B4
:10480000C15C9C4600EB03080029F2D1013AD2B208
:104810008EF8012098F80030222B08BF0CF1010C13
:10482000604400F0D3FE3A6820602A601378412B80
:1048300033D8DFE803F030303232323232323232C3
:104840003232323232322E3232323232323232324C
:104850003232323232322B272B2B32323232323258
:10486000323232323232272730273232323232324B
:104870003232323232322B2B052190E701218EE782
:1048800000218CE7022313443B604AE7537802334C
:10489000F9E70523F7E70123F5E70023F3E74023D2
:1048A000064F00F1010E3E6833704278002A65D051
:1048B000222A62D001230BE0440B0020400B002091
:1048C0003C0B0020480B0020380B0020222A0AD085
:1048D000591C89B233445A700BB2C25C1D4600EBBE
:1048E000030E002AF2D14A1ED2B272709EF8003036
:1048F000222B08BF0135284400F068FE3A68204B9F
:1049000020601A601378412B2DD8DFE803F02A2AA3
:104910002C2C2C2C2C2C2C2C2C2C2C2C2C2C282CDB
:104920002C2C2C2C2C2C2C2C2C2C2C2C2C2C2521D9
:1049300025252C2C2C2C2C2C2C2C2C2C2C2C2121DB
:104940002A212C2C2C2C2C2C2C2C2C2C2C2C2525C2
:10495000022313443B60E2E653780233F9E7052370
:10496000F7E70123F5E70023F3E70A464FF0010CD0
:104970004EE700224FF0010C4AE700220125B4E780
:104980003C0B00202DE9F8434027414C414DDFF816
:10499000109103E020680378002B61D0FFF752F8F4
:1049A0000028F7D121680B78222B09D00826012294
:1049B0002B68394C394D21602E701A70BDE8F88390
:1049C000D5F800E001F101088EF800704E78002E55
:1049D00058D0222E59D0012301E0222E0AD05A1C91
:1049E00092B273445E7013B2CE5C184601EB0308BA
:1049F000002EF2D1013AD2B28EF8012098F80030A0
:104A0000222B08BF0130084400F0E0FD2A68206036
:104A1000C9F800201378412B32D8DFE803F02F2F9C
:104A200031313131313131313131313131312D317A
:104A300031313131313131313131313131312A2678
:104A40002A2A31313131313131313131313126267A
:104A50002F263131313131313131313131312A2A61
:104A60002A6801201370BDE8F883022313442B60E9
:104A700091E753780233F9E70523F7E70123F5E7D8
:104A80000023F3E732460120B6E702460120B3E7F0
:104A9000440B0020400B0020380B0020480B002066
:104AA0003C0B00202DE9F041B8B96F4DDFF8C8810B
:104AB0002A6813785BB105250121D8F800306B4CCA
:104AC0006B482570026019700020BDE8F081D8F8AD
:104AD000002001201370BDE8F0810446FDF794F931
:104AE00000B33227604DDFF89081624E601E10F0F7
:104AF000FF04DDD0286803783B2B16D00425012263
:104B0000D8F80030594C5A49257008601A700020B6
:104B1000BDE8F08102230B44C8F80030FDF774F9BA
:104B20000028E3D10020BDE8F081D8F80030013042
:104B30001F7000F04BFDD8F80010286031600B7832
:104B4000412B00F28E8001A252F823F05F4C000846
:104B50005F4C0008634C0008634C0008634C00087D
:104B6000634C0008634C0008634C0008634C000869
:104B7000634C0008634C0008634C0008634C000859
:104B8000634C0008634C0008634C00085B4C000851
:104B9000634C0008634C0008634C0008634C000839
:104BA000634C0008634C0008634C0008634C000829
:104BB000634C0008634C0008634C0008634C000819
:104BC000634C0008634C0008634C0008554C000817
:104BD000154B0008554C0008554C0008634C000864
:104BE000634C0008634C0008634C0008634C0008E9
:104BF000634C0008634C0008634C0008634C0008D9
:104C0000634C0008634C0008634C0008154B000817
:104C1000154B00085F4C0008154B0008634C00085A
:104C2000634C0008634C0008634C0008634C0008A8
:104C3000634C0008634C0008634C0008634C000898
:104C4000634C0008634C0008634C0008554C000896
:104C5000554C00084A78931C5DE705235BE7012368
:104C600059E7002357E700BF440B0020480B002002
:104C7000380B00203C0B0020400B002070B5FEF7E5
:104C8000E1FE70B10F4B1A681378B3B1052501210D
:104C90000D4B0E4C1B680E482570026019700020E9
:104CA00070BD082401220749074B0E68084D0749CB
:104CB0001B682E600C701A7070BD034A01201268C8
:104CC000137070BD440B0020400B0020480B0020E7
:104CD000380B00202DE9F843404F3B68187800F06E
:104CE00077FD00283CD02022DFF8F4800026D8F899
:104CF00000301A7008E03B68D8F80050185D00F0EA
:104D00005FFD4E462C44A0703B6834B2185D00F045
:104D10009FFD06F1010905460028ECD1D8F80030C6
:104D2000DFF8C8905E703868204400F04FFC3321F3
:104D3000D8F800303860C9F800309A7819705A7085
:104D40000233C8F80030FEF77DFEA8B13B681B783F
:104D5000F3B90022D8F8003001201A70BDE8F883BA
:104D6000032401221E4B3E681E4D1F491B682E6006
:104D70000C701A70BDE8F883082401223E68D8F848
:104D80000030184D18492E600C701A70BDE8F88379
:104D9000FFF72EF8A0B1D9F800305B78422B0FD185
:104DA0003F683B78002BD4D005260122D8F800308C
:104DB0000D4C0C4926700F601A702846BDE8F88328
:104DC000092001223D68D8F80030064C06492560CC
:104DD00008701A700020BDE8F88300BF440B002063
:104DE000400B0020380B0020480B00203C0B00201B
:104DF0002DE9F84FDFF86082D8F800201378412BB6
:104E000043D8DFE813F024012401420042004200AD
:104E10004200420042004200420042004200420082
:104E20004200420042002201420042004200420091
:104E30004200420042004200420042004200420062
:104E40004200420042001F011D011F011F014200DC
:104E50004200420042004200420042004200420042
:104E60004200420042001D011D0124011D014200BB
:104E70004200420042004200420042004200420022
:104E80004200420042001F011F0100234FF0200A90
:104E9000704F13443868DFF8C491C8F800300078C8
:104EA00000F096FC002852D0D8F80030002683F895
:104EB00000A008E03B68D8F80050185D00F080FCC6
:104EC0005E462C44A0703B6834B2185D00F0C0FC14
:104ED00006F1010B0028EDD1D8F800305E7038687B
:104EE000204400F073FBD8F800103860C9F80010B7
:104EF0000B78412B37D8DFE803F0343436363636BA
:104F00003636363636363636363632363636363645
:104F1000363636363636363636362F212F2F36365B
:104F20003636363636363636363621213421363662
:104F3000363636363636363636362F2F02230B4483
:104F4000C8F80030007800F043FC0028ACD1FEF730
:104F500079FD50B13868A2E74A78931CEFE7052342
:104F6000EDE70123EBE70023E9E739680B78222B13
:104F700005D00122D8F800301A70BDE8F88F402320
:104F8000D8F800404E1C23704D78002D55D0222DAE
:104F900050D0012201E0222D09D0531C9BB22244A3
:104FA00055701AB28D5C10468E18002DF3D1013B5E
:104FB000DBB263703378222B08BF0130084400F065
:104FC00005FBD8F800203860C9F800201378412B81
:104FD0002ED8DFE803F02B2B2D2D2D2D2D2D2D2D53
:104FE0002D2D2D2D2D2D292D2D2D2D2D2D2D2D2DF5
:104FF0002D2D2D2D2D2D262126262D2D2D2D2D2D02
:105000002D2D2D2D2D2D21212B212D2D2D2D2D2DF6
:105010002D2D2D2D2D2D262602231344C8F80030CA
:105020003DE753780233F8E70523F6E70123F4E779
:105030000023F2E703460120BBE72B460120B8E737
:10504000022323E75378023320E705231EE70123D9
:105050001CE700BF440B0020400B00203C0B00204D
:105060002DE9F0477A4F3B68187800F0B1FB002833
:1050700051D02022DFF8DC810026D8F800301A70E9
:1050800008E03B68D8F80050185D00F099FB4E46E8
:105090002C44A0703B6834B2185D00F0D9FB06F1D7
:1050A000010905460028ECD1D8F80030DFF8B091AE
:1050B0005E70FEF79DFB3868204400F087FAD8F850
:1050C00000303860C9F800301A780646412A6ED898
:1050D000DFE802F02E2E6D6D6D6D6D6D6D6D6D6D79
:1050E0006D6D6D6D5D6D6D6D6D6D6D6D6D6D6D6D00
:1050F0006D6D6D6D686B68686D6D6D6D6D6D6D6DF1
:105100006D6D6D6D6B6B2E6B6D6D6D6D6D6D6D6D14
:105110006D6D6D6D686801234E4A3C6805464E49C9
:105120004E48126804600B7013702846BDE8F08783
:1051300001241C44212AC8F800402BD15B78DBB342
:105140001A1F012A40F29F809A1F012A70D9012B51
:1051500000F0C880022B00F0B780032B00F0CB805A
:105160000A2B00F02A810B2B00F09C800C2B00F006
:1051700028810D2B00F0D2803F2B00F2AB8006205F
:1051800001233549354A087016602370CDE7053391
:10519000C8F80030FFF700F8054650B10125284651
:1051A000BDE8F0875C780234C3E70224C1E700243D
:1051B000BFE7FFF71DFEB8E73046FDF791FA412340
:1051C0005FFA80FA5246237060703146A01CFDF7EA
:1051D00093FA3868504400F0F9F9D8F80030386094
:1051E000C9F800301A78412A43D8DFE802F040407D
:1051F00042424242424242424242424242423E4293
:1052000042424242424242424242424242423B289F
:105210003B3B4242424242424242424242422828B0
:1052200040284242424242424242424242423B3B88
:1052300033780BB10520A3E72370012575E702221F
:105240009918C8F800100178A9B9995401256CE79C
:10525000440B0020400B0020480B0020380B00209E
:105260003C0B00205A780232EAE70522E8E70122E7
:10527000E6E70022E4E705270121604E604C377025
:105280002060995451E7FEF7DDFB80B90824012224
:105290003F68D8F800305A4E584937600C700546C0
:1052A0001A7042E7FCF7B0FD00283FF43EAF3A68C1
:1052B0001378DBB105260121D8F800304F4C504857
:1052C00026700260197030E7FFF734F90028EED13C
:1052D00005462AE74B4ABDE8F047134413F8400C53
:1052E000FFF7E0BBBDE8F047FFF708BAD8F80020A9
:1052F0000125137019E7FCF787FD00283FF415AF6F
:10530000386803783B2B60D004260122D8F800309F
:105310003A4C3B49267008601A7006E7FCF774FDAA
:1053200000283FF402AF322438680378002BDDD028
:105330003B2BE9D1D8F8003001301C7000F046F961
:10534000D8F800203860C9F800201378412B32D8F3
:10535000DFE803F02F2F313131313131313131314B
:10536000313131312D313131313131313131313131
:10537000313131312A212A2A313131313131313142
:105380003131313121212F2131313131313131313F
:10539000313131312A2A02231344C8F80030FCF796
:1053A00033FD0028C0D1C0E653780233F4E705236B
:1053B000F2E70123F0E70023EEE7BDE8F047FFF74F
:1053C00089BCBDE8F047FFF7DDBA3222D8F80030DB
:1053D00001301A7000F0FAF8D8F80010386008466A
:1053E000C9F80010FEF70CF90844C8F80000FFF7F0
:1053F00037FE051C18BF012597E600BF480B0020AB
:10540000380B00205800002038B5FCF7FDFC00B92F
:1054100038BD294C206803783B2B0AD00425012293
:10542000264B274C1B682749257008601A700020FE
:1054300038BD3222214D01302B681A7000F0C6F8B9
:105440002968214B206019600B78412B32D8DFE8A6
:1054500003F02F2F313131313131313131313131AF
:1054600031312D3131313131313131313131313130
:1054700031312A212A2A3131313131313131313141
:10548000313121212F21313131313131313131313E
:1054900031312A2A02230B442B60FFF7E1FD003053
:1054A00018BF012038BD4A78931CF4E70523F2E7C2
:1054B0000123F0E70023EEE7440B0020400B00201F
:1054C000480B0020380B00203C0B00202DE9F04752
:1054D00000230127174C184D184EDFF86480DFF8C1
:1054E00064A020602960336088F80030CAF800307A
:1054F0000F708146FEF7A6FA80B147F22F5233684B
:10550000D3F80130013B934208D907222B68CAF82F
:10551000009088F800201F70BDE8F08723681B7892
:105520001BB92A681370BDE8F087BDE8F047FFF7A4
:1055300097BD00BF440B0020400B00203C0B002017
:10554000480B0020380B0020007800F0F000704776
:10555000037803F0F003202B01D0002070470130C6
:1055600000F09AB9014B1868704700BF380B002053
:10557000024B024619780120FDF776BA480B00204D
:1055800002780021531E1F2B05D8013109B2425C5D
:10559000531E1F2BF9D9BAB130B400256B1C9BB236
:1055A0005C18425522B2825C1BB21D46002AF5D11E
:1055B00011465A1E12B2002AC15403DB845C134602
:1055C000202CF6D930BC7047027070470378093B35
:1055D000DBB2172B07D8012110B4094C01FA03F3F1
:1055E000234203D110BC70472242FBD010F8013F88
:1055F000093BDBB2172B01FA03F2F5D9F2E700BF42
:105600001F0080000378303B092B04D810F8013FBD
:10561000303B092BFAD970470B7843B1984202D13D
:1056200007E0834205D011F8013F002BF9D118465D
:10563000704701231846704770B5044608460D466A
:10564000FDF74EF82678864201D0002070BD324624
:105650002946601CFDF79CF8B0FA80F0400970BD47
:10566000FDF704B910B50446007828B1FDF7FEF83F
:1056700014F8010F0028F9D110BD00BF38B5037828
:1056800063B1002305461C462B445878FDF7EEF81D
:1056900001342A7824B294422346F5DB38BD00BF9A
:1056A000F8B5051E23DB1DD0134B144C9D4208DCBE
:1056B000134A82FB0413E417C4EBA304AC42F8DCE6
:1056C0007CB10F4F95FBF4F606F13000C0B2FDF748
:1056D000CDF887FB0432E31704FB1655D3EBA20485
:1056E000F0D1F8BD3020BDE8F840FDF7BFB82D205F
:1056F0006D42FDF7BBF8D7E7FFC99A3B00CA9A3B5A
:105700006766666630B403782D2B03BF43784FF08D
:10571000FF3501300125302B31D00A242F2B88BFD3
:1057200000223FD9392B0DD9A3F16101192919D8CC
:10573000A3F12001C9B23639A14207DD02FB05F011
:1057400030BC7047A3F12F01A142F7DC392B04FBD9
:1057500002F20BD8303BD9B210F8013F0A442F2B8C
:10576000E0D8EBE7402BE9D91946E4E7A3F1610162
:1057700019299CBF203BDBB2373BD9B2ECE7437819
:10578000A3F16102192A07D9582B0DD01A46422AD3
:105790000ED001300824C1E7782B05D0A3F12002F8
:1057A000D2B2F4E70020CBE7837810240230B5E7CB
:1057B000022483782044B1E70A20FDF757B800BFE0
:1057C000A0F16103192B9CBF2038C0B2704700BF05
:1057D000A0F16103192B9CBF2038C0B241381928B1
:1057E0008CBF002001207047303809288CBF002072
:1057F000012070472F280FD939280FD9A0F1610354
:10580000192B07D82038C3B2363B8B42CCBF0020BF
:1058100001207047402807D8002070472F38884261
:10582000CCBF0020012070470346EDE72F280DD99B
:10583000392808D9A0F16103192B9CBF2038C0B2C8
:105840003738C0B270473038C0B270470020704758
:10585000A0F13003092B0BD9A0F16103192B9CBFD8
:105860002038C0B2413819288CBF00200120704771
:10587000012070470938C0B2172808D80122054B0B
:1058800002FA00F00340181C18BF012070470020E6
:10589000704700BF1F008000027862B103460020FD
:1058A000511EC9B20131194413F8012F994282EAFD
:1058B0004000F9D170471046704700BF38B5054623
:1058C0000120FDF7B7F804460120FDF7B3F8001BEF
:0858D000A842F9DB38BD00BF5E
:1058D800124A08B51368302043F004031360FCF73C
:1058E800B9FE0F4B0F49104A19604FF4D0701A6077
:1058F800FCF720FCFCF7E0FDFCF7A6FB28214FF4A1
:1059080000700A4CFDF78AFDFCF78AFC10F4004F82
:1059180018BF00202070FDF7E9FDF5E718100240D8
:105928000420024023016745AB89EFCD88000020A1
:1059380019FF0AFF1405FF00FF140FFF0FFF14FFE4
:10594800FFFFFFFFFFFFFFFFFFFFFF0A0A0AFFFF3E
:10595800FFFFFFFFFFFFFFFFFFFFFFFFFFFFFFFF4F
:10596800FFFFFFFFFFFFFFFFFFFFFFFFFFFFFFFF3F
:10597800FFFFFFFFFFFFFFFFFFFFFFFFFFFFFFFF2F
:0E598800FFFFFFFFFFFFFFFFFFFF0A050A19E9
:105998004D69736B6174696E6F20424153494320AE
:1059A800312E350A636F64653A200A766172733A5C
:1059B800200A6E6578743A200A425245414B0A45DE
:1059C8006E64206F6620636F64650A536176656450
:1059D8000A4C6F616465640A62797465730A4C6F76
:1059E8006164206661696C65640A4175746F7275DB
:1059F8006E20696E2031207365630A43616E6365AA
:105A08006C6564210A0000000A436D64206F7220EF
:105A1800566172206578702D640A53796D626F6CD7
:105A280020273D27206578702D640A4E616D65201A
:105A380065787065637465640A53796D626F6C206C
:105A4800273B27206578702D640A45787472612099
:105A5800636861727320617420656E640A556E65AF
:105A680078706563746564206572726F720A4E752A
:105A78006D626572206F7574206F662072616E6743
:105A8800650A4E756D626572206578706563746528
:105A9800640A556E65787065637465642073796D02
:105AA800626F6C0A556E6578702D64206C696E653E
:085AB80020656E640A00000085
:105AC000010000003104000879110008B104000849
:105AD000E91100084D04000871040008FD030008E6
